{
  "_format": "hh-sol-artifact-1",
  "contractName": "PremimumCalculator",
  "sourceName": "contracts/PremimumCalculator.sol",
  "abi": [
    {
      "inputs": [],
      "stateMutability": "nonpayable",
      "type": "constructor"
    },
    {
      "anonymous": false,
      "inputs": [
        {
          "indexed": false,
          "internalType": "uint256",
          "name": "oldBasePremium",
          "type": "uint256"
        },
        {
          "indexed": false,
          "internalType": "uint256",
          "name": "newBasePremium",
          "type": "uint256"
        }
      ],
      "name": "BasePremiumUpdated",
      "type": "event"
    },
    {
      "anonymous": false,
      "inputs": [
        {
          "indexed": false,
          "internalType": "bytes2",
          "name": "coefficientType",
          "type": "bytes2"
        },
        {
          "indexed": false,
          "internalType": "uint256",
          "name": "coefficient",
          "type": "uint256"
        }
      ],
      "name": "CoefficientRemoved",
      "type": "event"
    },
    {
      "anonymous": false,
      "inputs": [
        {
          "indexed": false,
          "internalType": "bytes2",
          "name": "coefficientType",
          "type": "bytes2"
        },
        {
          "indexed": false,
          "internalType": "string",
          "name": "key",
          "type": "string"
        },
        {
          "indexed": false,
          "internalType": "uint256",
          "name": "coefficient",
          "type": "uint256"
        }
      ],
      "name": "CoefficientSet",
      "type": "event"
    },
    {
      "anonymous": false,
      "inputs": [
        {
          "indexed": false,
          "internalType": "bytes2",
          "name": "coefficientType",
          "type": "bytes2"
        },
        {
          "indexed": false,
          "internalType": "uint256",
          "name": "minValue",
          "type": "uint256"
        },
        {
          "indexed": false,
          "internalType": "uint256",
          "name": "maxValue",
          "type": "uint256"
        },
        {
          "indexed": false,
          "internalType": "uint256",
          "name": "newCoefficient",
          "type": "uint256"
        }
      ],
      "name": "IntervalCoefficientSet",
      "type": "event"
    },
    {
      "anonymous": false,
      "inputs": [
        {
          "indexed": false,
          "internalType": "uint256",
          "name": "oldLoading",
          "type": "uint256"
        },
        {
          "indexed": false,
          "internalType": "uint256",
          "name": "newLoading",
          "type": "uint256"
        }
      ],
      "name": "LoadingUpdated",
      "type": "event"
    },
    {
      "anonymous": false,
      "inputs": [
        {
          "indexed": false,
          "internalType": "uint256",
          "name": "oldPayout",
          "type": "uint256"
        },
        {
          "indexed": false,
          "internalType": "uint256",
          "name": "newPayout",
          "type": "uint256"
        }
      ],
      "name": "PayoutUpdated",
      "type": "event"
    },
    {
      "inputs": [],
      "name": "basePremium",
      "outputs": [
        {
          "internalType": "uint256",
          "name": "",
          "type": "uint256"
        }
      ],
      "stateMutability": "view",
      "type": "function"
    },
    {
      "inputs": [
        {
          "internalType": "uint256",
          "name": "premiumAmount",
          "type": "uint256"
        }
      ],
      "name": "calculatePayout",
      "outputs": [
        {
          "internalType": "uint256",
          "name": "",
          "type": "uint256"
        }
      ],
      "stateMutability": "view",
      "type": "function"
    },
    {
      "inputs": [
        {
          "internalType": "string",
          "name": "_breed",
          "type": "string"
        },
        {
          "internalType": "uint256",
          "name": "_ageInMonths",
          "type": "uint256"
        },
        {
          "internalType": "string",
          "name": "_healthCondition",
          "type": "string"
        },
        {
          "internalType": "string",
          "name": "_region",
          "type": "string"
        },
        {
          "internalType": "string",
          "name": "_policyType",
          "type": "string"
        }
      ],
      "name": "calculatePremium",
      "outputs": [
        {
          "internalType": "uint256",
          "name": "premium",
          "type": "uint256"
        }
      ],
      "stateMutability": "view",
      "type": "function"
    },
    {
      "inputs": [
        {
          "internalType": "string",
          "name": "_breed",
          "type": "string"
        },
        {
          "internalType": "string",
          "name": "_region",
          "type": "string"
        },
        {
          "internalType": "string",
          "name": "_policyType",
          "type": "string"
        }
      ],
      "name": "getCoefficientMultiplier",
      "outputs": [
        {
          "internalType": "uint256",
          "name": "coefficient",
          "type": "uint256"
        }
      ],
      "stateMutability": "view",
      "type": "function"
    },
    {
      "inputs": [],
      "name": "getDetails",
      "outputs": [
        {
          "internalType": "uint256",
          "name": "",
          "type": "uint256"
        },
        {
          "internalType": "uint256",
          "name": "",
          "type": "uint256"
        },
        {
          "internalType": "uint256",
          "name": "",
          "type": "uint256"
        }
      ],
      "stateMutability": "view",
      "type": "function"
    },
    {
      "inputs": [
        {
          "internalType": "bytes32",
          "name": "_type",
          "type": "bytes32"
        },
        {
          "internalType": "uint256",
          "name": "_value",
          "type": "uint256"
        }
      ],
      "name": "getIntervalCoefficient",
      "outputs": [
        {
          "internalType": "uint256",
          "name": "result",
          "type": "uint256"
        }
      ],
      "stateMutability": "view",
      "type": "function"
    },
    {
      "inputs": [
        {
          "internalType": "uint256",
          "name": "_ageInMonths",
          "type": "uint256"
        },
        {
          "internalType": "string",
          "name": "_healthCondition",
          "type": "string"
        }
      ],
      "name": "getIntervalCoefficientMultiplier",
      "outputs": [
        {
          "internalType": "uint256",
          "name": "result",
          "type": "uint256"
        }
      ],
      "stateMutability": "view",
      "type": "function"
    },
    {
      "inputs": [],
      "name": "getPayoutPercentage",
      "outputs": [
        {
          "internalType": "uint256",
          "name": "",
          "type": "uint256"
        }
      ],
      "stateMutability": "view",
      "type": "function"
    },
    {
      "inputs": [
        {
          "internalType": "uint256",
          "name": "_basePremium",
          "type": "uint256"
        },
        {
          "internalType": "uint256",
          "name": "_loading",
          "type": "uint256"
        },
        {
          "internalType": "uint256",
          "name": "_payoutPercentage",
          "type": "uint256"
        }
      ],
      "name": "initialize",
      "outputs": [],
      "stateMutability": "nonpayable",
      "type": "function"
    },
    {
      "inputs": [
        {
          "internalType": "string",
          "name": "_healthCondition",
          "type": "string"
        }
      ],
      "name": "isClaimable",
      "outputs": [
        {
          "internalType": "bool",
          "name": "",
          "type": "bool"
        }
      ],
      "stateMutability": "pure",
      "type": "function"
    },
    {
      "inputs": [],
      "name": "loading",
      "outputs": [
        {
          "internalType": "uint256",
          "name": "",
          "type": "uint256"
        }
      ],
      "stateMutability": "view",
      "type": "function"
    },
    {
      "inputs": [],
      "name": "payoutPercentage",
      "outputs": [
        {
          "internalType": "uint256",
          "name": "",
          "type": "uint256"
        }
      ],
      "stateMutability": "view",
      "type": "function"
    },
    {
      "inputs": [
        {
          "internalType": "bytes2",
          "name": "_type",
          "type": "bytes2"
        },
        {
          "internalType": "uint256",
          "name": "_coefficient",
          "type": "uint256"
        }
      ],
      "name": "removeIntervalCoefficient",
      "outputs": [],
      "stateMutability": "nonpayable",
      "type": "function"
    },
    {
      "inputs": [
        {
          "internalType": "uint256",
          "name": "_newBasePremium",
          "type": "uint256"
        }
      ],
      "name": "setBasePremium",
      "outputs": [],
      "stateMutability": "nonpayable",
      "type": "function"
    },
    {
      "inputs": [
        {
          "internalType": "bytes2",
          "name": "_type",
          "type": "bytes2"
        },
        {
          "internalType": "string",
          "name": "_key",
          "type": "string"
        },
        {
          "internalType": "uint256",
          "name": "_coefficient",
          "type": "uint256"
        }
      ],
      "name": "setCoefficient",
      "outputs": [],
      "stateMutability": "nonpayable",
      "type": "function"
    },
    {
      "inputs": [
        {
          "internalType": "bytes2",
          "name": "_type",
          "type": "bytes2"
        },
        {
          "internalType": "uint256",
          "name": "_index",
          "type": "uint256"
        },
        {
          "internalType": "bool",
          "name": "_insert",
          "type": "bool"
        },
        {
          "internalType": "uint256",
          "name": "_minValue",
          "type": "uint256"
        },
        {
          "internalType": "uint256",
          "name": "_maxValue",
          "type": "uint256"
        },
        {
          "internalType": "uint256",
          "name": "_coefficient",
          "type": "uint256"
        }
      ],
      "name": "setIntervalCoefficient",
      "outputs": [],
      "stateMutability": "nonpayable",
      "type": "function"
    },
    {
      "inputs": [
        {
          "internalType": "uint256",
          "name": "_newLoading",
          "type": "uint256"
        }
      ],
      "name": "setLoading",
      "outputs": [],
      "stateMutability": "nonpayable",
      "type": "function"
    },
    {
      "inputs": [
        {
          "internalType": "uint256",
          "name": "_newPayoutPercentage",
          "type": "uint256"
        }
      ],
      "name": "setPayout",
      "outputs": [],
      "stateMutability": "nonpayable",
      "type": "function"
    }
  ],
  "bytecode": "0x608060405234801561001057600080fd5b5033600360006101000a81548173ffffffffffffffffffffffffffffffffffffffff021916908373ffffffffffffffffffffffffffffffffffffffff1602179055506132ef806100616000396000f3fe608060405234801561001057600080fd5b50600436106101165760003560e01c80637a442a9b116100a2578063947fd34111610071578063947fd341146102db5780639cb48d5d1461030b578063a5bd798214610329578063bbd335c614610347578063fbbf93a01461037757610116565b80637a442a9b1461025757806380d85911146102875780638129519d146102a357806383f7a095146102bf57610116565b80632f9ecd0b116100e95780632f9ecd0b1461018d5780633bb91c77146101ab57806344c18aa7146101db578063574d9cb5146101f7578063799d972e1461022757610116565b806301512db11461011b5780630f9c7146146101375780631179778b14610153578063290ee5c91461016f575b600080fd5b61013560048036038101906101309190612100565b610397565b005b610151600480360381019061014c919061213c565b610656565b005b61016d600480360381019061016891906123b0565b610a0b565b005b610177610ae0565b6040516101849190612a2f565b60405180910390f35b610195610ae6565b6040516101a29190612a2f565b60405180910390f35b6101c560048036038101906101c091906123b0565b610af0565b6040516101d29190612a2f565b60405180910390f35b6101f560048036038101906101f091906123b0565b610b18565b005b610211600480360381019061020c91906123d9565b610bed565b60405161021e9190612a2f565b60405180910390f35b610241600480360381019061023c91906122d9565b610d75565b60405161024e9190612a2f565b60405180910390f35b610271600480360381019061026c9190612201565b610df9565b60405161027e9190612928565b60405180910390f35b6102a1600480360381019061029c919061242d565b610f00565b005b6102bd60048036038101906102b891906123b0565b61186e565b005b6102d960048036038101906102d49190612099565b611943565b005b6102f560048036038101906102f09190612242565b611a68565b6040516103029190612a2f565b60405180910390f35b610313611e49565b6040516103209190612a2f565b60405180910390f35b610331611e4f565b60405161033e9190612a2f565b60405180910390f35b610361600480360381019061035c91906121c5565b611e55565b60405161036e9190612a2f565b60405180910390f35b61037f611fc5565b60405161038e93929190612a73565b60405180910390f35b600360009054906101000a900473ffffffffffffffffffffffffffffffffffffffff1673ffffffffffffffffffffffffffffffffffffffff163373ffffffffffffffffffffffffffffffffffffffff1614610427576040517f08c379a000000000000000000000000000000000000000000000000000000000815260040161041e90612a0f565b60405180910390fd5b60005b60056000847dffffffffffffffffffffffffffffffffffffffffffffffffffffffffffff1916815260200190815260200160002080549050811015610651578160056000857dffffffffffffffffffffffffffffffffffffffffffffffffffffffffffff1916815260200190815260200160002082815481106104d6577f4e487b7100000000000000000000000000000000000000000000000000000000600052603260045260246000fd5b906000526020600020906003020160020154141561063e577f98c397a76e3fa81912ec2c16d72d50747b923116ee02822321789a329bba9c4a8360056000867dffffffffffffffffffffffffffffffffffffffffffffffffffffffffffff19168152602001908152602001600020838154811061057c577f4e487b7100000000000000000000000000000000000000000000000000000000600052603260045260246000fd5b90600052602060002090600302016002015460405161059c929190612981565b60405180910390a160056000847dffffffffffffffffffffffffffffffffffffffffffffffffffffffffffff191681526020019081526020016000208181548110610610577f4e487b7100000000000000000000000000000000000000000000000000000000600052603260045260246000fd5b9060005260206000209060030201600080820160009055600182016000905560028201600090555050610651565b808061064990612e38565b91505061042a565b505050565b600360009054906101000a900473ffffffffffffffffffffffffffffffffffffffff1673ffffffffffffffffffffffffffffffffffffffff163373ffffffffffffffffffffffffffffffffffffffff16146106e6576040517f08c379a00000000000000000000000000000000000000000000000000000000081526004016106dd90612a0f565b60405180910390fd5b83156107c6577f547eb4ac07250a56ef20708e0cfdffb0e902761558b846a183584745412277518684848460405161072194939291906129aa565b60405180910390a160056000877dffffffffffffffffffffffffffffffffffffffffffffffffffffffffffff1916815260200190815260200160002060405180606001604052808581526020018481526020018381525090806001815401808255809150506001900390600052602060002090600302016000909190919091506000820151816000015560208201518160010155604082015181600201555050610a03565b60056000877dffffffffffffffffffffffffffffffffffffffffffffffffffffffffffff1916815260200190815260200160002080549050851061083f576040517f08c379a0000000000000000000000000000000000000000000000000000000008152600401610836906129ef565b60405180910390fd5b7f547eb4ac07250a56ef20708e0cfdffb0e902761558b846a183584745412277518684848460405161087494939291906129aa565b60405180910390a18260056000887dffffffffffffffffffffffffffffffffffffffffffffffffffffffffffff1916815260200190815260200160002086815481106108e9577f4e487b7100000000000000000000000000000000000000000000000000000000600052603260045260246000fd5b9060005260206000209060030201600001819055508160056000887dffffffffffffffffffffffffffffffffffffffffffffffffffffffffffff19168152602001908152602001600020868154811061096b577f4e487b7100000000000000000000000000000000000000000000000000000000600052603260045260246000fd5b9060005260206000209060030201600101819055508060056000887dffffffffffffffffffffffffffffffffffffffffffffffffffffffffffff1916815260200190815260200160002086815481106109ed577f4e487b7100000000000000000000000000000000000000000000000000000000600052603260045260246000fd5b9060005260206000209060030201600201819055505b505050505050565b600360009054906101000a900473ffffffffffffffffffffffffffffffffffffffff1673ffffffffffffffffffffffffffffffffffffffff163373ffffffffffffffffffffffffffffffffffffffff1614610a9b576040517f08c379a0000000000000000000000000000000000000000000000000000000008152600401610a9290612a0f565b60405180910390fd5b7fc6cf31f3ae20ff059e4dee90cf1d55ebe9fe70ef407be14fa9c3279986a87b7160005482604051610ace929190612a4a565b60405180910390a18060008190555050565b60015481565b6000600154905090565b600080606460015484610b039190612d1f565b610b0d9190612b7d565b905080915050919050565b600360009054906101000a900473ffffffffffffffffffffffffffffffffffffffff1673ffffffffffffffffffffffffffffffffffffffff163373ffffffffffffffffffffffffffffffffffffffff1614610ba8576040517f08c379a0000000000000000000000000000000000000000000000000000000008152600401610b9f90612a0f565b60405180910390fd5b7f51d7d10dee1e97e9e1269f2705ff82cf64cf4ac656f053b00b951530a004cedd60015482604051610bdb929190612a4a565b60405180910390a18060018190555050565b600080610c1e604051602001610c029061282c565b6040516020818303038152906040528051906020012085611e55565b9050600060046000604051602001610c3590612841565b6040516020818303038152906040528051906020012081526020019081526020016000206040518060400160405280600681526020017f4f54484552530000000000000000000000000000000000000000000000000000815250604051610c9c91906127ac565b9081526020016040518091039020549050600060046000604051602001610cc290612841565b60405160208183030381529060405280519060200120815260200190815260200160002085604051610cf491906127ac565b90815260200160405180910390205414610d5f5760046000604051602001610d1b90612841565b60405160208183030381529060405280519060200120815260200190815260200160002084604051610d4d91906127ac565b90815260200160405180910390205490505b8082610d6b9190612d1f565b9250505092915050565b600080610d83878585611a68565b905080600054610d939190612d1f565b9150610d9f8686610bed565b90508082610dad9190612d1f565b915060056064610dbd9190612c01565b60646002546064610dce9190612b27565b84610dd99190612d1f565b610de39190612b7d565b610ded9190612b7d565b91505095945050505050565b6000806040518060400160405280600681526020017f534556455245000000000000000000000000000000000000000000000000000081525080519060200120905060006040518060400160405280600881526020017f4d4f44455241544500000000000000000000000000000000000000000000000081525080519060200120905060006040518060400160405280600481526020017f4d494c440000000000000000000000000000000000000000000000000000000081525080519060200120905060008580519060200120905083811480610ed657508281145b80610ee057508181145b15610ef2576001945050505050610efb565b60009450505050505b919050565b600360009054906101000a900473ffffffffffffffffffffffffffffffffffffffff1673ffffffffffffffffffffffffffffffffffffffff163373ffffffffffffffffffffffffffffffffffffffff1614610f90576040517f08c379a0000000000000000000000000000000000000000000000000000000008152600401610f8790612a0f565b60405180910390fd5b826000819055508160028190555080600181905550606460046000604051602001610fba90612913565b604051602081830303815290604052805190602001208152602001908152602001600020604051610fea90612880565b90815260200160405180910390208190555060646004600060405160200161101190612913565b604051602081830303815290604052805190602001208152602001908152602001600020604051611041906127d8565b90815260200160405180910390208190555060646004600060405160200161106890612913565b604051602081830303815290604052805190602001208152602001908152602001600020604051611098906128bf565b9081526020016040518091039020819055506064600460006040516020016110bf90612913565b6040516020818303038152906040528051906020012081526020019081526020016000206040516110ef906128fe565b908152602001604051809103902081905550606e6004600060405160200161111690612913565b6040516020818303038152906040528051906020012081526020019081526020016000206040518060400160405280600681526020017f4f5448455253000000000000000000000000000000000000000000000000000081525060405161117d91906127ac565b9081526020016040518091039020819055506064600460006040516020016111a490612817565b6040516020818303038152906040528051906020012081526020019081526020016000206040516111d4906128d4565b9081526020016040518091039020819055506069600460006040516020016111fb90612817565b60405160208183030381529060405280519060200120815260200190815260200160002060405161122b906127c3565b908152602001604051809103902081905550606e6004600060405160200161125290612817565b6040516020818303038152906040528051906020012081526020019081526020016000206040518060400160405280600681526020017f4f544845525300000000000000000000000000000000000000000000000000008152506040516112b991906127ac565b9081526020016040518091039020819055506064600460006040516020016112e0906127ed565b604051602081830303815290604052805190602001208152602001908152602001600020604051611310906128e9565b908152602001604051809103902081905550606960046000604051602001611337906127ed565b60405160208183030381529060405280519060200120815260200190815260200160002060405161136790612856565b90815260200160405180910390208190555060666004600060405160200161138e906127ed565b6040516020818303038152906040528051906020012081526020019081526020016000206040516113be90612895565b908152602001604051809103902081905550606e600460006040516020016113e5906127ed565b6040516020818303038152906040528051906020012081526020019081526020016000206040518060400160405280600681526020017f4f5448455253000000000000000000000000000000000000000000000000000081525060405161144c91906127ac565b908152602001604051809103902081905550600560006040516020016114719061282c565b604051602081830303815290604052805190602001208152602001908152602001600020604051806060016040528060008152602001600c8152602001605a815250908060018154018082558091505060019003906000526020600020906003020160009091909190915060008201518160000155602082015181600101556040820151816002015550506005600060405160200161150f9061282c565b6040516020818303038152906040528051906020012081526020019081526020016000206040518060600160405280600c815260200160248152602001606481525090806001815401808255809150506001900390600052602060002090600302016000909190919091506000820151816000015560208201518160010155604082015181600201555050600560006040516020016115ad9061282c565b60405160208183030381529060405280519060200120815260200190815260200160002060405180606001604052806024815260200160488152602001606e815250908060018154018082558091505060019003906000526020600020906003020160009091909190915060008201518160000155602082015181600101556040820151816002015550506005600060405160200161164b9061282c565b604051602081830303815290604052805190602001208152602001908152602001600020604051806060016040528060488152602001607881526020016078815250908060018154018082558091505060019003906000526020600020906003020160009091909190915060008201518160000155602082015181600101556040820151816002015550506050600460006040516020016116eb90612841565b60405160208183030381529060405280519060200120815260200190815260200160002060405161171b90612802565b90815260200160405180910390208190555060646004600060405160200161174290612841565b604051602081830303815290604052805190602001208152602001908152602001600020604051611772906128aa565b90815260200160405180910390208190555060786004600060405160200161179990612841565b6040516020818303038152906040528051906020012081526020019081526020016000206040516117c99061286b565b9081526020016040518091039020819055506064600460006040516020016117f090612841565b6040516020818303038152906040528051906020012081526020019081526020016000206040518060400160405280600681526020017f4f5448455253000000000000000000000000000000000000000000000000000081525060405161185791906127ac565b908152602001604051809103902081905550505050565b600360009054906101000a900473ffffffffffffffffffffffffffffffffffffffff1673ffffffffffffffffffffffffffffffffffffffff163373ffffffffffffffffffffffffffffffffffffffff16146118fe576040517f08c379a00000000000000000000000000000000000000000000000000000000081526004016118f590612a0f565b60405180910390fd5b7fa810c8811f14030cefbaf4bc7b8a13e6dbb9dba25ce53cc0cb878693e60dd5fb60025482604051611931929190612a4a565b60405180910390a18060028190555050565b600360009054906101000a900473ffffffffffffffffffffffffffffffffffffffff1673ffffffffffffffffffffffffffffffffffffffff163373ffffffffffffffffffffffffffffffffffffffff16146119d3576040517f08c379a00000000000000000000000000000000000000000000000000000000081526004016119ca90612a0f565b60405180910390fd5b7f8cc68c2b3413637f7df25114a87f111c303b70bd5835e046285580060abac5d1838383604051611a0693929190612943565b60405180910390a18060046000857dffffffffffffffffffffffffffffffffffffffffffffffffffffffffffff1916815260200190815260200160002083604051611a5191906127ac565b908152602001604051809103902081905550505050565b60008060046000604051602001611a7e90612913565b6040516020818303038152906040528051906020012081526020019081526020016000206040518060400160405280600681526020017f4f54484552530000000000000000000000000000000000000000000000000000815250604051611ae591906127ac565b9081526020016040518091039020549050600060046000604051602001611b0b90612817565b6040516020818303038152906040528051906020012081526020019081526020016000206040518060400160405280600681526020017f4f54484552530000000000000000000000000000000000000000000000000000815250604051611b7291906127ac565b9081526020016040518091039020549050600060046000604051602001611b98906127ed565b6040516020818303038152906040528051906020012081526020019081526020016000206040518060400160405280600681526020017f4f54484552530000000000000000000000000000000000000000000000000000815250604051611bff91906127ac565b9081526020016040518091039020549050600060046000604051602001611c2590612913565b60405160208183030381529060405280519060200120815260200190815260200160002087604051611c5791906127ac565b90815260200160405180910390205414611cc25760046000604051602001611c7e90612913565b60405160208183030381529060405280519060200120815260200190815260200160002086604051611cb091906127ac565b90815260200160405180910390205492505b600060046000604051602001611cd790612817565b60405160208183030381529060405280519060200120815260200190815260200160002086604051611d0991906127ac565b90815260200160405180910390205414611d745760046000604051602001611d3090612817565b60405160208183030381529060405280519060200120815260200190815260200160002085604051611d6291906127ac565b90815260200160405180910390205491505b600060046000604051602001611d89906127ed565b60405160208183030381529060405280519060200120815260200190815260200160002088604051611dbb91906127ac565b90815260200160405180910390205414611e265760046000604051602001611de2906127ed565b60405160208183030381529060405280519060200120815260200190815260200160002087604051611e1491906127ac565b90815260200160405180910390205490505b808284611e339190612d1f565b611e3d9190612d1f565b93505050509392505050565b60025481565b60005481565b600080600090505b6005600085815260200190815260200160002080549050811015611fbe5782600560008681526020019081526020016000208281548110611ec7577f4e487b7100000000000000000000000000000000000000000000000000000000600052603260045260246000fd5b906000526020600020906003020160000154108015611f425750600560008581526020019081526020016000208181548110611f2c577f4e487b7100000000000000000000000000000000000000000000000000000000600052603260045260246000fd5b9060005260206000209060030201600101548311155b15611fab57600560008581526020019081526020016000208181548110611f92577f4e487b7100000000000000000000000000000000000000000000000000000000600052603260045260246000fd5b9060005260206000209060030201600201549150611fbe565b8080611fb690612e38565b915050611e5d565b5092915050565b60008060008054600154600254925092509250909192565b6000611ff0611feb84612acf565b612aaa565b90508281526020810184848401111561200857600080fd5b612013848285612dc5565b509392505050565b60008135905061202a8161325d565b92915050565b60008135905061203f81613274565b92915050565b6000813590506120548161328b565b92915050565b600082601f83011261206b57600080fd5b813561207b848260208601611fdd565b91505092915050565b600081359050612093816132a2565b92915050565b6000806000606084860312156120ae57600080fd5b60006120bc86828701612030565b935050602084013567ffffffffffffffff8111156120d957600080fd5b6120e58682870161205a565b92505060406120f686828701612084565b9150509250925092565b6000806040838503121561211357600080fd5b600061212185828601612030565b925050602061213285828601612084565b9150509250929050565b60008060008060008060c0878903121561215557600080fd5b600061216389828a01612030565b965050602061217489828a01612084565b955050604061218589828a0161201b565b945050606061219689828a01612084565b93505060806121a789828a01612084565b92505060a06121b889828a01612084565b9150509295509295509295565b600080604083850312156121d857600080fd5b60006121e685828601612045565b92505060206121f785828601612084565b9150509250929050565b60006020828403121561221357600080fd5b600082013567ffffffffffffffff81111561222d57600080fd5b6122398482850161205a565b91505092915050565b60008060006060848603121561225757600080fd5b600084013567ffffffffffffffff81111561227157600080fd5b61227d8682870161205a565b935050602084013567ffffffffffffffff81111561229a57600080fd5b6122a68682870161205a565b925050604084013567ffffffffffffffff8111156122c357600080fd5b6122cf8682870161205a565b9150509250925092565b600080600080600060a086880312156122f157600080fd5b600086013567ffffffffffffffff81111561230b57600080fd5b6123178882890161205a565b955050602061232888828901612084565b945050604086013567ffffffffffffffff81111561234557600080fd5b6123518882890161205a565b935050606086013567ffffffffffffffff81111561236e57600080fd5b61237a8882890161205a565b925050608086013567ffffffffffffffff81111561239757600080fd5b6123a38882890161205a565b9150509295509295909350565b6000602082840312156123c257600080fd5b60006123d084828501612084565b91505092915050565b600080604083850312156123ec57600080fd5b60006123fa85828601612084565b925050602083013567ffffffffffffffff81111561241757600080fd5b6124238582860161205a565b9150509250929050565b60008060006060848603121561244257600080fd5b600061245086828701612084565b935050602061246186828701612084565b925050604061247286828701612084565b9150509250925092565b61248581612d79565b82525050565b61249481612d85565b82525050565b60006124a582612b00565b6124af8185612b0b565b93506124bf818560208601612dd4565b6124c881612f0e565b840191505092915050565b60006124de82612b00565b6124e88185612b1c565b93506124f8818560208601612dd4565b80840191505092915050565b6000612511600783612b1c565b915061251c82612f2c565b600782019050919050565b6000612534600583612b1c565b915061253f82612f55565b600582019050919050565b6000612557600283612b1c565b915061256282612f7e565b600282019050919050565b600061257a600d83612b0b565b915061258582612fa7565b602082019050919050565b600061259d600683612b1c565b91506125a882612fd0565b600682019050919050565b60006125c0600283612b1c565b91506125cb82612ff9565b600282019050919050565b60006125e3600283612b1c565b91506125ee82613022565b600282019050919050565b6000612606600283612b1c565b91506126118261304b565b600282019050919050565b6000612629600f83612b1c565b915061263482613074565b600f82019050919050565b600061264c600483612b1c565b91506126578261309d565b600482019050919050565b600061266f600583612b1c565b915061267a826130c6565b600582019050919050565b6000612692601083612b1c565b915061269d826130ef565b601082019050919050565b60006126b5600883612b1c565b91506126c082613118565b600882019050919050565b60006126d8600483612b1c565b91506126e382613141565b600482019050919050565b60006126fb602283612b0b565b91506127068261316a565b604082019050919050565b600061271e600583612b1c565b9150612729826131b9565b600582019050919050565b6000612741601283612b1c565b915061274c826131e2565b601282019050919050565b6000612764600483612b1c565b915061276f8261320b565b600482019050919050565b6000612787600183612b1c565b915061279282613234565b600182019050919050565b6127a681612dbb565b82525050565b60006127b882846124d3565b915081905092915050565b60006127ce82612504565b9150819050919050565b60006127e382612527565b9150819050919050565b60006127f88261254a565b9150819050919050565b600061280d82612590565b9150819050919050565b6000612822826125b3565b9150819050919050565b6000612837826125d6565b9150819050919050565b600061284c826125f9565b9150819050919050565b60006128618261261c565b9150819050919050565b60006128768261263f565b9150819050919050565b600061288b82612662565b9150819050919050565b60006128a082612685565b9150819050919050565b60006128b5826126a8565b9150819050919050565b60006128ca826126cb565b9150819050919050565b60006128df82612711565b9150819050919050565b60006128f482612734565b9150819050919050565b600061290982612757565b9150819050919050565b600061291e8261277a565b9150819050919050565b600060208201905061293d600083018461247c565b92915050565b6000606082019050612958600083018661248b565b818103602083015261296a818561249a565b9050612979604083018461279d565b949350505050565b6000604082019050612996600083018561248b565b6129a3602083018461279d565b9392505050565b60006080820190506129bf600083018761248b565b6129cc602083018661279d565b6129d9604083018561279d565b6129e6606083018461279d565b95945050505050565b60006020820190508181036000830152612a088161256d565b9050919050565b60006020820190508181036000830152612a28816126ee565b9050919050565b6000602082019050612a44600083018461279d565b92915050565b6000604082019050612a5f600083018561279d565b612a6c602083018461279d565b9392505050565b6000606082019050612a88600083018661279d565b612a95602083018561279d565b612aa2604083018461279d565b949350505050565b6000612ab4612ac5565b9050612ac08282612e07565b919050565b6000604051905090565b600067ffffffffffffffff821115612aea57612ae9612edf565b5b612af382612f0e565b9050602081019050919050565b600081519050919050565b600082825260208201905092915050565b600081905092915050565b6000612b3282612dbb565b9150612b3d83612dbb565b9250827fffffffffffffffffffffffffffffffffffffffffffffffffffffffffffffffff03821115612b7257612b71612e81565b5b828201905092915050565b6000612b8882612dbb565b9150612b9383612dbb565b925082612ba357612ba2612eb0565b5b828204905092915050565b6000808291508390505b6001851115612bf857808604811115612bd457612bd3612e81565b5b6001851615612be35780820291505b8081029050612bf185612f1f565b9450612bb8565b94509492505050565b6000612c0c82612dbb565b9150612c1783612dbb565b9250612c447fffffffffffffffffffffffffffffffffffffffffffffffffffffffffffffffff8484612c4c565b905092915050565b600082612c5c5760019050612d18565b81612c6a5760009050612d18565b8160018114612c805760028114612c8a57612cb9565b6001915050612d18565b60ff841115612c9c57612c9b612e81565b5b8360020a915084821115612cb357612cb2612e81565b5b50612d18565b5060208310610133831016604e8410600b8410161715612cee5782820a905083811115612ce957612ce8612e81565b5b612d18565b612cfb8484846001612bae565b92509050818404811115612d1257612d11612e81565b5b81810290505b9392505050565b6000612d2a82612dbb565b9150612d3583612dbb565b9250817fffffffffffffffffffffffffffffffffffffffffffffffffffffffffffffffff0483118215151615612d6e57612d6d612e81565b5b828202905092915050565b60008115159050919050565b60007fffff00000000000000000000000000000000000000000000000000000000000082169050919050565b6000819050919050565b6000819050919050565b82818337600083830152505050565b60005b83811015612df2578082015181840152602081019050612dd7565b83811115612e01576000848401525b50505050565b612e1082612f0e565b810181811067ffffffffffffffff82111715612e2f57612e2e612edf565b5b80604052505050565b6000612e4382612dbb565b91507fffffffffffffffffffffffffffffffffffffffffffffffffffffffffffffffff821415612e7657612e75612e81565b5b600182019050919050565b7f4e487b7100000000000000000000000000000000000000000000000000000000600052601160045260246000fd5b7f4e487b7100000000000000000000000000000000000000000000000000000000600052601260045260246000fd5b7f4e487b7100000000000000000000000000000000000000000000000000000000600052604160045260246000fd5b6000601f19601f8301169050919050565b60008160011c9050919050565b7f5072656d69756d00000000000000000000000000000000000000000000000000600082015250565b7f536f757468000000000000000000000000000000000000000000000000000000600082015250565b7f4252000000000000000000000000000000000000000000000000000000000000600082015250565b7f496e76616c696420696e64657800000000000000000000000000000000000000600082015250565b7f5345564552450000000000000000000000000000000000000000000000000000600082015250565b7f5054000000000000000000000000000000000000000000000000000000000000600082015250565b7f4147000000000000000000000000000000000000000000000000000000000000600082015250565b7f484c000000000000000000000000000000000000000000000000000000000000600082015250565b7f4765726d616e2053686570686572640000000000000000000000000000000000600082015250565b7f4d494c4400000000000000000000000000000000000000000000000000000000600082015250565b7f4e6f727468000000000000000000000000000000000000000000000000000000600082015250565b7f476f6c64656e2052657472696576657200000000000000000000000000000000600082015250565b7f4d4f444552415445000000000000000000000000000000000000000000000000600082015250565b7f4561737400000000000000000000000000000000000000000000000000000000600082015250565b7f4f6e6c792061646d696e2063616e20706572666f726d2074686973206163746960008201527f6f6e000000000000000000000000000000000000000000000000000000000000602082015250565b7f4261736963000000000000000000000000000000000000000000000000000000600082015250565b7f4c61627261646f72205265747269657665720000000000000000000000000000600082015250565b7f5765737400000000000000000000000000000000000000000000000000000000600082015250565b7f5200000000000000000000000000000000000000000000000000000000000000600082015250565b61326681612d79565b811461327157600080fd5b50565b61327d81612d85565b811461328857600080fd5b50565b61329481612db1565b811461329f57600080fd5b50565b6132ab81612dbb565b81146132b657600080fd5b5056fea2646970667358221220e51369b941a14271cb294f7d10342bb1dbc835967cfcf3b52865614d11c4cbb364736f6c63430008040033",
  "linkReferences": {},
  "deployedLinkReferences": {}
}