{
  "_format": "hh-sol-artifact-1",
  "contractName": "ShwanSurksha",
  "sourceName": "contracts/ShwanSurksha.sol",
  "abi": [
    {
      "inputs": [],
      "stateMutability": "nonpayable",
      "type": "constructor"
    },
    {
      "anonymous": false,
      "inputs": [
        {
          "indexed": false,
          "internalType": "bytes32",
          "name": "policyId",
          "type": "bytes32"
        },
        {
          "indexed": false,
          "internalType": "address",
          "name": "owner",
          "type": "address"
        },
        {
          "indexed": false,
          "internalType": "uint256",
          "name": "premium",
          "type": "uint256"
        },
        {
          "indexed": false,
          "internalType": "uint256",
          "name": "payout",
          "type": "uint256"
        },
        {
          "indexed": false,
          "internalType": "uint256",
          "name": "startDate",
          "type": "uint256"
        },
        {
          "indexed": false,
          "internalType": "uint256",
          "name": "endDate",
          "type": "uint256"
        }
      ],
      "name": "PolicyAdded",
      "type": "event"
    },
    {
      "anonymous": false,
      "inputs": [
        {
          "indexed": false,
          "internalType": "bytes32",
          "name": "policyId",
          "type": "bytes32"
        },
        {
          "indexed": false,
          "internalType": "address",
          "name": "owner",
          "type": "address"
        },
        {
          "indexed": false,
          "internalType": "uint256",
          "name": "payout",
          "type": "uint256"
        }
      ],
      "name": "PolicyClaimed",
      "type": "event"
    },
    {
      "anonymous": false,
      "inputs": [
        {
          "indexed": false,
          "internalType": "bytes32",
          "name": "policyId",
          "type": "bytes32"
        },
        {
          "indexed": false,
          "internalType": "address",
          "name": "owner",
          "type": "address"
        },
        {
          "indexed": false,
          "internalType": "uint256",
          "name": "newEndDate",
          "type": "uint256"
        }
      ],
      "name": "PolicyUpdated",
      "type": "event"
    },
    {
      "anonymous": false,
      "inputs": [
        {
          "indexed": false,
          "internalType": "bytes32",
          "name": "policyId",
          "type": "bytes32"
        }
      ],
      "name": "policyCancelled",
      "type": "event"
    },
    {
      "inputs": [
        {
          "internalType": "string",
          "name": "_breed",
          "type": "string"
        },
        {
          "internalType": "uint256",
          "name": "_ageInMonths",
          "type": "uint256"
        },
        {
          "internalType": "string",
          "name": "_healthCondition",
          "type": "string"
        },
        {
          "internalType": "string",
          "name": "_region",
          "type": "string"
        },
        {
          "internalType": "string",
          "name": "_policyType",
          "type": "string"
        },
        {
          "internalType": "uint256",
          "name": "startDate",
          "type": "uint256"
        },
        {
          "internalType": "uint256",
          "name": "endDate",
          "type": "uint256"
        }
      ],
      "name": "addPolicy",
      "outputs": [],
      "stateMutability": "nonpayable",
      "type": "function"
    },
    {
      "inputs": [
        {
          "internalType": "bytes32",
          "name": "policyId",
          "type": "bytes32"
        }
      ],
      "name": "cancelPolicy",
      "outputs": [],
      "stateMutability": "nonpayable",
      "type": "function"
    },
    {
      "inputs": [
        {
          "internalType": "bytes32",
          "name": "policyId",
          "type": "bytes32"
        }
      ],
      "name": "claimPolicy",
      "outputs": [],
      "stateMutability": "nonpayable",
      "type": "function"
    },
    {
      "inputs": [
        {
          "internalType": "address",
          "name": "policyHolder",
          "type": "address"
        }
      ],
      "name": "getActivePoliciyOf",
      "outputs": [
        {
          "internalType": "bytes32",
          "name": "",
          "type": "bytes32"
        }
      ],
      "stateMutability": "view",
      "type": "function"
    },
    {
      "inputs": [
        {
          "internalType": "address",
          "name": "policyHolder",
          "type": "address"
        },
        {
          "internalType": "bytes32",
          "name": "policyId",
          "type": "bytes32"
        }
      ],
      "name": "getIsClaimable",
      "outputs": [
        {
          "internalType": "bool",
          "name": "",
          "type": "bool"
        }
      ],
      "stateMutability": "view",
      "type": "function"
    },
    {
      "inputs": [
        {
          "internalType": "bytes32",
          "name": "policyId",
          "type": "bytes32"
        }
      ],
      "name": "getPolicy",
      "outputs": [
        {
          "internalType": "address",
          "name": "owner",
          "type": "address"
        },
        {
          "internalType": "uint256",
          "name": "premium",
          "type": "uint256"
        },
        {
          "internalType": "uint256",
          "name": "payout",
          "type": "uint256"
        },
        {
          "internalType": "uint256",
          "name": "startDate",
          "type": "uint256"
        },
        {
          "internalType": "uint256",
          "name": "endDate",
          "type": "uint256"
        },
        {
          "internalType": "bool",
          "name": "claimed",
          "type": "bool"
        },
        {
          "internalType": "string",
          "name": "breed",
          "type": "string"
        },
        {
          "internalType": "uint256",
          "name": "ageInMonths",
          "type": "uint256"
        },
        {
          "internalType": "string",
          "name": "healthCondition",
          "type": "string"
        },
        {
          "internalType": "string",
          "name": "region",
          "type": "string"
        },
        {
          "internalType": "string",
          "name": "policyType",
          "type": "string"
        }
      ],
      "stateMutability": "view",
      "type": "function"
    },
    {
      "inputs": [
        {
          "internalType": "address",
          "name": "",
          "type": "address"
        },
        {
          "internalType": "uint256",
          "name": "",
          "type": "uint256"
        }
      ],
      "name": "policyHolderToIDs",
      "outputs": [
        {
          "internalType": "bytes32",
          "name": "",
          "type": "bytes32"
        }
      ],
      "stateMutability": "view",
      "type": "function"
    },
    {
      "inputs": [
        {
          "internalType": "address",
          "name": "policyHolder",
          "type": "address"
        },
        {
          "internalType": "bytes32",
          "name": "policyId",
          "type": "bytes32"
        }
      ],
      "name": "setIsClaimable",
      "outputs": [],
      "stateMutability": "nonpayable",
      "type": "function"
    },
    {
      "inputs": [
        {
          "internalType": "address",
          "name": "_usdcTokenAddress",
          "type": "address"
        },
        {
          "internalType": "address",
          "name": "_premimumCalculator",
          "type": "address"
        },
        {
          "internalType": "address",
          "name": "_verifierContractAddress",
          "type": "address"
        }
      ],
      "name": "updateContractsAddress",
      "outputs": [],
      "stateMutability": "nonpayable",
      "type": "function"
    },
    {
      "inputs": [
        {
          "internalType": "bytes32",
          "name": "policyId",
          "type": "bytes32"
        },
        {
          "internalType": "uint256",
          "name": "newEndDate",
          "type": "uint256"
        }
      ],
      "name": "updatePolicy",
      "outputs": [],
      "stateMutability": "nonpayable",
      "type": "function"
    }
  ],
  "bytecode": "0x608060405234801561001057600080fd5b5033600660006101000a81548173ffffffffffffffffffffffffffffffffffffffff021916908373ffffffffffffffffffffffffffffffffffffffff160217905550613204806100616000396000f3fe608060405234801561001057600080fd5b506004361061009e5760003560e01c80638cc3953f116100665780638cc3953f14610143578063a3f685f914610173578063a86146d0146101ad578063b134ea87146101c9578063dac2cb38146101f95761009e565b80632d39d786146100a35780635e727700146100bf57806369efe103146100db5780636d90d8ad146100f757806389a99dc914610113575b600080fd5b6100bd60048036038101906100b891906121a2565b610215565b005b6100d960048036038101906100d49190612292565b61036d565b005b6100f560048036038101906100f091906122f7565b6107f2565b005b610111600480360381019061010c91906122bb565b610ed2565b005b61012d60048036038101906101289190612179565b611009565b60405161013a91906128b2565b60405180910390f35b61015d6004803603810190610158919061222d565b6115c8565b60405161016a91906128b2565b60405180910390f35b61018d60048036038101906101889190612292565b6115f9565b6040516101a49b9a999897969594939291906127d0565b60405180910390f35b6101c760048036038101906101c29190612292565b61196b565b005b6101e360048036038101906101de91906121f1565b611cf3565b6040516101f09190612897565b60405180910390f35b610213600480360381019061020e91906121f1565b611d5b565b005b600660009054906101000a900473ffffffffffffffffffffffffffffffffffffffff1673ffffffffffffffffffffffffffffffffffffffff163373ffffffffffffffffffffffffffffffffffffffff16146102a5576040517f08c379a000000000000000000000000000000000000000000000000000000000815260040161029c90612b14565b60405180910390fd5b82600360006101000a81548173ffffffffffffffffffffffffffffffffffffffff021916908373ffffffffffffffffffffffffffffffffffffffff16021790555081600460006101000a81548173ffffffffffffffffffffffffffffffffffffffff021916908373ffffffffffffffffffffffffffffffffffffffff16021790555080600560006101000a81548173ffffffffffffffffffffffffffffffffffffffff021916908373ffffffffffffffffffffffffffffffffffffffff160217905550505050565b60008060008381526020019081526020016000209050600260008260000160009054906101000a900473ffffffffffffffffffffffffffffffffffffffff1673ffffffffffffffffffffffffffffffffffffffff1673ffffffffffffffffffffffffffffffffffffffff168152602001908152602001600020600083815260200190815260200160002060009054906101000a900460ff16610444576040517f08c379a000000000000000000000000000000000000000000000000000000000815260040161043b90612a94565b60405180910390fd5b600073ffffffffffffffffffffffffffffffffffffffff168160000160009054906101000a900473ffffffffffffffffffffffffffffffffffffffff1673ffffffffffffffffffffffffffffffffffffffff16141580156104f457503373ffffffffffffffffffffffffffffffffffffffff168160000160009054906101000a900473ffffffffffffffffffffffffffffffffffffffff1673ffffffffffffffffffffffffffffffffffffffff16145b610533576040517f08c379a000000000000000000000000000000000000000000000000000000000815260040161052a90612af4565b60405180910390fd5b8060050160009054906101000a900460ff1615610585576040517f08c379a000000000000000000000000000000000000000000000000000000000815260040161057c90612b34565b60405180910390fd5b806003015442116105cb576040517f08c379a00000000000000000000000000000000000000000000000000000000081526004016105c290612a14565b60405180910390fd5b60018160050160006101000a81548160ff021916908315150217905550600360009054906101000a900473ffffffffffffffffffffffffffffffffffffffff1673ffffffffffffffffffffffffffffffffffffffff1663a9059cbb8260000160009054906101000a900473ffffffffffffffffffffffffffffffffffffffff1683600201546040518363ffffffff1660e01b815260040161066d9291906127a7565b602060405180830381600087803b15801561068757600080fd5b505af115801561069b573d6000803e3d6000fd5b505050506040513d601f19601f820116820180604052508101906106bf9190612269565b6106fe576040517f08c379a00000000000000000000000000000000000000000000000000000000081526004016106f5906129d4565b60405180910390fd5b6000600260008360000160009054906101000a900473ffffffffffffffffffffffffffffffffffffffff1673ffffffffffffffffffffffffffffffffffffffff1673ffffffffffffffffffffffffffffffffffffffff168152602001908152602001600020600084815260200190815260200160002060006101000a81548160ff0219169083151502179055507ffc2e5a4f14afb617147f5e5e83d18cf2c49c2e8d308425798d2c75b429ff555b828260000160009054906101000a900473ffffffffffffffffffffffffffffffffffffffff1683600201546040516107e6939291906128cd565b60405180910390a15050565b60003342898989898960405160200161081197969594939291906126ff565b604051602081830303815290604052805190602001209050600073ffffffffffffffffffffffffffffffffffffffff1660008083815260200190815260200160002060000160009054906101000a900473ffffffffffffffffffffffffffffffffffffffff1673ffffffffffffffffffffffffffffffffffffffff16146108cd576040517f08c379a00000000000000000000000000000000000000000000000000000000081526004016108c490612b74565b60405180910390fd5b42831161090f576040517f08c379a000000000000000000000000000000000000000000000000000000000815260040161090690612a54565b60405180910390fd5b828211610951576040517f08c379a000000000000000000000000000000000000000000000000000000000815260040161094890612b54565b60405180910390fd5b6000600460009054906101000a900473ffffffffffffffffffffffffffffffffffffffff1673ffffffffffffffffffffffffffffffffffffffff1663799d972e8a8a8a8a8a6040518663ffffffff1660e01b81526004016109b6959493929190612965565b60206040518083038186803b1580156109ce57600080fd5b505afa1580156109e2573d6000803e3d6000fd5b505050506040513d601f19601f82011682018060405250810190610a0691906123f5565b90506000600460009054906101000a900473ffffffffffffffffffffffffffffffffffffffff1673ffffffffffffffffffffffffffffffffffffffff16633bb91c77836040518263ffffffff1660e01b8152600401610a659190612bb4565b60206040518083038186803b158015610a7d57600080fd5b505afa158015610a91573d6000803e3d6000fd5b505050506040513d601f19601f82011682018060405250810190610ab591906123f5565b9050600360009054906101000a900473ffffffffffffffffffffffffffffffffffffffff1673ffffffffffffffffffffffffffffffffffffffff1663095ea7b330846040518363ffffffff1660e01b8152600401610b149291906127a7565b602060405180830381600087803b158015610b2e57600080fd5b505af1158015610b42573d6000803e3d6000fd5b505050506040513d601f19601f82011682018060405250810190610b669190612269565b610ba5576040517f08c379a0000000000000000000000000000000000000000000000000000000008152600401610b9c906129f4565b60405180910390fd5b600360009054906101000a900473ffffffffffffffffffffffffffffffffffffffff1673ffffffffffffffffffffffffffffffffffffffff166323b872dd3330856040518463ffffffff1660e01b8152600401610c0493929190612770565b602060405180830381600087803b158015610c1e57600080fd5b505af1158015610c32573d6000803e3d6000fd5b505050506040513d601f19601f82011682018060405250810190610c569190612269565b610c95576040517f08c379a0000000000000000000000000000000000000000000000000000000008152600401610c8c906129d4565b60405180910390fd5b6040518061016001604052803373ffffffffffffffffffffffffffffffffffffffff1681526020018381526020018281526020018681526020018581526020016000151581526020018b81526020018a81526020018981526020018881526020018781525060008085815260200190815260200160002060008201518160000160006101000a81548173ffffffffffffffffffffffffffffffffffffffff021916908373ffffffffffffffffffffffffffffffffffffffff1602179055506020820151816001015560408201518160020155606082015181600301556080820151816004015560a08201518160050160006101000a81548160ff02191690831515021790555060c0820151816006019080519060200190610db7929190611fc5565b5060e08201518160070155610100820151816008019080519060200190610ddf929190611fc5565b50610120820151816009019080519060200190610dfd929190611fc5565b5061014082015181600a019080519060200190610e1b929190611fc5565b50905050600160003373ffffffffffffffffffffffffffffffffffffffff1673ffffffffffffffffffffffffffffffffffffffff1681526020019081526020016000208390806001815401808255809150506001900390600052602060002001600090919091909150557f7e2b2216d4b67abfef5180ab39597e56662221d6f96fb24e1820f4bf839e946f833384848989604051610ebe96959493929190612904565b60405180910390a150505050505050505050565b600080600084815260200190815260200160002090503373ffffffffffffffffffffffffffffffffffffffff168160000160009054906101000a900473ffffffffffffffffffffffffffffffffffffffff1673ffffffffffffffffffffffffffffffffffffffff1614610f7a576040517f08c379a0000000000000000000000000000000000000000000000000000000008152600401610f7190612b94565b60405180910390fd5b80600401548211610fc0576040517f08c379a0000000000000000000000000000000000000000000000000000000008152600401610fb790612a34565b60405180910390fd5b8181600401819055507f4796626372633c5d33077ba956a4f0c5e8574bcdfee92d39537c1e9e7089dac5833384604051610ffc939291906128cd565b60405180910390a1505050565b60008073ffffffffffffffffffffffffffffffffffffffff168273ffffffffffffffffffffffffffffffffffffffff16141561107a576040517f08c379a000000000000000000000000000000000000000000000000000000000815260040161107190612ab4565b60405180910390fd5b6000600160008473ffffffffffffffffffffffffffffffffffffffff1673ffffffffffffffffffffffffffffffffffffffff16815260200190815260200160002080548060200260200160405190810160405280929190818152602001828054801561110557602002820191906000526020600020905b8154815260200190600101908083116110f1575b505050505090506000815111611150576040517f08c379a000000000000000000000000000000000000000000000000000000000815260040161114790612a74565b60405180910390fd5b600080600090505b82518110156115bd57600080600085848151811061119f577f4e487b7100000000000000000000000000000000000000000000000000000000600052603260045260246000fd5b60200260200101518152602001908152602001600020604051806101600160405290816000820160009054906101000a900473ffffffffffffffffffffffffffffffffffffffff1673ffffffffffffffffffffffffffffffffffffffff1673ffffffffffffffffffffffffffffffffffffffff168152602001600182015481526020016002820154815260200160038201548152602001600482015481526020016005820160009054906101000a900460ff1615151515815260200160068201805461126a90612d14565b80601f016020809104026020016040519081016040528092919081815260200182805461129690612d14565b80156112e35780601f106112b8576101008083540402835291602001916112e3565b820191906000526020600020905b8154815290600101906020018083116112c657829003601f168201915b505050505081526020016007820154815260200160088201805461130690612d14565b80601f016020809104026020016040519081016040528092919081815260200182805461133290612d14565b801561137f5780601f106113545761010080835404028352916020019161137f565b820191906000526020600020905b81548152906001019060200180831161136257829003601f168201915b5050505050815260200160098201805461139890612d14565b80601f01602080910402602001604051908101604052809291908181526020018280546113c490612d14565b80156114115780601f106113e657610100808354040283529160200191611411565b820191906000526020600020905b8154815290600101906020018083116113f457829003601f168201915b50505050508152602001600a8201805461142a90612d14565b80601f016020809104026020016040519081016040528092919081815260200182805461145690612d14565b80156114a35780601f10611478576101008083540402835291602001916114a3565b820191906000526020600020905b81548152906001019060200180831161148657829003601f168201915b50505050508152505090508060a0015115801561155b5750600260008773ffffffffffffffffffffffffffffffffffffffff1673ffffffffffffffffffffffffffffffffffffffff1681526020019081526020016000206000858481518110611535577f4e487b7100000000000000000000000000000000000000000000000000000000600052603260045260246000fd5b6020026020010151815260200190815260200160002060009054906101000a900460ff16155b156115a957838281518110611599577f4e487b7100000000000000000000000000000000000000000000000000000000600052603260045260246000fd5b60200260200101519250506115bd565b5080806115b590612d77565b915050611158565b508092505050919050565b600160205281600052604060002081815481106115e457600080fd5b90600052602060002001600091509150505481565b60008060008060008060606000606080606060008060008e81526020019081526020016000209050600073ffffffffffffffffffffffffffffffffffffffff168160000160009054906101000a900473ffffffffffffffffffffffffffffffffffffffff1673ffffffffffffffffffffffffffffffffffffffff1614156116b5576040517f08c379a00000000000000000000000000000000000000000000000000000000081526004016116ac90612af4565b60405180910390fd5b8060000160009054906101000a900473ffffffffffffffffffffffffffffffffffffffff1681600101548260020154836003015484600401548560050160009054906101000a900460ff1686600601876007015488600801896009018a600a0184805461172190612d14565b80601f016020809104026020016040519081016040528092919081815260200182805461174d90612d14565b801561179a5780601f1061176f5761010080835404028352916020019161179a565b820191906000526020600020905b81548152906001019060200180831161177d57829003601f168201915b505050505094508280546117ad90612d14565b80601f01602080910402602001604051908101604052809291908181526020018280546117d990612d14565b80156118265780601f106117fb57610100808354040283529160200191611826565b820191906000526020600020905b81548152906001019060200180831161180957829003601f168201915b5050505050925081805461183990612d14565b80601f016020809104026020016040519081016040528092919081815260200182805461186590612d14565b80156118b25780601f10611887576101008083540402835291602001916118b2565b820191906000526020600020905b81548152906001019060200180831161189557829003601f168201915b505050505091508080546118c590612d14565b80601f01602080910402602001604051908101604052809291908181526020018280546118f190612d14565b801561193e5780601f106119135761010080835404028352916020019161193e565b820191906000526020600020905b81548152906001019060200180831161192157829003601f168201915b505050505090509b509b509b509b509b509b509b509b509b509b509b505091939597999b90929496989a50565b60008060008381526020019081526020016000209050600073ffffffffffffffffffffffffffffffffffffffff168160000160009054906101000a900473ffffffffffffffffffffffffffffffffffffffff1673ffffffffffffffffffffffffffffffffffffffff161415611a15576040517f08c379a0000000000000000000000000000000000000000000000000000000008152600401611a0c90612af4565b60405180910390fd5b8060050160009054906101000a900460ff1615611a67576040517f08c379a0000000000000000000000000000000000000000000000000000000008152600401611a5e90612b34565b60405180910390fd5b806003015442118015611a7d5750806004015442105b611abc576040517f08c379a0000000000000000000000000000000000000000000000000000000008152600401611ab390612ad4565b60405180910390fd5b600360009054906101000a900473ffffffffffffffffffffffffffffffffffffffff1673ffffffffffffffffffffffffffffffffffffffff1663a9059cbb8260000160009054906101000a900473ffffffffffffffffffffffffffffffffffffffff1683600101546040518363ffffffff1660e01b8152600401611b419291906127a7565b602060405180830381600087803b158015611b5b57600080fd5b505af1158015611b6f573d6000803e3d6000fd5b505050506040513d601f19601f82011682018060405250810190611b939190612269565b611bd2576040517f08c379a0000000000000000000000000000000000000000000000000000000008152600401611bc9906129d4565b60405180910390fd5b600080838152602001908152602001600020600080820160006101000a81549073ffffffffffffffffffffffffffffffffffffffff021916905560018201600090556002820160009055600382016000905560048201600090556005820160006101000a81549060ff0219169055600682016000611c50919061204b565b6007820160009055600882016000611c68919061204b565b600982016000611c78919061204b565b600a82016000611c88919061204b565b5050611cb88160000160009054906101000a900473ffffffffffffffffffffffffffffffffffffffff1683611e22565b7f5df2e0effc858321aac354a2dce11a5209bc1ce91c65a481513739fec0919e3882604051611ce791906128b2565b60405180910390a15050565b6000600260008473ffffffffffffffffffffffffffffffffffffffff1673ffffffffffffffffffffffffffffffffffffffff168152602001908152602001600020600083815260200190815260200160002060009054906101000a900460ff16905092915050565b600560009054906101000a900473ffffffffffffffffffffffffffffffffffffffff1673ffffffffffffffffffffffffffffffffffffffff163373ffffffffffffffffffffffffffffffffffffffff1614611db557600080fd5b6001600260008473ffffffffffffffffffffffffffffffffffffffff1673ffffffffffffffffffffffffffffffffffffffff168152602001908152602001600020600083815260200190815260200160002060006101000a81548160ff0219169083151502179055505050565b6000600160008473ffffffffffffffffffffffffffffffffffffffff1673ffffffffffffffffffffffffffffffffffffffff168152602001908152602001600020905060005b8180549050811015611fbf5782828281548110611eae577f4e487b7100000000000000000000000000000000000000000000000000000000600052603260045260246000fd5b90600052602060002001541415611fac578160018380549050611ed19190612c4c565b81548110611f08577f4e487b7100000000000000000000000000000000000000000000000000000000600052603260045260246000fd5b9060005260206000200154828281548110611f4c577f4e487b7100000000000000000000000000000000000000000000000000000000600052603260045260246000fd5b906000526020600020018190555081805480611f91577f4e487b7100000000000000000000000000000000000000000000000000000000600052603160045260246000fd5b60019003818190600052602060002001600090559055611fbf565b8080611fb790612d77565b915050611e68565b50505050565b828054611fd190612d14565b90600052602060002090601f016020900481019282611ff3576000855561203a565b82601f1061200c57805160ff191683800117855561203a565b8280016001018555821561203a579182015b8281111561203957825182559160200191906001019061201e565b5b509050612047919061208b565b5090565b50805461205790612d14565b6000825580601f106120695750612088565b601f016020900490600052602060002090810190612087919061208b565b5b50565b5b808211156120a457600081600090555060010161208c565b5090565b60006120bb6120b684612bf4565b612bcf565b9050828152602081018484840111156120d357600080fd5b6120de848285612cd2565b509392505050565b6000813590506120f581613172565b92915050565b60008151905061210a81613189565b92915050565b60008135905061211f816131a0565b92915050565b600082601f83011261213657600080fd5b81356121468482602086016120a8565b91505092915050565b60008135905061215e816131b7565b92915050565b600081519050612173816131b7565b92915050565b60006020828403121561218b57600080fd5b6000612199848285016120e6565b91505092915050565b6000806000606084860312156121b757600080fd5b60006121c5868287016120e6565b93505060206121d6868287016120e6565b92505060406121e7868287016120e6565b9150509250925092565b6000806040838503121561220457600080fd5b6000612212858286016120e6565b925050602061222385828601612110565b9150509250929050565b6000806040838503121561224057600080fd5b600061224e858286016120e6565b925050602061225f8582860161214f565b9150509250929050565b60006020828403121561227b57600080fd5b6000612289848285016120fb565b91505092915050565b6000602082840312156122a457600080fd5b60006122b284828501612110565b91505092915050565b600080604083850312156122ce57600080fd5b60006122dc85828601612110565b92505060206122ed8582860161214f565b9150509250929050565b600080600080600080600060e0888a03121561231257600080fd5b600088013567ffffffffffffffff81111561232c57600080fd5b6123388a828b01612125565b97505060206123498a828b0161214f565b965050604088013567ffffffffffffffff81111561236657600080fd5b6123728a828b01612125565b955050606088013567ffffffffffffffff81111561238f57600080fd5b61239b8a828b01612125565b945050608088013567ffffffffffffffff8111156123b857600080fd5b6123c48a828b01612125565b93505060a06123d58a828b0161214f565b92505060c06123e68a828b0161214f565b91505092959891949750929550565b60006020828403121561240757600080fd5b600061241584828501612164565b91505092915050565b61242781612c80565b82525050565b61243e61243982612c80565b612dc0565b82525050565b61244d81612c92565b82525050565b61245c81612c9e565b82525050565b600061246d82612c25565b6124778185612c30565b9350612487818560208601612ce1565b61249081612e7b565b840191505092915050565b60006124a682612c25565b6124b08185612c41565b93506124c0818560208601612ce1565b80840191505092915050565b60006124d9601483612c30565b91506124e482612e99565b602082019050919050565b60006124fc601483612c30565b915061250782612ec2565b602082019050919050565b600061251f601a83612c30565b915061252a82612eeb565b602082019050919050565b6000612542602b83612c30565b915061254d82612f14565b604082019050919050565b6000612565601283612c30565b915061257082612f63565b602082019050919050565b6000612588601983612c30565b915061259382612f8c565b602082019050919050565b60006125ab601283612c30565b91506125b682612fb5565b602082019050919050565b60006125ce601c83612c30565b91506125d982612fde565b602082019050919050565b60006125f1601d83612c30565b91506125fc82613007565b602082019050919050565b6000612614601583612c30565b915061261f82613030565b602082019050919050565b6000612637602283612c30565b915061264282613059565b604082019050919050565b600061265a601f83612c30565b9150612665826130a8565b602082019050919050565b600061267d601083612c30565b9150612688826130d1565b602082019050919050565b60006126a0601583612c30565b91506126ab826130fa565b602082019050919050565b60006126c3602e83612c30565b91506126ce82613123565b604082019050919050565b6126e281612cc8565b82525050565b6126f96126f482612cc8565b612de4565b82525050565b600061270b828a61242d565b60148201915061271b82896126e8565b60208201915061272b828861249b565b915061273782876126e8565b602082019150612747828661249b565b9150612753828561249b565b915061275f828461249b565b915081905098975050505050505050565b6000606082019050612785600083018661241e565b612792602083018561241e565b61279f60408301846126d9565b949350505050565b60006040820190506127bc600083018561241e565b6127c960208301846126d9565b9392505050565b6000610160820190506127e6600083018e61241e565b6127f3602083018d6126d9565b612800604083018c6126d9565b61280d606083018b6126d9565b61281a608083018a6126d9565b61282760a0830189612444565b81810360c08301526128398188612462565b905061284860e08301876126d9565b81810361010083015261285b8186612462565b90508181036101208301526128708185612462565b90508181036101408301526128858184612462565b90509c9b505050505050505050505050565b60006020820190506128ac6000830184612444565b92915050565b60006020820190506128c76000830184612453565b92915050565b60006060820190506128e26000830186612453565b6128ef602083018561241e565b6128fc60408301846126d9565b949350505050565b600060c0820190506129196000830189612453565b612926602083018861241e565b61293360408301876126d9565b61294060608301866126d9565b61294d60808301856126d9565b61295a60a08301846126d9565b979650505050505050565b600060a082019050818103600083015261297f8188612462565b905061298e60208301876126d9565b81810360408301526129a08186612462565b905081810360608301526129b48185612462565b905081810360808301526129c88184612462565b90509695505050505050565b600060208201905081810360008301526129ed816124cc565b9050919050565b60006020820190508181036000830152612a0d816124ef565b9050919050565b60006020820190508181036000830152612a2d81612512565b9050919050565b60006020820190508181036000830152612a4d81612535565b9050919050565b60006020820190508181036000830152612a6d81612558565b9050919050565b60006020820190508181036000830152612a8d8161257b565b9050919050565b60006020820190508181036000830152612aad8161259e565b9050919050565b60006020820190508181036000830152612acd816125c1565b9050919050565b60006020820190508181036000830152612aed816125e4565b9050919050565b60006020820190508181036000830152612b0d81612607565b9050919050565b60006020820190508181036000830152612b2d8161262a565b9050919050565b60006020820190508181036000830152612b4d8161264d565b9050919050565b60006020820190508181036000830152612b6d81612670565b9050919050565b60006020820190508181036000830152612b8d81612693565b9050919050565b60006020820190508181036000830152612bad816126b6565b9050919050565b6000602082019050612bc960008301846126d9565b92915050565b6000612bd9612bea565b9050612be58282612d46565b919050565b6000604051905090565b600067ffffffffffffffff821115612c0f57612c0e612e4c565b5b612c1882612e7b565b9050602081019050919050565b600081519050919050565b600082825260208201905092915050565b600081905092915050565b6000612c5782612cc8565b9150612c6283612cc8565b925082821015612c7557612c74612dee565b5b828203905092915050565b6000612c8b82612ca8565b9050919050565b60008115159050919050565b6000819050919050565b600073ffffffffffffffffffffffffffffffffffffffff82169050919050565b6000819050919050565b82818337600083830152505050565b60005b83811015612cff578082015181840152602081019050612ce4565b83811115612d0e576000848401525b50505050565b60006002820490506001821680612d2c57607f821691505b60208210811415612d4057612d3f612e1d565b5b50919050565b612d4f82612e7b565b810181811067ffffffffffffffff82111715612d6e57612d6d612e4c565b5b80604052505050565b6000612d8282612cc8565b91507fffffffffffffffffffffffffffffffffffffffffffffffffffffffffffffffff821415612db557612db4612dee565b5b600182019050919050565b6000612dcb82612dd2565b9050919050565b6000612ddd82612e8c565b9050919050565b6000819050919050565b7f4e487b7100000000000000000000000000000000000000000000000000000000600052601160045260246000fd5b7f4e487b7100000000000000000000000000000000000000000000000000000000600052602260045260246000fd5b7f4e487b7100000000000000000000000000000000000000000000000000000000600052604160045260246000fd5b6000601f19601f8301169050919050565b60008160601b9050919050565b7f55534443207472616e73666572206661696c6564000000000000000000000000600082015250565b7f5553444320617070726f76616c206661696c6564000000000000000000000000600082015250565b7f506f6c69637920686173206e6f74206578706972656420796574000000000000600082015250565b7f4e657720656e642064617465206d75737420626520616674657220637572726560008201527f6e7420656e642064617465000000000000000000000000000000000000000000602082015250565b7f496e76616c696420737461727420646174650000000000000000000000000000600082015250565b7f596f7520646f6e2774206861766520706f6c6963792079657400000000000000600082015250565b7f56657269667920636c61696d2066697273740000000000000000000000000000600082015250565b7f496e76616c696420706f6c696379486f6c646572206164647265737300000000600082015250565b7f596f752063616e206f6e6c7920636c61696d2074686520706f6c696379000000600082015250565b7f506f6c69637920646f6573206e6f742065786973740000000000000000000000600082015250565b7f4f6e6c792061646d696e2063616e20706572666f726d2074686973206163746960008201527f6f6e000000000000000000000000000000000000000000000000000000000000602082015250565b7f506f6c6963792068617320616c7265616479206265656e20636c61696d656400600082015250565b7f496e76616c696420656e64206461746500000000000000000000000000000000600082015250565b7f506f6c69637920616c7265616479206578697374730000000000000000000000600082015250565b7f506f6c69637920646f6573206e6f74206578697374206f7220796f752061726560008201527f206e6f7420746865206f776e6572000000000000000000000000000000000000602082015250565b61317b81612c80565b811461318657600080fd5b50565b61319281612c92565b811461319d57600080fd5b50565b6131a981612c9e565b81146131b457600080fd5b50565b6131c081612cc8565b81146131cb57600080fd5b5056fea264697066735822122059dc5107255a5df1eb8c8c5d30e02cfb0e38f0e5a92d0dc9c95880a2239d749664736f6c63430008040033",
  "linkReferences": {},
  "deployedLinkReferences": {}
}