{
  "_format": "hh-sol-artifact-1",
  "contractName": "ShwanSurksha",
  "sourceName": "contracts/ShwanSurksha.sol",
  "abi": [
    {
      "inputs": [],
      "stateMutability": "nonpayable",
      "type": "constructor"
    },
    {
      "anonymous": false,
      "inputs": [
        {
          "indexed": false,
          "internalType": "bytes32",
          "name": "policyId",
          "type": "bytes32"
        },
        {
          "indexed": false,
          "internalType": "address",
          "name": "owner",
          "type": "address"
        },
        {
          "indexed": false,
          "internalType": "uint256",
          "name": "premium",
          "type": "uint256"
        },
        {
          "indexed": false,
          "internalType": "uint256",
          "name": "payout",
          "type": "uint256"
        },
        {
          "indexed": false,
          "internalType": "uint256",
          "name": "startDate",
          "type": "uint256"
        },
        {
          "indexed": false,
          "internalType": "uint256",
          "name": "endDate",
          "type": "uint256"
        }
      ],
      "name": "PolicyAdded",
      "type": "event"
    },
    {
      "anonymous": false,
      "inputs": [
        {
          "indexed": true,
          "internalType": "bytes32",
          "name": "policyId",
          "type": "bytes32"
        },
        {
          "indexed": false,
          "internalType": "address",
          "name": "owner",
          "type": "address"
        },
        {
          "indexed": false,
          "internalType": "uint256",
          "name": "payout",
          "type": "uint256"
        }
      ],
      "name": "PolicyClaimed",
      "type": "event"
    },
    {
      "anonymous": false,
      "inputs": [
        {
          "indexed": true,
          "internalType": "bytes32",
          "name": "policyId",
          "type": "bytes32"
        },
        {
          "indexed": false,
          "internalType": "address",
          "name": "owner",
          "type": "address"
        },
        {
          "indexed": false,
          "internalType": "uint256",
          "name": "newEndDate",
          "type": "uint256"
        }
      ],
      "name": "PolicyUpdated",
      "type": "event"
    },
    {
      "anonymous": false,
      "inputs": [
        {
          "indexed": true,
          "internalType": "bytes32",
          "name": "policyId",
          "type": "bytes32"
        },
        {
          "indexed": false,
          "internalType": "address",
          "name": "owner",
          "type": "address"
        }
      ],
      "name": "policyCancelled",
      "type": "event"
    },
    {
      "inputs": [
        {
          "internalType": "string",
          "name": "_breed",
          "type": "string"
        },
        {
          "internalType": "uint256",
          "name": "_ageInMonths",
          "type": "uint256"
        },
        {
          "internalType": "string",
          "name": "_healthCondition",
          "type": "string"
        },
        {
          "internalType": "string",
          "name": "_region",
          "type": "string"
        },
        {
          "internalType": "string",
          "name": "_policyType",
          "type": "string"
        },
        {
          "internalType": "string",
          "name": "_ipfsHash",
          "type": "string"
        },
        {
          "internalType": "uint256",
          "name": "startDate",
          "type": "uint256"
        },
        {
          "internalType": "uint256",
          "name": "endDate",
          "type": "uint256"
        }
      ],
      "name": "addPolicy",
      "outputs": [],
      "stateMutability": "nonpayable",
      "type": "function"
    },
    {
      "inputs": [
        {
          "internalType": "bytes32",
          "name": "policyId",
          "type": "bytes32"
        }
      ],
      "name": "cancelPolicy",
      "outputs": [],
      "stateMutability": "nonpayable",
      "type": "function"
    },
    {
      "inputs": [
        {
          "internalType": "bytes32",
          "name": "policyId",
          "type": "bytes32"
        }
      ],
      "name": "claimPolicy",
      "outputs": [],
      "stateMutability": "nonpayable",
      "type": "function"
    },
    {
      "inputs": [
        {
          "internalType": "bytes32",
          "name": "policyId",
          "type": "bytes32"
        }
      ],
      "name": "fulfilThePolicyClaim",
      "outputs": [
        {
          "internalType": "bool",
          "name": "",
          "type": "bool"
        }
      ],
      "stateMutability": "nonpayable",
      "type": "function"
    },
    {
      "inputs": [
        {
          "internalType": "address",
          "name": "policyHolder",
          "type": "address"
        }
      ],
      "name": "getActivePoliciyOf",
      "outputs": [
        {
          "internalType": "bytes32[]",
          "name": "",
          "type": "bytes32[]"
        }
      ],
      "stateMutability": "view",
      "type": "function"
    },
    {
      "inputs": [
        {
          "internalType": "address",
          "name": "policyHolder",
          "type": "address"
        },
        {
          "internalType": "bytes32",
          "name": "policyId",
          "type": "bytes32"
        }
      ],
      "name": "getIsClaimable",
      "outputs": [
        {
          "internalType": "bool",
          "name": "",
          "type": "bool"
        }
      ],
      "stateMutability": "view",
      "type": "function"
    },
    {
      "inputs": [
        {
          "internalType": "bytes32",
          "name": "policyId",
          "type": "bytes32"
        }
      ],
      "name": "getPolicy",
      "outputs": [
        {
          "internalType": "address",
          "name": "owner",
          "type": "address"
        },
        {
          "internalType": "uint256",
          "name": "premium",
          "type": "uint256"
        },
        {
          "internalType": "uint256",
          "name": "payout",
          "type": "uint256"
        },
        {
          "internalType": "uint256",
          "name": "startDate",
          "type": "uint256"
        },
        {
          "internalType": "uint256",
          "name": "endDate",
          "type": "uint256"
        },
        {
          "internalType": "bool",
          "name": "claimed",
          "type": "bool"
        },
        {
          "internalType": "string",
          "name": "breed",
          "type": "string"
        },
        {
          "internalType": "uint256",
          "name": "ageInMonths",
          "type": "uint256"
        },
        {
          "internalType": "string",
          "name": "healthCondition",
          "type": "string"
        },
        {
          "internalType": "string",
          "name": "region",
          "type": "string"
        },
        {
          "internalType": "string",
          "name": "policyType",
          "type": "string"
        },
        {
          "internalType": "string",
          "name": "ipfsHash",
          "type": "string"
        }
      ],
      "stateMutability": "view",
      "type": "function"
    },
    {
      "inputs": [
        {
          "internalType": "address",
          "name": "policyHolder",
          "type": "address"
        }
      ],
      "name": "getPolicyToBeClaimed",
      "outputs": [
        {
          "internalType": "bytes32",
          "name": "",
          "type": "bytes32"
        }
      ],
      "stateMutability": "view",
      "type": "function"
    },
    {
      "inputs": [
        {
          "internalType": "address",
          "name": "",
          "type": "address"
        },
        {
          "internalType": "uint256",
          "name": "",
          "type": "uint256"
        }
      ],
      "name": "policyHolderToIDs",
      "outputs": [
        {
          "internalType": "bytes32",
          "name": "",
          "type": "bytes32"
        }
      ],
      "stateMutability": "view",
      "type": "function"
    },
    {
      "inputs": [
        {
          "internalType": "address",
          "name": "policyHolder",
          "type": "address"
        },
        {
          "internalType": "bytes32",
          "name": "policyId",
          "type": "bytes32"
        }
      ],
      "name": "setIsClaimable",
      "outputs": [],
      "stateMutability": "nonpayable",
      "type": "function"
    },
    {
      "inputs": [
        {
          "internalType": "address",
          "name": "_usdcTokenAddress",
          "type": "address"
        },
        {
          "internalType": "address",
          "name": "_premimumCalculator",
          "type": "address"
        },
        {
          "internalType": "address",
          "name": "_verifierContractAddress",
          "type": "address"
        }
      ],
      "name": "updateContractsAddress",
      "outputs": [],
      "stateMutability": "nonpayable",
      "type": "function"
    },
    {
      "inputs": [
        {
          "internalType": "bytes32",
          "name": "policyId",
          "type": "bytes32"
        },
        {
          "internalType": "uint256",
          "name": "newEndDate",
          "type": "uint256"
        }
      ],
      "name": "updatePolicy",
      "outputs": [],
      "stateMutability": "nonpayable",
      "type": "function"
    }
  ],
  "bytecode": "0x608060405234801561001057600080fd5b5033600760006101000a81548173ffffffffffffffffffffffffffffffffffffffff021916908373ffffffffffffffffffffffffffffffffffffffff1602179055506130a3806100616000396000f3fe608060405234801561001057600080fd5b50600436106100b45760003560e01c8063a86146d011610071578063a86146d0146101a8578063b134ea87146101c4578063cbfcf488146101f4578063dac2cb3814610224578063e8ca0e1514610240578063f62ec4d51461025c576100b4565b80632d39d786146100b95780635e727700146100d55780636d90d8ad146100f157806389a99dc91461010d5780638cc3953f1461013d578063a3f685f91461016d575b600080fd5b6100d360048036038101906100ce9190611f08565b61028c565b005b6100ef60048036038101906100ea9190611ff8565b6103e4565b005b61010b60048036038101906101069190612021565b61042b565b005b61012760048036038101906101229190611edf565b610561565b60405161013491906126ec565b60405180910390f35b61015760048036038101906101529190611f93565b610668565b6040516101649190612729565b60405180910390f35b61018760048036038101906101829190611ff8565b610699565b60405161019f9c9b9a9998979695949392919061260f565b60405180910390f35b6101c260048036038101906101bd9190611ff8565b610a9e565b005b6101de60048036038101906101d99190611f57565b610e5b565b6040516101eb919061270e565b60405180910390f35b61020e60048036038101906102099190611edf565b610ec3565b60405161021b9190612729565b60405180910390f35b61023e60048036038101906102399190611f57565b610f7b565b005b61025a6004803603810190610255919061205d565b61107a565b005b61027660048036038101906102719190611ff8565b611781565b604051610283919061270e565b60405180910390f35b600760009054906101000a900473ffffffffffffffffffffffffffffffffffffffff1673ffffffffffffffffffffffffffffffffffffffff163373ffffffffffffffffffffffffffffffffffffffff161461031c576040517f08c379a000000000000000000000000000000000000000000000000000000000815260040161031390612934565b60405180910390fd5b82600460006101000a81548173ffffffffffffffffffffffffffffffffffffffff021916908373ffffffffffffffffffffffffffffffffffffffff16021790555081600560006101000a81548173ffffffffffffffffffffffffffffffffffffffff021916908373ffffffffffffffffffffffffffffffffffffffff16021790555080600660006101000a81548173ffffffffffffffffffffffffffffffffffffffff021916908373ffffffffffffffffffffffffffffffffffffffff160217905550505050565b80600360003373ffffffffffffffffffffffffffffffffffffffff1673ffffffffffffffffffffffffffffffffffffffff1681526020019081526020016000208190555050565b600080600084815260200190815260200160002090503373ffffffffffffffffffffffffffffffffffffffff168160000160009054906101000a900473ffffffffffffffffffffffffffffffffffffffff1673ffffffffffffffffffffffffffffffffffffffff16146104d3576040517f08c379a00000000000000000000000000000000000000000000000000000000081526004016104ca906129d4565b60405180910390fd5b80600401548211610519576040517f08c379a000000000000000000000000000000000000000000000000000000000815260040161051090612874565b60405180910390fd5b818160040181905550827f4796626372633c5d33077ba956a4f0c5e8574bcdfee92d39537c1e9e7089dac533846040516105549291906125e6565b60405180910390a2505050565b6060600073ffffffffffffffffffffffffffffffffffffffff168273ffffffffffffffffffffffffffffffffffffffff1614156105d3576040517f08c379a00000000000000000000000000000000000000000000000000000000081526004016105ca906128d4565b60405180910390fd5b600160008373ffffffffffffffffffffffffffffffffffffffff1673ffffffffffffffffffffffffffffffffffffffff16815260200190815260200160002080548060200260200160405190810160405280929190818152602001828054801561065c57602002820191906000526020600020905b815481526020019060010190808311610648575b50505050509050919050565b6001602052816000526040600020818154811061068457600080fd5b90600052602060002001600091509150505481565b6000806000806000806060600060608060608060008060008f81526020019081526020016000209050600073ffffffffffffffffffffffffffffffffffffffff168160000160009054906101000a900473ffffffffffffffffffffffffffffffffffffffff1673ffffffffffffffffffffffffffffffffffffffff161415610756576040517f08c379a000000000000000000000000000000000000000000000000000000000815260040161074d90612914565b60405180910390fd5b8060000160009054906101000a900473ffffffffffffffffffffffffffffffffffffffff1681600101548260020154836003015484600401548560050160009054906101000a900460ff1686600601876007015488600801896009018a600a018b600b018580546107c690612b8d565b80601f01602080910402602001604051908101604052809291908181526020018280546107f290612b8d565b801561083f5780601f106108145761010080835404028352916020019161083f565b820191906000526020600020905b81548152906001019060200180831161082257829003601f168201915b5050505050955083805461085290612b8d565b80601f016020809104026020016040519081016040528092919081815260200182805461087e90612b8d565b80156108cb5780601f106108a0576101008083540402835291602001916108cb565b820191906000526020600020905b8154815290600101906020018083116108ae57829003601f168201915b505050505093508280546108de90612b8d565b80601f016020809104026020016040519081016040528092919081815260200182805461090a90612b8d565b80156109575780601f1061092c57610100808354040283529160200191610957565b820191906000526020600020905b81548152906001019060200180831161093a57829003601f168201915b5050505050925081805461096a90612b8d565b80601f016020809104026020016040519081016040528092919081815260200182805461099690612b8d565b80156109e35780601f106109b8576101008083540402835291602001916109e3565b820191906000526020600020905b8154815290600101906020018083116109c657829003601f168201915b505050505091508080546109f690612b8d565b80601f0160208091040260200160405190810160405280929190818152602001828054610a2290612b8d565b8015610a6f5780601f10610a4457610100808354040283529160200191610a6f565b820191906000526020600020905b815481529060010190602001808311610a5257829003601f168201915b505050505090509c509c509c509c509c509c509c509c509c509c509c509c505091939597999b5091939597999b565b60008060008381526020019081526020016000209050600073ffffffffffffffffffffffffffffffffffffffff168160000160009054906101000a900473ffffffffffffffffffffffffffffffffffffffff1673ffffffffffffffffffffffffffffffffffffffff161415610b48576040517f08c379a0000000000000000000000000000000000000000000000000000000008152600401610b3f90612914565b60405180910390fd5b8060050160009054906101000a900460ff1615610b9a576040517f08c379a0000000000000000000000000000000000000000000000000000000008152600401610b9190612954565b60405180910390fd5b806003015442118015610bb05750806004015442105b610bef576040517f08c379a0000000000000000000000000000000000000000000000000000000008152600401610be6906128f4565b60405180910390fd5b600460009054906101000a900473ffffffffffffffffffffffffffffffffffffffff1673ffffffffffffffffffffffffffffffffffffffff1663a9059cbb8260000160009054906101000a900473ffffffffffffffffffffffffffffffffffffffff1683600101546040518363ffffffff1660e01b8152600401610c749291906125e6565b602060405180830381600087803b158015610c8e57600080fd5b505af1158015610ca2573d6000803e3d6000fd5b505050506040513d601f19601f82011682018060405250810190610cc69190611fcf565b610d05576040517f08c379a0000000000000000000000000000000000000000000000000000000008152600401610cfc90612814565b60405180910390fd5b600080838152602001908152602001600020600080820160006101000a81549073ffffffffffffffffffffffffffffffffffffffff021916905560018201600090556002820160009055600382016000905560048201600090556005820160006101000a81549060ff0219169055600682016000610d839190611d2b565b6007820160009055600882016000610d9b9190611d2b565b600982016000610dab9190611d2b565b600a82016000610dbb9190611d2b565b600b82016000610dcb9190611d2b565b5050610dfb8160000160009054906101000a900473ffffffffffffffffffffffffffffffffffffffff1683611b88565b817fde0f0d249e66654c1f701669d7dfefe48e7e3e8f53d0759a3ed35955e209f07a8260000160009054906101000a900473ffffffffffffffffffffffffffffffffffffffff16604051610e4f9190612594565b60405180910390a25050565b6000600260008473ffffffffffffffffffffffffffffffffffffffff1673ffffffffffffffffffffffffffffffffffffffff168152602001908152602001600020600083815260200190815260200160002060009054906101000a900460ff16905092915050565b60008073ffffffffffffffffffffffffffffffffffffffff168273ffffffffffffffffffffffffffffffffffffffff161415610f34576040517f08c379a0000000000000000000000000000000000000000000000000000000008152600401610f2b906128d4565b60405180910390fd5b600360008373ffffffffffffffffffffffffffffffffffffffff1673ffffffffffffffffffffffffffffffffffffffff168152602001908152602001600020549050919050565b33600660009054906101000a900473ffffffffffffffffffffffffffffffffffffffff1673ffffffffffffffffffffffffffffffffffffffff168173ffffffffffffffffffffffffffffffffffffffff161461100c576040517f08c379a0000000000000000000000000000000000000000000000000000000008152600401611003906129b4565b60405180910390fd5b6001600260008573ffffffffffffffffffffffffffffffffffffffff1673ffffffffffffffffffffffffffffffffffffffff168152602001908152602001600020600084815260200190815260200160002060006101000a81548160ff021916908315150217905550505050565b600033428a8a8a8a8a8a60405160200161109b989796959493929190612516565b604051602081830303815290604052805190602001209050600073ffffffffffffffffffffffffffffffffffffffff1660008083815260200190815260200160002060000160009054906101000a900473ffffffffffffffffffffffffffffffffffffffff1673ffffffffffffffffffffffffffffffffffffffff1614611157576040517f08c379a000000000000000000000000000000000000000000000000000000000815260040161114e90612994565b60405180910390fd5b428311611199576040517f08c379a000000000000000000000000000000000000000000000000000000000815260040161119090612894565b60405180910390fd5b8282116111db576040517f08c379a00000000000000000000000000000000000000000000000000000000081526004016111d290612974565b60405180910390fd5b6000600560009054906101000a900473ffffffffffffffffffffffffffffffffffffffff1673ffffffffffffffffffffffffffffffffffffffff1663799d972e8b8b8b8b8b6040518663ffffffff1660e01b81526004016112409594939291906127a5565b60206040518083038186803b15801561125857600080fd5b505afa15801561126c573d6000803e3d6000fd5b505050506040513d601f19601f820116820180604052508101906112909190612187565b90506000600560009054906101000a900473ffffffffffffffffffffffffffffffffffffffff1673ffffffffffffffffffffffffffffffffffffffff16633bb91c77836040518263ffffffff1660e01b81526004016112ef91906129f4565b60206040518083038186803b15801561130757600080fd5b505afa15801561131b573d6000803e3d6000fd5b505050506040513d601f19601f8201168201806040525081019061133f9190612187565b9050600460009054906101000a900473ffffffffffffffffffffffffffffffffffffffff1673ffffffffffffffffffffffffffffffffffffffff1663095ea7b330846040518363ffffffff1660e01b815260040161139e9291906125e6565b602060405180830381600087803b1580156113b857600080fd5b505af11580156113cc573d6000803e3d6000fd5b505050506040513d601f19601f820116820180604052508101906113f09190611fcf565b61142f576040517f08c379a000000000000000000000000000000000000000000000000000000000815260040161142690612834565b60405180910390fd5b600460009054906101000a900473ffffffffffffffffffffffffffffffffffffffff1673ffffffffffffffffffffffffffffffffffffffff166323b872dd3330856040518463ffffffff1660e01b815260040161148e939291906125af565b602060405180830381600087803b1580156114a857600080fd5b505af11580156114bc573d6000803e3d6000fd5b505050506040513d601f19601f820116820180604052508101906114e09190611fcf565b61151f576040517f08c379a000000000000000000000000000000000000000000000000000000000815260040161151690612814565b60405180910390fd5b6040518061018001604052803373ffffffffffffffffffffffffffffffffffffffff1681526020018381526020018281526020018681526020018581526020016000151581526020018c81526020018b81526020018a81526020018981526020018881526020018781525060008085815260200190815260200160002060008201518160000160006101000a81548173ffffffffffffffffffffffffffffffffffffffff021916908373ffffffffffffffffffffffffffffffffffffffff1602179055506020820151816001015560408201518160020155606082015181600301556080820151816004015560a08201518160050160006101000a81548160ff02191690831515021790555060c0820151816006019080519060200190611647929190611d6b565b5060e0820151816007015561010082015181600801908051906020019061166f929190611d6b565b5061012082015181600901908051906020019061168d929190611d6b565b5061014082015181600a0190805190602001906116ab929190611d6b565b5061016082015181600b0190805190602001906116c9929190611d6b565b50905050600160003373ffffffffffffffffffffffffffffffffffffffff1673ffffffffffffffffffffffffffffffffffffffff1681526020019081526020016000208390806001815401808255809150506001900390600052602060002001600090919091909150557f7e2b2216d4b67abfef5180ab39597e56662221d6f96fb24e1820f4bf839e946f83338484898960405161176c96959493929190612744565b60405180910390a15050505050505050505050565b600033600660009054906101000a900473ffffffffffffffffffffffffffffffffffffffff1673ffffffffffffffffffffffffffffffffffffffff168173ffffffffffffffffffffffffffffffffffffffff1614611814576040517f08c379a000000000000000000000000000000000000000000000000000000000815260040161180b906129b4565b60405180910390fd5b60008060008581526020019081526020016000209050600260008260000160009054906101000a900473ffffffffffffffffffffffffffffffffffffffff1673ffffffffffffffffffffffffffffffffffffffff1673ffffffffffffffffffffffffffffffffffffffff168152602001908152602001600020600085815260200190815260200160002060009054906101000a900460ff166118eb576040517f08c379a00000000000000000000000000000000000000000000000000000000081526004016118e2906128b4565b60405180910390fd5b8060050160009054906101000a900460ff161561193d576040517f08c379a000000000000000000000000000000000000000000000000000000000815260040161193490612954565b60405180910390fd5b80600301544211611983576040517f08c379a000000000000000000000000000000000000000000000000000000000815260040161197a90612854565b60405180910390fd5b60018160050160006101000a81548160ff0219169083151502179055506000600460009054906101000a900473ffffffffffffffffffffffffffffffffffffffff1673ffffffffffffffffffffffffffffffffffffffff1663a9059cbb8360000160009054906101000a900473ffffffffffffffffffffffffffffffffffffffff1684600201546040518363ffffffff1660e01b8152600401611a279291906125e6565b602060405180830381600087803b158015611a4157600080fd5b505af1158015611a55573d6000803e3d6000fd5b505050506040513d601f19601f82011682018060405250810190611a799190611fcf565b90508015611b7b576000600260008460000160009054906101000a900473ffffffffffffffffffffffffffffffffffffffff1673ffffffffffffffffffffffffffffffffffffffff1673ffffffffffffffffffffffffffffffffffffffff168152602001908152602001600020600087815260200190815260200160002060006101000a81548160ff021916908315150217905550847ffc2e5a4f14afb617147f5e5e83d18cf2c49c2e8d308425798d2c75b429ff555b8360000160009054906101000a900473ffffffffffffffffffffffffffffffffffffffff168460020154604051611b689291906125e6565b60405180910390a2600193505050611b82565b6000935050505b50919050565b6000600160008473ffffffffffffffffffffffffffffffffffffffff1673ffffffffffffffffffffffffffffffffffffffff168152602001908152602001600020905060005b8180549050811015611d255782828281548110611c14577f4e487b7100000000000000000000000000000000000000000000000000000000600052603260045260246000fd5b90600052602060002001541415611d12578160018380549050611c379190612ac5565b81548110611c6e577f4e487b7100000000000000000000000000000000000000000000000000000000600052603260045260246000fd5b9060005260206000200154828281548110611cb2577f4e487b7100000000000000000000000000000000000000000000000000000000600052603260045260246000fd5b906000526020600020018190555081805480611cf7577f4e487b7100000000000000000000000000000000000000000000000000000000600052603160045260246000fd5b60019003818190600052602060002001600090559055611d25565b8080611d1d90612bf0565b915050611bce565b50505050565b508054611d3790612b8d565b6000825580601f10611d495750611d68565b601f016020900490600052602060002090810190611d679190611df1565b5b50565b828054611d7790612b8d565b90600052602060002090601f016020900481019282611d995760008555611de0565b82601f10611db257805160ff1916838001178555611de0565b82800160010185558215611de0579182015b82811115611ddf578251825591602001919060010190611dc4565b5b509050611ded9190611df1565b5090565b5b80821115611e0a576000816000905550600101611df2565b5090565b6000611e21611e1c84612a34565b612a0f565b905082815260208101848484011115611e3957600080fd5b611e44848285612b4b565b509392505050565b600081359050611e5b81613011565b92915050565b600081519050611e7081613028565b92915050565b600081359050611e858161303f565b92915050565b600082601f830112611e9c57600080fd5b8135611eac848260208601611e0e565b91505092915050565b600081359050611ec481613056565b92915050565b600081519050611ed981613056565b92915050565b600060208284031215611ef157600080fd5b6000611eff84828501611e4c565b91505092915050565b600080600060608486031215611f1d57600080fd5b6000611f2b86828701611e4c565b9350506020611f3c86828701611e4c565b9250506040611f4d86828701611e4c565b9150509250925092565b60008060408385031215611f6a57600080fd5b6000611f7885828601611e4c565b9250506020611f8985828601611e76565b9150509250929050565b60008060408385031215611fa657600080fd5b6000611fb485828601611e4c565b9250506020611fc585828601611eb5565b9150509250929050565b600060208284031215611fe157600080fd5b6000611fef84828501611e61565b91505092915050565b60006020828403121561200a57600080fd5b600061201884828501611e76565b91505092915050565b6000806040838503121561203457600080fd5b600061204285828601611e76565b925050602061205385828601611eb5565b9150509250929050565b600080600080600080600080610100898b03121561207a57600080fd5b600089013567ffffffffffffffff81111561209457600080fd5b6120a08b828c01611e8b565b98505060206120b18b828c01611eb5565b975050604089013567ffffffffffffffff8111156120ce57600080fd5b6120da8b828c01611e8b565b965050606089013567ffffffffffffffff8111156120f757600080fd5b6121038b828c01611e8b565b955050608089013567ffffffffffffffff81111561212057600080fd5b61212c8b828c01611e8b565b94505060a089013567ffffffffffffffff81111561214957600080fd5b6121558b828c01611e8b565b93505060c06121668b828c01611eb5565b92505060e06121778b828c01611eb5565b9150509295985092959890939650565b60006020828403121561219957600080fd5b60006121a784828501611eca565b91505092915050565b60006121bc838361225b565b60208301905092915050565b6121d181612af9565b82525050565b6121e86121e382612af9565b612c39565b82525050565b60006121f982612a75565b6122038185612a98565b935061220e83612a65565b8060005b8381101561223f57815161222688826121b0565b975061223183612a8b565b925050600181019050612212565b5085935050505092915050565b61225581612b0b565b82525050565b61226481612b17565b82525050565b61227381612b17565b82525050565b600061228482612a80565b61228e8185612aa9565b935061229e818560208601612b5a565b6122a781612cf4565b840191505092915050565b60006122bd82612a80565b6122c78185612aba565b93506122d7818560208601612b5a565b80840191505092915050565b60006122f0601483612aa9565b91506122fb82612d12565b602082019050919050565b6000612313601483612aa9565b915061231e82612d3b565b602082019050919050565b6000612336601a83612aa9565b915061234182612d64565b602082019050919050565b6000612359602b83612aa9565b915061236482612d8d565b604082019050919050565b600061237c601283612aa9565b915061238782612ddc565b602082019050919050565b600061239f601283612aa9565b91506123aa82612e05565b602082019050919050565b60006123c2601c83612aa9565b91506123cd82612e2e565b602082019050919050565b60006123e5601d83612aa9565b91506123f082612e57565b602082019050919050565b6000612408601583612aa9565b915061241382612e80565b602082019050919050565b600061242b602283612aa9565b915061243682612ea9565b604082019050919050565b600061244e601f83612aa9565b915061245982612ef8565b602082019050919050565b6000612471601083612aa9565b915061247c82612f21565b602082019050919050565b6000612494601583612aa9565b915061249f82612f4a565b602082019050919050565b60006124b7602a83612aa9565b91506124c282612f73565b604082019050919050565b60006124da602e83612aa9565b91506124e582612fc2565b604082019050919050565b6124f981612b41565b82525050565b61251061250b82612b41565b612c5d565b82525050565b6000612522828b6121d7565b601482019150612532828a6124ff565b60208201915061254282896122b2565b915061254e82886124ff565b60208201915061255e82876122b2565b915061256a82866122b2565b915061257682856122b2565b915061258282846122b2565b91508190509998505050505050505050565b60006020820190506125a960008301846121c8565b92915050565b60006060820190506125c460008301866121c8565b6125d160208301856121c8565b6125de60408301846124f0565b949350505050565b60006040820190506125fb60008301856121c8565b61260860208301846124f0565b9392505050565b600061018082019050612625600083018f6121c8565b612632602083018e6124f0565b61263f604083018d6124f0565b61264c606083018c6124f0565b612659608083018b6124f0565b61266660a083018a61224c565b81810360c08301526126788189612279565b905061268760e08301886124f0565b81810361010083015261269a8187612279565b90508181036101208301526126af8186612279565b90508181036101408301526126c48185612279565b90508181036101608301526126d98184612279565b90509d9c50505050505050505050505050565b6000602082019050818103600083015261270681846121ee565b905092915050565b6000602082019050612723600083018461224c565b92915050565b600060208201905061273e600083018461226a565b92915050565b600060c082019050612759600083018961226a565b61276660208301886121c8565b61277360408301876124f0565b61278060608301866124f0565b61278d60808301856124f0565b61279a60a08301846124f0565b979650505050505050565b600060a08201905081810360008301526127bf8188612279565b90506127ce60208301876124f0565b81810360408301526127e08186612279565b905081810360608301526127f48185612279565b905081810360808301526128088184612279565b90509695505050505050565b6000602082019050818103600083015261282d816122e3565b9050919050565b6000602082019050818103600083015261284d81612306565b9050919050565b6000602082019050818103600083015261286d81612329565b9050919050565b6000602082019050818103600083015261288d8161234c565b9050919050565b600060208201905081810360008301526128ad8161236f565b9050919050565b600060208201905081810360008301526128cd81612392565b9050919050565b600060208201905081810360008301526128ed816123b5565b9050919050565b6000602082019050818103600083015261290d816123d8565b9050919050565b6000602082019050818103600083015261292d816123fb565b9050919050565b6000602082019050818103600083015261294d8161241e565b9050919050565b6000602082019050818103600083015261296d81612441565b9050919050565b6000602082019050818103600083015261298d81612464565b9050919050565b600060208201905081810360008301526129ad81612487565b9050919050565b600060208201905081810360008301526129cd816124aa565b9050919050565b600060208201905081810360008301526129ed816124cd565b9050919050565b6000602082019050612a0960008301846124f0565b92915050565b6000612a19612a2a565b9050612a258282612bbf565b919050565b6000604051905090565b600067ffffffffffffffff821115612a4f57612a4e612cc5565b5b612a5882612cf4565b9050602081019050919050565b6000819050602082019050919050565b600081519050919050565b600081519050919050565b6000602082019050919050565b600082825260208201905092915050565b600082825260208201905092915050565b600081905092915050565b6000612ad082612b41565b9150612adb83612b41565b925082821015612aee57612aed612c67565b5b828203905092915050565b6000612b0482612b21565b9050919050565b60008115159050919050565b6000819050919050565b600073ffffffffffffffffffffffffffffffffffffffff82169050919050565b6000819050919050565b82818337600083830152505050565b60005b83811015612b78578082015181840152602081019050612b5d565b83811115612b87576000848401525b50505050565b60006002820490506001821680612ba557607f821691505b60208210811415612bb957612bb8612c96565b5b50919050565b612bc882612cf4565b810181811067ffffffffffffffff82111715612be757612be6612cc5565b5b80604052505050565b6000612bfb82612b41565b91507fffffffffffffffffffffffffffffffffffffffffffffffffffffffffffffffff821415612c2e57612c2d612c67565b5b600182019050919050565b6000612c4482612c4b565b9050919050565b6000612c5682612d05565b9050919050565b6000819050919050565b7f4e487b7100000000000000000000000000000000000000000000000000000000600052601160045260246000fd5b7f4e487b7100000000000000000000000000000000000000000000000000000000600052602260045260246000fd5b7f4e487b7100000000000000000000000000000000000000000000000000000000600052604160045260246000fd5b6000601f19601f8301169050919050565b60008160601b9050919050565b7f55534443207472616e73666572206661696c6564000000000000000000000000600082015250565b7f5553444320617070726f76616c206661696c6564000000000000000000000000600082015250565b7f506f6c69637920686173206e6f74206578706972656420796574000000000000600082015250565b7f4e657720656e642064617465206d75737420626520616674657220637572726560008201527f6e7420656e642064617465000000000000000000000000000000000000000000602082015250565b7f496e76616c696420737461727420646174650000000000000000000000000000600082015250565b7f56657269667920636c61696d2066697273740000000000000000000000000000600082015250565b7f496e76616c696420706f6c696379486f6c646572206164647265737300000000600082015250565b7f596f752063616e206f6e6c7920636c61696d2074686520706f6c696379000000600082015250565b7f506f6c69637920646f6573206e6f742065786973740000000000000000000000600082015250565b7f4f6e6c792061646d696e2063616e20706572666f726d2074686973206163746960008201527f6f6e000000000000000000000000000000000000000000000000000000000000602082015250565b7f506f6c6963792068617320616c7265616479206265656e20636c61696d656400600082015250565b7f496e76616c696420656e64206461746500000000000000000000000000000000600082015250565b7f506f6c69637920616c7265616479206578697374730000000000000000000000600082015250565b7f43616c6c6572206d75737420626520706f6c79676f6e4964207665726966696560008201527f7220636f6e747261637400000000000000000000000000000000000000000000602082015250565b7f506f6c69637920646f6573206e6f74206578697374206f7220796f752061726560008201527f206e6f7420746865206f776e6572000000000000000000000000000000000000602082015250565b61301a81612af9565b811461302557600080fd5b50565b61303181612b0b565b811461303c57600080fd5b50565b61304881612b17565b811461305357600080fd5b50565b61305f81612b41565b811461306a57600080fd5b5056fea2646970667358221220cdf86ef2ef38ec982ace0421725e99c3a6ebc45e25b67616d58c76caac36067664736f6c63430008040033",
  "linkReferences": {},
  "deployedLinkReferences": {}
}