{
  "_format": "hh-sol-artifact-1",
  "contractName": "ShwanSurksha",
  "sourceName": "contracts/ShwanSurksha.sol",
  "abi": [
    {
      "inputs": [],
      "stateMutability": "nonpayable",
      "type": "constructor"
    },
    {
      "anonymous": false,
      "inputs": [
        {
          "indexed": false,
          "internalType": "bytes32",
          "name": "policyId",
          "type": "bytes32"
        },
        {
          "indexed": false,
          "internalType": "address",
          "name": "owner",
          "type": "address"
        },
        {
          "indexed": false,
          "internalType": "uint256",
          "name": "premium",
          "type": "uint256"
        },
        {
          "indexed": false,
          "internalType": "uint256",
          "name": "payout",
          "type": "uint256"
        },
        {
          "indexed": false,
          "internalType": "uint256",
          "name": "startDate",
          "type": "uint256"
        },
        {
          "indexed": false,
          "internalType": "uint256",
          "name": "endDate",
          "type": "uint256"
        }
      ],
      "name": "PolicyAdded",
      "type": "event"
    },
    {
      "anonymous": false,
      "inputs": [
        {
          "indexed": true,
          "internalType": "bytes32",
          "name": "policyId",
          "type": "bytes32"
        },
        {
          "indexed": false,
          "internalType": "address",
          "name": "owner",
          "type": "address"
        },
        {
          "indexed": false,
          "internalType": "uint256",
          "name": "payout",
          "type": "uint256"
        }
      ],
      "name": "PolicyClaimed",
      "type": "event"
    },
    {
      "anonymous": false,
      "inputs": [
        {
          "indexed": true,
          "internalType": "bytes32",
          "name": "policyId",
          "type": "bytes32"
        },
        {
          "indexed": false,
          "internalType": "address",
          "name": "owner",
          "type": "address"
        },
        {
          "indexed": false,
          "internalType": "uint256",
          "name": "newEndDate",
          "type": "uint256"
        }
      ],
      "name": "PolicyUpdated",
      "type": "event"
    },
    {
      "anonymous": false,
      "inputs": [
        {
          "indexed": true,
          "internalType": "bytes32",
          "name": "policyId",
          "type": "bytes32"
        },
        {
          "indexed": false,
          "internalType": "address",
          "name": "owner",
          "type": "address"
        }
      ],
      "name": "policyCancelled",
      "type": "event"
    },
    {
      "inputs": [
        {
          "internalType": "string",
          "name": "_breed",
          "type": "string"
        },
        {
          "internalType": "uint256",
          "name": "_ageInMonths",
          "type": "uint256"
        },
        {
          "internalType": "string",
          "name": "_healthCondition",
          "type": "string"
        },
        {
          "internalType": "string",
          "name": "_region",
          "type": "string"
        },
        {
          "internalType": "string",
          "name": "_policyType",
          "type": "string"
        },
        {
          "internalType": "uint256",
          "name": "startDate",
          "type": "uint256"
        },
        {
          "internalType": "uint256",
          "name": "endDate",
          "type": "uint256"
        }
      ],
      "name": "addPolicy",
      "outputs": [],
      "stateMutability": "nonpayable",
      "type": "function"
    },
    {
      "inputs": [
        {
          "internalType": "bytes32",
          "name": "policyId",
          "type": "bytes32"
        }
      ],
      "name": "cancelPolicy",
      "outputs": [],
      "stateMutability": "nonpayable",
      "type": "function"
    },
    {
      "inputs": [
        {
          "internalType": "bytes32",
          "name": "policyId",
          "type": "bytes32"
        }
      ],
      "name": "claimPolicy",
      "outputs": [],
      "stateMutability": "nonpayable",
      "type": "function"
    },
    {
      "inputs": [
        {
          "internalType": "bytes32",
          "name": "policyId",
          "type": "bytes32"
        }
      ],
      "name": "fulfilThePolicyClaim",
      "outputs": [
        {
          "internalType": "bool",
          "name": "",
          "type": "bool"
        }
      ],
      "stateMutability": "nonpayable",
      "type": "function"
    },
    {
      "inputs": [
        {
          "internalType": "address",
          "name": "policyHolder",
          "type": "address"
        }
      ],
      "name": "getActivePoliciyOf",
      "outputs": [
        {
          "internalType": "bytes32[]",
          "name": "",
          "type": "bytes32[]"
        }
      ],
      "stateMutability": "view",
      "type": "function"
    },
    {
      "inputs": [
        {
          "internalType": "address",
          "name": "policyHolder",
          "type": "address"
        },
        {
          "internalType": "bytes32",
          "name": "policyId",
          "type": "bytes32"
        }
      ],
      "name": "getIsClaimable",
      "outputs": [
        {
          "internalType": "bool",
          "name": "",
          "type": "bool"
        }
      ],
      "stateMutability": "view",
      "type": "function"
    },
    {
      "inputs": [
        {
          "internalType": "bytes32",
          "name": "policyId",
          "type": "bytes32"
        }
      ],
      "name": "getPolicy",
      "outputs": [
        {
          "internalType": "address",
          "name": "owner",
          "type": "address"
        },
        {
          "internalType": "uint256",
          "name": "premium",
          "type": "uint256"
        },
        {
          "internalType": "uint256",
          "name": "payout",
          "type": "uint256"
        },
        {
          "internalType": "uint256",
          "name": "startDate",
          "type": "uint256"
        },
        {
          "internalType": "uint256",
          "name": "endDate",
          "type": "uint256"
        },
        {
          "internalType": "bool",
          "name": "claimed",
          "type": "bool"
        },
        {
          "internalType": "string",
          "name": "breed",
          "type": "string"
        },
        {
          "internalType": "uint256",
          "name": "ageInMonths",
          "type": "uint256"
        },
        {
          "internalType": "string",
          "name": "healthCondition",
          "type": "string"
        },
        {
          "internalType": "string",
          "name": "region",
          "type": "string"
        },
        {
          "internalType": "string",
          "name": "policyType",
          "type": "string"
        }
      ],
      "stateMutability": "view",
      "type": "function"
    },
    {
      "inputs": [
        {
          "internalType": "address",
          "name": "policyHolder",
          "type": "address"
        }
      ],
      "name": "getPolicyToBeClaimed",
      "outputs": [
        {
          "internalType": "bytes32",
          "name": "",
          "type": "bytes32"
        }
      ],
      "stateMutability": "view",
      "type": "function"
    },
    {
      "inputs": [
        {
          "internalType": "address",
          "name": "",
          "type": "address"
        },
        {
          "internalType": "uint256",
          "name": "",
          "type": "uint256"
        }
      ],
      "name": "policyHolderToIDs",
      "outputs": [
        {
          "internalType": "bytes32",
          "name": "",
          "type": "bytes32"
        }
      ],
      "stateMutability": "view",
      "type": "function"
    },
    {
      "inputs": [
        {
          "internalType": "address",
          "name": "policyHolder",
          "type": "address"
        },
        {
          "internalType": "bytes32",
          "name": "policyId",
          "type": "bytes32"
        }
      ],
      "name": "setIsClaimable",
      "outputs": [],
      "stateMutability": "nonpayable",
      "type": "function"
    },
    {
      "inputs": [
        {
          "internalType": "address",
          "name": "_usdcTokenAddress",
          "type": "address"
        },
        {
          "internalType": "address",
          "name": "_premimumCalculator",
          "type": "address"
        },
        {
          "internalType": "address",
          "name": "_verifierContractAddress",
          "type": "address"
        }
      ],
      "name": "updateContractsAddress",
      "outputs": [],
      "stateMutability": "nonpayable",
      "type": "function"
    },
    {
      "inputs": [
        {
          "internalType": "bytes32",
          "name": "policyId",
          "type": "bytes32"
        },
        {
          "internalType": "uint256",
          "name": "newEndDate",
          "type": "uint256"
        }
      ],
      "name": "updatePolicy",
      "outputs": [],
      "stateMutability": "nonpayable",
      "type": "function"
    }
  ],
  "bytecode": "0x608060405234801561001057600080fd5b5033600760006101000a81548173ffffffffffffffffffffffffffffffffffffffff021916908373ffffffffffffffffffffffffffffffffffffffff160217905550612f89806100616000396000f3fe608060405234801561001057600080fd5b50600436106100b45760003560e01c8063a3f685f911610071578063a3f685f914610189578063a86146d0146101c3578063b134ea87146101df578063cbfcf4881461020f578063dac2cb381461023f578063f62ec4d51461025b576100b4565b80632d39d786146100b95780635e727700146100d557806369efe103146100f15780636d90d8ad1461010d57806389a99dc9146101295780638cc3953f14610159575b600080fd5b6100d360048036038101906100ce9190611e3d565b61028b565b005b6100ef60048036038101906100ea9190611f2d565b6103e3565b005b61010b60048036038101906101069190611f92565b61042a565b005b61012760048036038101906101229190611f56565b610b0a565b005b610143600480360381019061013e9190611e14565b610c40565b60405161015091906125d2565b60405180910390f35b610173600480360381019061016e9190611ec8565b610d47565b604051610180919061260f565b60405180910390f35b6101a3600480360381019061019e9190611f2d565b610d78565b6040516101ba9b9a9998979695949392919061250b565b60405180910390f35b6101dd60048036038101906101d89190611f2d565b6110ea565b005b6101f960048036038101906101f49190611e8c565b611497565b60405161020691906125f4565b60405180910390f35b61022960048036038101906102249190611e14565b6114ff565b604051610236919061260f565b60405180910390f35b61025960048036038101906102549190611e8c565b6115b7565b005b61027560048036038101906102709190611f2d565b6116b6565b60405161028291906125f4565b60405180910390f35b600760009054906101000a900473ffffffffffffffffffffffffffffffffffffffff1673ffffffffffffffffffffffffffffffffffffffff163373ffffffffffffffffffffffffffffffffffffffff161461031b576040517f08c379a00000000000000000000000000000000000000000000000000000000081526004016103129061281a565b60405180910390fd5b82600460006101000a81548173ffffffffffffffffffffffffffffffffffffffff021916908373ffffffffffffffffffffffffffffffffffffffff16021790555081600560006101000a81548173ffffffffffffffffffffffffffffffffffffffff021916908373ffffffffffffffffffffffffffffffffffffffff16021790555080600660006101000a81548173ffffffffffffffffffffffffffffffffffffffff021916908373ffffffffffffffffffffffffffffffffffffffff160217905550505050565b80600360003373ffffffffffffffffffffffffffffffffffffffff1673ffffffffffffffffffffffffffffffffffffffff1681526020019081526020016000208190555050565b600033428989898989604051602001610449979695949392919061241f565b604051602081830303815290604052805190602001209050600073ffffffffffffffffffffffffffffffffffffffff1660008083815260200190815260200160002060000160009054906101000a900473ffffffffffffffffffffffffffffffffffffffff1673ffffffffffffffffffffffffffffffffffffffff1614610505576040517f08c379a00000000000000000000000000000000000000000000000000000000081526004016104fc9061287a565b60405180910390fd5b428311610547576040517f08c379a000000000000000000000000000000000000000000000000000000000815260040161053e9061277a565b60405180910390fd5b828211610589576040517f08c379a00000000000000000000000000000000000000000000000000000000081526004016105809061285a565b60405180910390fd5b6000600560009054906101000a900473ffffffffffffffffffffffffffffffffffffffff1673ffffffffffffffffffffffffffffffffffffffff1663799d972e8a8a8a8a8a6040518663ffffffff1660e01b81526004016105ee95949392919061268b565b60206040518083038186803b15801561060657600080fd5b505afa15801561061a573d6000803e3d6000fd5b505050506040513d601f19601f8201168201806040525081019061063e9190612090565b90506000600560009054906101000a900473ffffffffffffffffffffffffffffffffffffffff1673ffffffffffffffffffffffffffffffffffffffff16633bb91c77836040518263ffffffff1660e01b815260040161069d91906128da565b60206040518083038186803b1580156106b557600080fd5b505afa1580156106c9573d6000803e3d6000fd5b505050506040513d601f19601f820116820180604052508101906106ed9190612090565b9050600460009054906101000a900473ffffffffffffffffffffffffffffffffffffffff1673ffffffffffffffffffffffffffffffffffffffff1663095ea7b330846040518363ffffffff1660e01b815260040161074c9291906124e2565b602060405180830381600087803b15801561076657600080fd5b505af115801561077a573d6000803e3d6000fd5b505050506040513d601f19601f8201168201806040525081019061079e9190611f04565b6107dd576040517f08c379a00000000000000000000000000000000000000000000000000000000081526004016107d49061271a565b60405180910390fd5b600460009054906101000a900473ffffffffffffffffffffffffffffffffffffffff1673ffffffffffffffffffffffffffffffffffffffff166323b872dd3330856040518463ffffffff1660e01b815260040161083c939291906124ab565b602060405180830381600087803b15801561085657600080fd5b505af115801561086a573d6000803e3d6000fd5b505050506040513d601f19601f8201168201806040525081019061088e9190611f04565b6108cd576040517f08c379a00000000000000000000000000000000000000000000000000000000081526004016108c4906126fa565b60405180910390fd5b6040518061016001604052803373ffffffffffffffffffffffffffffffffffffffff1681526020018381526020018281526020018681526020018581526020016000151581526020018b81526020018a81526020018981526020018881526020018781525060008085815260200190815260200160002060008201518160000160006101000a81548173ffffffffffffffffffffffffffffffffffffffff021916908373ffffffffffffffffffffffffffffffffffffffff1602179055506020820151816001015560408201518160020155606082015181600301556080820151816004015560a08201518160050160006101000a81548160ff02191690831515021790555060c08201518160060190805190602001906109ef929190611c60565b5060e08201518160070155610100820151816008019080519060200190610a17929190611c60565b50610120820151816009019080519060200190610a35929190611c60565b5061014082015181600a019080519060200190610a53929190611c60565b50905050600160003373ffffffffffffffffffffffffffffffffffffffff1673ffffffffffffffffffffffffffffffffffffffff1681526020019081526020016000208390806001815401808255809150506001900390600052602060002001600090919091909150557f7e2b2216d4b67abfef5180ab39597e56662221d6f96fb24e1820f4bf839e946f833384848989604051610af69695949392919061262a565b60405180910390a150505050505050505050565b600080600084815260200190815260200160002090503373ffffffffffffffffffffffffffffffffffffffff168160000160009054906101000a900473ffffffffffffffffffffffffffffffffffffffff1673ffffffffffffffffffffffffffffffffffffffff1614610bb2576040517f08c379a0000000000000000000000000000000000000000000000000000000008152600401610ba9906128ba565b60405180910390fd5b80600401548211610bf8576040517f08c379a0000000000000000000000000000000000000000000000000000000008152600401610bef9061275a565b60405180910390fd5b818160040181905550827f4796626372633c5d33077ba956a4f0c5e8574bcdfee92d39537c1e9e7089dac53384604051610c339291906124e2565b60405180910390a2505050565b6060600073ffffffffffffffffffffffffffffffffffffffff168273ffffffffffffffffffffffffffffffffffffffff161415610cb2576040517f08c379a0000000000000000000000000000000000000000000000000000000008152600401610ca9906127ba565b60405180910390fd5b600160008373ffffffffffffffffffffffffffffffffffffffff1673ffffffffffffffffffffffffffffffffffffffff168152602001908152602001600020805480602002602001604051908101604052809291908181526020018280548015610d3b57602002820191906000526020600020905b815481526020019060010190808311610d27575b50505050509050919050565b60016020528160005260406000208181548110610d6357600080fd5b90600052602060002001600091509150505481565b60008060008060008060606000606080606060008060008e81526020019081526020016000209050600073ffffffffffffffffffffffffffffffffffffffff168160000160009054906101000a900473ffffffffffffffffffffffffffffffffffffffff1673ffffffffffffffffffffffffffffffffffffffff161415610e34576040517f08c379a0000000000000000000000000000000000000000000000000000000008152600401610e2b906127fa565b60405180910390fd5b8060000160009054906101000a900473ffffffffffffffffffffffffffffffffffffffff1681600101548260020154836003015484600401548560050160009054906101000a900460ff1686600601876007015488600801896009018a600a01848054610ea090612a73565b80601f0160208091040260200160405190810160405280929190818152602001828054610ecc90612a73565b8015610f195780601f10610eee57610100808354040283529160200191610f19565b820191906000526020600020905b815481529060010190602001808311610efc57829003601f168201915b50505050509450828054610f2c90612a73565b80601f0160208091040260200160405190810160405280929190818152602001828054610f5890612a73565b8015610fa55780601f10610f7a57610100808354040283529160200191610fa5565b820191906000526020600020905b815481529060010190602001808311610f8857829003601f168201915b50505050509250818054610fb890612a73565b80601f0160208091040260200160405190810160405280929190818152602001828054610fe490612a73565b80156110315780601f1061100657610100808354040283529160200191611031565b820191906000526020600020905b81548152906001019060200180831161101457829003601f168201915b5050505050915080805461104490612a73565b80601f016020809104026020016040519081016040528092919081815260200182805461107090612a73565b80156110bd5780601f10611092576101008083540402835291602001916110bd565b820191906000526020600020905b8154815290600101906020018083116110a057829003601f168201915b505050505090509b509b509b509b509b509b509b509b509b509b509b505091939597999b90929496989a50565b60008060008381526020019081526020016000209050600073ffffffffffffffffffffffffffffffffffffffff168160000160009054906101000a900473ffffffffffffffffffffffffffffffffffffffff1673ffffffffffffffffffffffffffffffffffffffff161415611194576040517f08c379a000000000000000000000000000000000000000000000000000000000815260040161118b906127fa565b60405180910390fd5b8060050160009054906101000a900460ff16156111e6576040517f08c379a00000000000000000000000000000000000000000000000000000000081526004016111dd9061283a565b60405180910390fd5b8060030154421180156111fc5750806004015442105b61123b576040517f08c379a0000000000000000000000000000000000000000000000000000000008152600401611232906127da565b60405180910390fd5b600460009054906101000a900473ffffffffffffffffffffffffffffffffffffffff1673ffffffffffffffffffffffffffffffffffffffff1663a9059cbb8260000160009054906101000a900473ffffffffffffffffffffffffffffffffffffffff1683600101546040518363ffffffff1660e01b81526004016112c09291906124e2565b602060405180830381600087803b1580156112da57600080fd5b505af11580156112ee573d6000803e3d6000fd5b505050506040513d601f19601f820116820180604052508101906113129190611f04565b611351576040517f08c379a0000000000000000000000000000000000000000000000000000000008152600401611348906126fa565b60405180910390fd5b600080838152602001908152602001600020600080820160006101000a81549073ffffffffffffffffffffffffffffffffffffffff021916905560018201600090556002820160009055600382016000905560048201600090556005820160006101000a81549060ff02191690556006820160006113cf9190611ce6565b60078201600090556008820160006113e79190611ce6565b6009820160006113f79190611ce6565b600a820160006114079190611ce6565b50506114378160000160009054906101000a900473ffffffffffffffffffffffffffffffffffffffff1683611abd565b817fde0f0d249e66654c1f701669d7dfefe48e7e3e8f53d0759a3ed35955e209f07a8260000160009054906101000a900473ffffffffffffffffffffffffffffffffffffffff1660405161148b9190612490565b60405180910390a25050565b6000600260008473ffffffffffffffffffffffffffffffffffffffff1673ffffffffffffffffffffffffffffffffffffffff168152602001908152602001600020600083815260200190815260200160002060009054906101000a900460ff16905092915050565b60008073ffffffffffffffffffffffffffffffffffffffff168273ffffffffffffffffffffffffffffffffffffffff161415611570576040517f08c379a0000000000000000000000000000000000000000000000000000000008152600401611567906127ba565b60405180910390fd5b600360008373ffffffffffffffffffffffffffffffffffffffff1673ffffffffffffffffffffffffffffffffffffffff168152602001908152602001600020549050919050565b33600660009054906101000a900473ffffffffffffffffffffffffffffffffffffffff1673ffffffffffffffffffffffffffffffffffffffff168173ffffffffffffffffffffffffffffffffffffffff1614611648576040517f08c379a000000000000000000000000000000000000000000000000000000000815260040161163f9061289a565b60405180910390fd5b6001600260008573ffffffffffffffffffffffffffffffffffffffff1673ffffffffffffffffffffffffffffffffffffffff168152602001908152602001600020600084815260200190815260200160002060006101000a81548160ff021916908315150217905550505050565b600033600660009054906101000a900473ffffffffffffffffffffffffffffffffffffffff1673ffffffffffffffffffffffffffffffffffffffff168173ffffffffffffffffffffffffffffffffffffffff1614611749576040517f08c379a00000000000000000000000000000000000000000000000000000000081526004016117409061289a565b60405180910390fd5b60008060008581526020019081526020016000209050600260008260000160009054906101000a900473ffffffffffffffffffffffffffffffffffffffff1673ffffffffffffffffffffffffffffffffffffffff1673ffffffffffffffffffffffffffffffffffffffff168152602001908152602001600020600085815260200190815260200160002060009054906101000a900460ff16611820576040517f08c379a00000000000000000000000000000000000000000000000000000000081526004016118179061279a565b60405180910390fd5b8060050160009054906101000a900460ff1615611872576040517f08c379a00000000000000000000000000000000000000000000000000000000081526004016118699061283a565b60405180910390fd5b806003015442116118b8576040517f08c379a00000000000000000000000000000000000000000000000000000000081526004016118af9061273a565b60405180910390fd5b60018160050160006101000a81548160ff0219169083151502179055506000600460009054906101000a900473ffffffffffffffffffffffffffffffffffffffff1673ffffffffffffffffffffffffffffffffffffffff1663a9059cbb8360000160009054906101000a900473ffffffffffffffffffffffffffffffffffffffff1684600201546040518363ffffffff1660e01b815260040161195c9291906124e2565b602060405180830381600087803b15801561197657600080fd5b505af115801561198a573d6000803e3d6000fd5b505050506040513d601f19601f820116820180604052508101906119ae9190611f04565b90508015611ab0576000600260008460000160009054906101000a900473ffffffffffffffffffffffffffffffffffffffff1673ffffffffffffffffffffffffffffffffffffffff1673ffffffffffffffffffffffffffffffffffffffff168152602001908152602001600020600087815260200190815260200160002060006101000a81548160ff021916908315150217905550847ffc2e5a4f14afb617147f5e5e83d18cf2c49c2e8d308425798d2c75b429ff555b8360000160009054906101000a900473ffffffffffffffffffffffffffffffffffffffff168460020154604051611a9d9291906124e2565b60405180910390a2600193505050611ab7565b6000935050505b50919050565b6000600160008473ffffffffffffffffffffffffffffffffffffffff1673ffffffffffffffffffffffffffffffffffffffff168152602001908152602001600020905060005b8180549050811015611c5a5782828281548110611b49577f4e487b7100000000000000000000000000000000000000000000000000000000600052603260045260246000fd5b90600052602060002001541415611c47578160018380549050611b6c91906129ab565b81548110611ba3577f4e487b7100000000000000000000000000000000000000000000000000000000600052603260045260246000fd5b9060005260206000200154828281548110611be7577f4e487b7100000000000000000000000000000000000000000000000000000000600052603260045260246000fd5b906000526020600020018190555081805480611c2c577f4e487b7100000000000000000000000000000000000000000000000000000000600052603160045260246000fd5b60019003818190600052602060002001600090559055611c5a565b8080611c5290612ad6565b915050611b03565b50505050565b828054611c6c90612a73565b90600052602060002090601f016020900481019282611c8e5760008555611cd5565b82601f10611ca757805160ff1916838001178555611cd5565b82800160010185558215611cd5579182015b82811115611cd4578251825591602001919060010190611cb9565b5b509050611ce29190611d26565b5090565b508054611cf290612a73565b6000825580601f10611d045750611d23565b601f016020900490600052602060002090810190611d229190611d26565b5b50565b5b80821115611d3f576000816000905550600101611d27565b5090565b6000611d56611d518461291a565b6128f5565b905082815260208101848484011115611d6e57600080fd5b611d79848285612a31565b509392505050565b600081359050611d9081612ef7565b92915050565b600081519050611da581612f0e565b92915050565b600081359050611dba81612f25565b92915050565b600082601f830112611dd157600080fd5b8135611de1848260208601611d43565b91505092915050565b600081359050611df981612f3c565b92915050565b600081519050611e0e81612f3c565b92915050565b600060208284031215611e2657600080fd5b6000611e3484828501611d81565b91505092915050565b600080600060608486031215611e5257600080fd5b6000611e6086828701611d81565b9350506020611e7186828701611d81565b9250506040611e8286828701611d81565b9150509250925092565b60008060408385031215611e9f57600080fd5b6000611ead85828601611d81565b9250506020611ebe85828601611dab565b9150509250929050565b60008060408385031215611edb57600080fd5b6000611ee985828601611d81565b9250506020611efa85828601611dea565b9150509250929050565b600060208284031215611f1657600080fd5b6000611f2484828501611d96565b91505092915050565b600060208284031215611f3f57600080fd5b6000611f4d84828501611dab565b91505092915050565b60008060408385031215611f6957600080fd5b6000611f7785828601611dab565b9250506020611f8885828601611dea565b9150509250929050565b600080600080600080600060e0888a031215611fad57600080fd5b600088013567ffffffffffffffff811115611fc757600080fd5b611fd38a828b01611dc0565b9750506020611fe48a828b01611dea565b965050604088013567ffffffffffffffff81111561200157600080fd5b61200d8a828b01611dc0565b955050606088013567ffffffffffffffff81111561202a57600080fd5b6120368a828b01611dc0565b945050608088013567ffffffffffffffff81111561205357600080fd5b61205f8a828b01611dc0565b93505060a06120708a828b01611dea565b92505060c06120818a828b01611dea565b91505092959891949750929550565b6000602082840312156120a257600080fd5b60006120b084828501611dff565b91505092915050565b60006120c58383612164565b60208301905092915050565b6120da816129df565b82525050565b6120f16120ec826129df565b612b1f565b82525050565b60006121028261295b565b61210c818561297e565b93506121178361294b565b8060005b8381101561214857815161212f88826120b9565b975061213a83612971565b92505060018101905061211b565b5085935050505092915050565b61215e816129f1565b82525050565b61216d816129fd565b82525050565b61217c816129fd565b82525050565b600061218d82612966565b612197818561298f565b93506121a7818560208601612a40565b6121b081612bda565b840191505092915050565b60006121c682612966565b6121d081856129a0565b93506121e0818560208601612a40565b80840191505092915050565b60006121f960148361298f565b915061220482612bf8565b602082019050919050565b600061221c60148361298f565b915061222782612c21565b602082019050919050565b600061223f601a8361298f565b915061224a82612c4a565b602082019050919050565b6000612262602b8361298f565b915061226d82612c73565b604082019050919050565b600061228560128361298f565b915061229082612cc2565b602082019050919050565b60006122a860128361298f565b91506122b382612ceb565b602082019050919050565b60006122cb601c8361298f565b91506122d682612d14565b602082019050919050565b60006122ee601d8361298f565b91506122f982612d3d565b602082019050919050565b600061231160158361298f565b915061231c82612d66565b602082019050919050565b600061233460228361298f565b915061233f82612d8f565b604082019050919050565b6000612357601f8361298f565b915061236282612dde565b602082019050919050565b600061237a60108361298f565b915061238582612e07565b602082019050919050565b600061239d60158361298f565b91506123a882612e30565b602082019050919050565b60006123c0602a8361298f565b91506123cb82612e59565b604082019050919050565b60006123e3602e8361298f565b91506123ee82612ea8565b604082019050919050565b61240281612a27565b82525050565b61241961241482612a27565b612b43565b82525050565b600061242b828a6120e0565b60148201915061243b8289612408565b60208201915061244b82886121bb565b91506124578287612408565b60208201915061246782866121bb565b915061247382856121bb565b915061247f82846121bb565b915081905098975050505050505050565b60006020820190506124a560008301846120d1565b92915050565b60006060820190506124c060008301866120d1565b6124cd60208301856120d1565b6124da60408301846123f9565b949350505050565b60006040820190506124f760008301856120d1565b61250460208301846123f9565b9392505050565b600061016082019050612521600083018e6120d1565b61252e602083018d6123f9565b61253b604083018c6123f9565b612548606083018b6123f9565b612555608083018a6123f9565b61256260a0830189612155565b81810360c08301526125748188612182565b905061258360e08301876123f9565b8181036101008301526125968186612182565b90508181036101208301526125ab8185612182565b90508181036101408301526125c08184612182565b90509c9b505050505050505050505050565b600060208201905081810360008301526125ec81846120f7565b905092915050565b60006020820190506126096000830184612155565b92915050565b60006020820190506126246000830184612173565b92915050565b600060c08201905061263f6000830189612173565b61264c60208301886120d1565b61265960408301876123f9565b61266660608301866123f9565b61267360808301856123f9565b61268060a08301846123f9565b979650505050505050565b600060a08201905081810360008301526126a58188612182565b90506126b460208301876123f9565b81810360408301526126c68186612182565b905081810360608301526126da8185612182565b905081810360808301526126ee8184612182565b90509695505050505050565b60006020820190508181036000830152612713816121ec565b9050919050565b600060208201905081810360008301526127338161220f565b9050919050565b6000602082019050818103600083015261275381612232565b9050919050565b6000602082019050818103600083015261277381612255565b9050919050565b6000602082019050818103600083015261279381612278565b9050919050565b600060208201905081810360008301526127b38161229b565b9050919050565b600060208201905081810360008301526127d3816122be565b9050919050565b600060208201905081810360008301526127f3816122e1565b9050919050565b6000602082019050818103600083015261281381612304565b9050919050565b6000602082019050818103600083015261283381612327565b9050919050565b600060208201905081810360008301526128538161234a565b9050919050565b600060208201905081810360008301526128738161236d565b9050919050565b6000602082019050818103600083015261289381612390565b9050919050565b600060208201905081810360008301526128b3816123b3565b9050919050565b600060208201905081810360008301526128d3816123d6565b9050919050565b60006020820190506128ef60008301846123f9565b92915050565b60006128ff612910565b905061290b8282612aa5565b919050565b6000604051905090565b600067ffffffffffffffff82111561293557612934612bab565b5b61293e82612bda565b9050602081019050919050565b6000819050602082019050919050565b600081519050919050565b600081519050919050565b6000602082019050919050565b600082825260208201905092915050565b600082825260208201905092915050565b600081905092915050565b60006129b682612a27565b91506129c183612a27565b9250828210156129d4576129d3612b4d565b5b828203905092915050565b60006129ea82612a07565b9050919050565b60008115159050919050565b6000819050919050565b600073ffffffffffffffffffffffffffffffffffffffff82169050919050565b6000819050919050565b82818337600083830152505050565b60005b83811015612a5e578082015181840152602081019050612a43565b83811115612a6d576000848401525b50505050565b60006002820490506001821680612a8b57607f821691505b60208210811415612a9f57612a9e612b7c565b5b50919050565b612aae82612bda565b810181811067ffffffffffffffff82111715612acd57612acc612bab565b5b80604052505050565b6000612ae182612a27565b91507fffffffffffffffffffffffffffffffffffffffffffffffffffffffffffffffff821415612b1457612b13612b4d565b5b600182019050919050565b6000612b2a82612b31565b9050919050565b6000612b3c82612beb565b9050919050565b6000819050919050565b7f4e487b7100000000000000000000000000000000000000000000000000000000600052601160045260246000fd5b7f4e487b7100000000000000000000000000000000000000000000000000000000600052602260045260246000fd5b7f4e487b7100000000000000000000000000000000000000000000000000000000600052604160045260246000fd5b6000601f19601f8301169050919050565b60008160601b9050919050565b7f55534443207472616e73666572206661696c6564000000000000000000000000600082015250565b7f5553444320617070726f76616c206661696c6564000000000000000000000000600082015250565b7f506f6c69637920686173206e6f74206578706972656420796574000000000000600082015250565b7f4e657720656e642064617465206d75737420626520616674657220637572726560008201527f6e7420656e642064617465000000000000000000000000000000000000000000602082015250565b7f496e76616c696420737461727420646174650000000000000000000000000000600082015250565b7f56657269667920636c61696d2066697273740000000000000000000000000000600082015250565b7f496e76616c696420706f6c696379486f6c646572206164647265737300000000600082015250565b7f596f752063616e206f6e6c7920636c61696d2074686520706f6c696379000000600082015250565b7f506f6c69637920646f6573206e6f742065786973740000000000000000000000600082015250565b7f4f6e6c792061646d696e2063616e20706572666f726d2074686973206163746960008201527f6f6e000000000000000000000000000000000000000000000000000000000000602082015250565b7f506f6c6963792068617320616c7265616479206265656e20636c61696d656400600082015250565b7f496e76616c696420656e64206461746500000000000000000000000000000000600082015250565b7f506f6c69637920616c7265616479206578697374730000000000000000000000600082015250565b7f43616c6c6572206d75737420626520706f6c79676f6e4964207665726966696560008201527f7220636f6e747261637400000000000000000000000000000000000000000000602082015250565b7f506f6c69637920646f6573206e6f74206578697374206f7220796f752061726560008201527f206e6f7420746865206f776e6572000000000000000000000000000000000000602082015250565b612f00816129df565b8114612f0b57600080fd5b50565b612f17816129f1565b8114612f2257600080fd5b50565b612f2e816129fd565b8114612f3957600080fd5b50565b612f4581612a27565b8114612f5057600080fd5b5056fea2646970667358221220a9796d5bfdbd686b3ba5d22b5b2153ef07207dbed4922dda25bab7d02910d49f64736f6c63430008040033",
  "linkReferences": {},
  "deployedLinkReferences": {}
}