{
  "_format": "hh-sol-artifact-1",
  "contractName": "ShwanSurksha",
  "sourceName": "contracts/ShwanSurksha.sol",
  "abi": [
    {
      "inputs": [],
      "stateMutability": "nonpayable",
      "type": "constructor"
    },
    {
      "anonymous": false,
      "inputs": [
        {
          "indexed": false,
          "internalType": "bytes32",
          "name": "policyId",
          "type": "bytes32"
        },
        {
          "indexed": false,
          "internalType": "address",
          "name": "owner",
          "type": "address"
        },
        {
          "indexed": false,
          "internalType": "uint256",
          "name": "premium",
          "type": "uint256"
        },
        {
          "indexed": false,
          "internalType": "uint256",
          "name": "payout",
          "type": "uint256"
        },
        {
          "indexed": false,
          "internalType": "uint256",
          "name": "startDate",
          "type": "uint256"
        },
        {
          "indexed": false,
          "internalType": "uint256",
          "name": "endDate",
          "type": "uint256"
        }
      ],
      "name": "PolicyAdded",
      "type": "event"
    },
    {
      "anonymous": false,
      "inputs": [
        {
          "indexed": true,
          "internalType": "bytes32",
          "name": "policyId",
          "type": "bytes32"
        },
        {
          "indexed": false,
          "internalType": "address",
          "name": "owner",
          "type": "address"
        },
        {
          "indexed": false,
          "internalType": "uint256",
          "name": "payout",
          "type": "uint256"
        }
      ],
      "name": "PolicyClaimed",
      "type": "event"
    },
    {
      "anonymous": false,
      "inputs": [
        {
          "indexed": true,
          "internalType": "bytes32",
          "name": "policyId",
          "type": "bytes32"
        },
        {
          "indexed": false,
          "internalType": "address",
          "name": "owner",
          "type": "address"
        },
        {
          "indexed": false,
          "internalType": "uint256",
          "name": "newEndDate",
          "type": "uint256"
        }
      ],
      "name": "PolicyUpdated",
      "type": "event"
    },
    {
      "anonymous": false,
      "inputs": [
        {
          "indexed": true,
          "internalType": "bytes32",
          "name": "policyId",
          "type": "bytes32"
        },
        {
          "indexed": false,
          "internalType": "address",
          "name": "owner",
          "type": "address"
        }
      ],
      "name": "policyCancelled",
      "type": "event"
    },
    {
      "inputs": [
        {
          "internalType": "string",
          "name": "_breed",
          "type": "string"
        },
        {
          "internalType": "uint256",
          "name": "_ageInMonths",
          "type": "uint256"
        },
        {
          "internalType": "string",
          "name": "_healthCondition",
          "type": "string"
        },
        {
          "internalType": "string",
          "name": "_region",
          "type": "string"
        },
        {
          "internalType": "string",
          "name": "_policyType",
          "type": "string"
        },
        {
          "internalType": "string",
          "name": "_ipfsHash",
          "type": "string"
        },
        {
          "internalType": "uint256",
          "name": "startDate",
          "type": "uint256"
        },
        {
          "internalType": "uint256",
          "name": "endDate",
          "type": "uint256"
        }
      ],
      "name": "addPolicy",
      "outputs": [],
      "stateMutability": "nonpayable",
      "type": "function"
    },
    {
      "inputs": [
        {
          "internalType": "bytes32",
          "name": "policyId",
          "type": "bytes32"
        }
      ],
      "name": "cancelPolicy",
      "outputs": [],
      "stateMutability": "nonpayable",
      "type": "function"
    },
    {
      "inputs": [
        {
          "internalType": "bytes32",
          "name": "policyId",
          "type": "bytes32"
        }
      ],
      "name": "claimPolicy",
      "outputs": [],
      "stateMutability": "nonpayable",
      "type": "function"
    },
    {
      "inputs": [
        {
          "internalType": "bytes32",
          "name": "policyId",
          "type": "bytes32"
        }
      ],
      "name": "fulfilThePolicyClaim",
      "outputs": [
        {
          "internalType": "bool",
          "name": "",
          "type": "bool"
        }
      ],
      "stateMutability": "nonpayable",
      "type": "function"
    },
    {
      "inputs": [
        {
          "internalType": "address",
          "name": "policyHolder",
          "type": "address"
        }
      ],
      "name": "getActivePoliciyOf",
      "outputs": [
        {
          "internalType": "bytes32[]",
          "name": "",
          "type": "bytes32[]"
        }
      ],
      "stateMutability": "view",
      "type": "function"
    },
    {
      "inputs": [
        {
          "internalType": "address",
          "name": "policyHolder",
          "type": "address"
        },
        {
          "internalType": "bytes32",
          "name": "policyId",
          "type": "bytes32"
        }
      ],
      "name": "getIsClaimable",
      "outputs": [
        {
          "internalType": "bool",
          "name": "",
          "type": "bool"
        }
      ],
      "stateMutability": "view",
      "type": "function"
    },
    {
      "inputs": [
        {
          "internalType": "bytes32",
          "name": "policyId",
          "type": "bytes32"
        }
      ],
      "name": "getPolicy",
      "outputs": [
        {
          "internalType": "address",
          "name": "owner",
          "type": "address"
        },
        {
          "internalType": "uint256",
          "name": "premium",
          "type": "uint256"
        },
        {
          "internalType": "uint256",
          "name": "payout",
          "type": "uint256"
        },
        {
          "internalType": "uint256",
          "name": "startDate",
          "type": "uint256"
        },
        {
          "internalType": "uint256",
          "name": "endDate",
          "type": "uint256"
        },
        {
          "internalType": "bool",
          "name": "claimed",
          "type": "bool"
        },
        {
          "internalType": "string",
          "name": "breed",
          "type": "string"
        },
        {
          "internalType": "uint256",
          "name": "ageInMonths",
          "type": "uint256"
        },
        {
          "internalType": "string",
          "name": "healthCondition",
          "type": "string"
        },
        {
          "internalType": "string",
          "name": "region",
          "type": "string"
        },
        {
          "internalType": "string",
          "name": "policyType",
          "type": "string"
        },
        {
          "internalType": "string",
          "name": "ipfsHash",
          "type": "string"
        }
      ],
      "stateMutability": "view",
      "type": "function"
    },
    {
      "inputs": [
        {
          "internalType": "address",
          "name": "policyHolder",
          "type": "address"
        }
      ],
      "name": "getPolicyToBeClaimed",
      "outputs": [
        {
          "internalType": "bytes32",
          "name": "",
          "type": "bytes32"
        }
      ],
      "stateMutability": "view",
      "type": "function"
    },
    {
      "inputs": [
        {
          "internalType": "address",
          "name": "",
          "type": "address"
        },
        {
          "internalType": "uint256",
          "name": "",
          "type": "uint256"
        }
      ],
      "name": "policyHolderToIDs",
      "outputs": [
        {
          "internalType": "bytes32",
          "name": "",
          "type": "bytes32"
        }
      ],
      "stateMutability": "view",
      "type": "function"
    },
    {
      "inputs": [
        {
          "internalType": "address",
          "name": "policyHolder",
          "type": "address"
        },
        {
          "internalType": "bytes32",
          "name": "policyId",
          "type": "bytes32"
        }
      ],
      "name": "setIsClaimable",
      "outputs": [],
      "stateMutability": "nonpayable",
      "type": "function"
    },
    {
      "inputs": [
        {
          "internalType": "address",
          "name": "_usdcTokenAddress",
          "type": "address"
        },
        {
          "internalType": "address",
          "name": "_premimumCalculator",
          "type": "address"
        },
        {
          "internalType": "address",
          "name": "_verifierContractAddress",
          "type": "address"
        }
      ],
      "name": "updateContractsAddress",
      "outputs": [],
      "stateMutability": "nonpayable",
      "type": "function"
    },
    {
      "inputs": [
        {
          "internalType": "bytes32",
          "name": "policyId",
          "type": "bytes32"
        },
        {
          "internalType": "uint256",
          "name": "newEndDate",
          "type": "uint256"
        }
      ],
      "name": "updatePolicy",
      "outputs": [],
      "stateMutability": "nonpayable",
      "type": "function"
    }
  ],
  "bytecode": "0x608060405234801561001057600080fd5b5033600760006101000a81548173ffffffffffffffffffffffffffffffffffffffff021916908373ffffffffffffffffffffffffffffffffffffffff160217905550613192806100616000396000f3fe608060405234801561001057600080fd5b50600436106100b45760003560e01c8063a86146d011610071578063a86146d0146101a8578063b134ea87146101c4578063cbfcf488146101f4578063dac2cb3814610224578063e8ca0e1514610240578063f62ec4d51461025c576100b4565b80632d39d786146100b95780635e727700146100d55780636d90d8ad146100f157806389a99dc91461010d5780638cc3953f1461013d578063a3f685f91461016d575b600080fd5b6100d360048036038101906100ce9190611ff7565b61028c565b005b6100ef60048036038101906100ea91906120e7565b6103e4565b005b61010b60048036038101906101069190612110565b61042b565b005b61012760048036038101906101229190611fce565b610561565b60405161013491906127db565b60405180910390f35b61015760048036038101906101529190612082565b610668565b6040516101649190612818565b60405180910390f35b610187600480360381019061018291906120e7565b610699565b60405161019f9c9b9a999897969594939291906126fe565b60405180910390f35b6101c260048036038101906101bd91906120e7565b610a9e565b005b6101de60048036038101906101d99190612046565b610e5b565b6040516101eb91906127fd565b60405180910390f35b61020e60048036038101906102099190611fce565b610ec3565b60405161021b9190612818565b60405180910390f35b61023e60048036038101906102399190612046565b610f7b565b005b61025a6004803603810190610255919061214c565b61107a565b005b610276600480360381019061027191906120e7565b611781565b60405161028391906127fd565b60405180910390f35b600760009054906101000a900473ffffffffffffffffffffffffffffffffffffffff1673ffffffffffffffffffffffffffffffffffffffff163373ffffffffffffffffffffffffffffffffffffffff161461031c576040517f08c379a000000000000000000000000000000000000000000000000000000000815260040161031390612a23565b60405180910390fd5b82600460006101000a81548173ffffffffffffffffffffffffffffffffffffffff021916908373ffffffffffffffffffffffffffffffffffffffff16021790555081600560006101000a81548173ffffffffffffffffffffffffffffffffffffffff021916908373ffffffffffffffffffffffffffffffffffffffff16021790555080600660006101000a81548173ffffffffffffffffffffffffffffffffffffffff021916908373ffffffffffffffffffffffffffffffffffffffff160217905550505050565b80600360003373ffffffffffffffffffffffffffffffffffffffff1673ffffffffffffffffffffffffffffffffffffffff1681526020019081526020016000208190555050565b600080600084815260200190815260200160002090503373ffffffffffffffffffffffffffffffffffffffff168160000160009054906101000a900473ffffffffffffffffffffffffffffffffffffffff1673ffffffffffffffffffffffffffffffffffffffff16146104d3576040517f08c379a00000000000000000000000000000000000000000000000000000000081526004016104ca90612ac3565b60405180910390fd5b80600401548211610519576040517f08c379a000000000000000000000000000000000000000000000000000000000815260040161051090612963565b60405180910390fd5b818160040181905550827f4796626372633c5d33077ba956a4f0c5e8574bcdfee92d39537c1e9e7089dac533846040516105549291906126d5565b60405180910390a2505050565b6060600073ffffffffffffffffffffffffffffffffffffffff168273ffffffffffffffffffffffffffffffffffffffff1614156105d3576040517f08c379a00000000000000000000000000000000000000000000000000000000081526004016105ca906129c3565b60405180910390fd5b600160008373ffffffffffffffffffffffffffffffffffffffff1673ffffffffffffffffffffffffffffffffffffffff16815260200190815260200160002080548060200260200160405190810160405280929190818152602001828054801561065c57602002820191906000526020600020905b815481526020019060010190808311610648575b50505050509050919050565b6001602052816000526040600020818154811061068457600080fd5b90600052602060002001600091509150505481565b6000806000806000806060600060608060608060008060008f81526020019081526020016000209050600073ffffffffffffffffffffffffffffffffffffffff168160000160009054906101000a900473ffffffffffffffffffffffffffffffffffffffff1673ffffffffffffffffffffffffffffffffffffffff161415610756576040517f08c379a000000000000000000000000000000000000000000000000000000000815260040161074d90612a03565b60405180910390fd5b8060000160009054906101000a900473ffffffffffffffffffffffffffffffffffffffff1681600101548260020154836003015484600401548560050160009054906101000a900460ff1686600601876007015488600801896009018a600a018b600b018580546107c690612c7c565b80601f01602080910402602001604051908101604052809291908181526020018280546107f290612c7c565b801561083f5780601f106108145761010080835404028352916020019161083f565b820191906000526020600020905b81548152906001019060200180831161082257829003601f168201915b5050505050955083805461085290612c7c565b80601f016020809104026020016040519081016040528092919081815260200182805461087e90612c7c565b80156108cb5780601f106108a0576101008083540402835291602001916108cb565b820191906000526020600020905b8154815290600101906020018083116108ae57829003601f168201915b505050505093508280546108de90612c7c565b80601f016020809104026020016040519081016040528092919081815260200182805461090a90612c7c565b80156109575780601f1061092c57610100808354040283529160200191610957565b820191906000526020600020905b81548152906001019060200180831161093a57829003601f168201915b5050505050925081805461096a90612c7c565b80601f016020809104026020016040519081016040528092919081815260200182805461099690612c7c565b80156109e35780601f106109b8576101008083540402835291602001916109e3565b820191906000526020600020905b8154815290600101906020018083116109c657829003601f168201915b505050505091508080546109f690612c7c565b80601f0160208091040260200160405190810160405280929190818152602001828054610a2290612c7c565b8015610a6f5780601f10610a4457610100808354040283529160200191610a6f565b820191906000526020600020905b815481529060010190602001808311610a5257829003601f168201915b505050505090509c509c509c509c509c509c509c509c509c509c509c509c505091939597999b5091939597999b565b60008060008381526020019081526020016000209050600073ffffffffffffffffffffffffffffffffffffffff168160000160009054906101000a900473ffffffffffffffffffffffffffffffffffffffff1673ffffffffffffffffffffffffffffffffffffffff161415610b48576040517f08c379a0000000000000000000000000000000000000000000000000000000008152600401610b3f90612a03565b60405180910390fd5b8060050160009054906101000a900460ff1615610b9a576040517f08c379a0000000000000000000000000000000000000000000000000000000008152600401610b9190612a43565b60405180910390fd5b806003015442118015610bb05750806004015442105b610bef576040517f08c379a0000000000000000000000000000000000000000000000000000000008152600401610be6906129e3565b60405180910390fd5b600460009054906101000a900473ffffffffffffffffffffffffffffffffffffffff1673ffffffffffffffffffffffffffffffffffffffff1663a9059cbb8260000160009054906101000a900473ffffffffffffffffffffffffffffffffffffffff1683600101546040518363ffffffff1660e01b8152600401610c749291906126d5565b602060405180830381600087803b158015610c8e57600080fd5b505af1158015610ca2573d6000803e3d6000fd5b505050506040513d601f19601f82011682018060405250810190610cc691906120be565b610d05576040517f08c379a0000000000000000000000000000000000000000000000000000000008152600401610cfc90612903565b60405180910390fd5b600080838152602001908152602001600020600080820160006101000a81549073ffffffffffffffffffffffffffffffffffffffff021916905560018201600090556002820160009055600382016000905560048201600090556005820160006101000a81549060ff0219169055600682016000610d839190611e1a565b6007820160009055600882016000610d9b9190611e1a565b600982016000610dab9190611e1a565b600a82016000610dbb9190611e1a565b600b82016000610dcb9190611e1a565b5050610dfb8160000160009054906101000a900473ffffffffffffffffffffffffffffffffffffffff1683611c77565b817fde0f0d249e66654c1f701669d7dfefe48e7e3e8f53d0759a3ed35955e209f07a8260000160009054906101000a900473ffffffffffffffffffffffffffffffffffffffff16604051610e4f9190612683565b60405180910390a25050565b6000600260008473ffffffffffffffffffffffffffffffffffffffff1673ffffffffffffffffffffffffffffffffffffffff168152602001908152602001600020600083815260200190815260200160002060009054906101000a900460ff16905092915050565b60008073ffffffffffffffffffffffffffffffffffffffff168273ffffffffffffffffffffffffffffffffffffffff161415610f34576040517f08c379a0000000000000000000000000000000000000000000000000000000008152600401610f2b906129c3565b60405180910390fd5b600360008373ffffffffffffffffffffffffffffffffffffffff1673ffffffffffffffffffffffffffffffffffffffff168152602001908152602001600020549050919050565b33600660009054906101000a900473ffffffffffffffffffffffffffffffffffffffff1673ffffffffffffffffffffffffffffffffffffffff168173ffffffffffffffffffffffffffffffffffffffff161461100c576040517f08c379a000000000000000000000000000000000000000000000000000000000815260040161100390612aa3565b60405180910390fd5b6001600260008573ffffffffffffffffffffffffffffffffffffffff1673ffffffffffffffffffffffffffffffffffffffff168152602001908152602001600020600084815260200190815260200160002060006101000a81548160ff021916908315150217905550505050565b600033428a8a8a8a8a8a60405160200161109b989796959493929190612605565b604051602081830303815290604052805190602001209050600073ffffffffffffffffffffffffffffffffffffffff1660008083815260200190815260200160002060000160009054906101000a900473ffffffffffffffffffffffffffffffffffffffff1673ffffffffffffffffffffffffffffffffffffffff1614611157576040517f08c379a000000000000000000000000000000000000000000000000000000000815260040161114e90612a83565b60405180910390fd5b428311611199576040517f08c379a000000000000000000000000000000000000000000000000000000000815260040161119090612983565b60405180910390fd5b8282116111db576040517f08c379a00000000000000000000000000000000000000000000000000000000081526004016111d290612a63565b60405180910390fd5b6000600560009054906101000a900473ffffffffffffffffffffffffffffffffffffffff1673ffffffffffffffffffffffffffffffffffffffff1663799d972e8b8b8b8b8b6040518663ffffffff1660e01b8152600401611240959493929190612894565b60206040518083038186803b15801561125857600080fd5b505afa15801561126c573d6000803e3d6000fd5b505050506040513d601f19601f820116820180604052508101906112909190612276565b90506000600560009054906101000a900473ffffffffffffffffffffffffffffffffffffffff1673ffffffffffffffffffffffffffffffffffffffff16633bb91c77836040518263ffffffff1660e01b81526004016112ef9190612ae3565b60206040518083038186803b15801561130757600080fd5b505afa15801561131b573d6000803e3d6000fd5b505050506040513d601f19601f8201168201806040525081019061133f9190612276565b9050600460009054906101000a900473ffffffffffffffffffffffffffffffffffffffff1673ffffffffffffffffffffffffffffffffffffffff1663095ea7b330846040518363ffffffff1660e01b815260040161139e9291906126d5565b602060405180830381600087803b1580156113b857600080fd5b505af11580156113cc573d6000803e3d6000fd5b505050506040513d601f19601f820116820180604052508101906113f091906120be565b61142f576040517f08c379a000000000000000000000000000000000000000000000000000000000815260040161142690612923565b60405180910390fd5b600460009054906101000a900473ffffffffffffffffffffffffffffffffffffffff1673ffffffffffffffffffffffffffffffffffffffff166323b872dd3330856040518463ffffffff1660e01b815260040161148e9392919061269e565b602060405180830381600087803b1580156114a857600080fd5b505af11580156114bc573d6000803e3d6000fd5b505050506040513d601f19601f820116820180604052508101906114e091906120be565b61151f576040517f08c379a000000000000000000000000000000000000000000000000000000000815260040161151690612903565b60405180910390fd5b6040518061018001604052803373ffffffffffffffffffffffffffffffffffffffff1681526020018381526020018281526020018681526020018581526020016000151581526020018c81526020018b81526020018a81526020018981526020018881526020018781525060008085815260200190815260200160002060008201518160000160006101000a81548173ffffffffffffffffffffffffffffffffffffffff021916908373ffffffffffffffffffffffffffffffffffffffff1602179055506020820151816001015560408201518160020155606082015181600301556080820151816004015560a08201518160050160006101000a81548160ff02191690831515021790555060c0820151816006019080519060200190611647929190611e5a565b5060e0820151816007015561010082015181600801908051906020019061166f929190611e5a565b5061012082015181600901908051906020019061168d929190611e5a565b5061014082015181600a0190805190602001906116ab929190611e5a565b5061016082015181600b0190805190602001906116c9929190611e5a565b50905050600160003373ffffffffffffffffffffffffffffffffffffffff1673ffffffffffffffffffffffffffffffffffffffff1681526020019081526020016000208390806001815401808255809150506001900390600052602060002001600090919091909150557f7e2b2216d4b67abfef5180ab39597e56662221d6f96fb24e1820f4bf839e946f83338484898960405161176c96959493929190612833565b60405180910390a15050505050505050505050565b600033600660009054906101000a900473ffffffffffffffffffffffffffffffffffffffff1673ffffffffffffffffffffffffffffffffffffffff168173ffffffffffffffffffffffffffffffffffffffff1614611814576040517f08c379a000000000000000000000000000000000000000000000000000000000815260040161180b90612aa3565b60405180910390fd5b60008060008581526020019081526020016000209050600260008260000160009054906101000a900473ffffffffffffffffffffffffffffffffffffffff1673ffffffffffffffffffffffffffffffffffffffff1673ffffffffffffffffffffffffffffffffffffffff168152602001908152602001600020600085815260200190815260200160002060009054906101000a900460ff166118eb576040517f08c379a00000000000000000000000000000000000000000000000000000000081526004016118e2906129a3565b60405180910390fd5b600073ffffffffffffffffffffffffffffffffffffffff168160000160009054906101000a900473ffffffffffffffffffffffffffffffffffffffff1673ffffffffffffffffffffffffffffffffffffffff161415801561199b57503373ffffffffffffffffffffffffffffffffffffffff168160000160009054906101000a900473ffffffffffffffffffffffffffffffffffffffff1673ffffffffffffffffffffffffffffffffffffffff16145b6119da576040517f08c379a00000000000000000000000000000000000000000000000000000000081526004016119d190612a03565b60405180910390fd5b8060050160009054906101000a900460ff1615611a2c576040517f08c379a0000000000000000000000000000000000000000000000000000000008152600401611a2390612a43565b60405180910390fd5b80600301544211611a72576040517f08c379a0000000000000000000000000000000000000000000000000000000008152600401611a6990612943565b60405180910390fd5b60018160050160006101000a81548160ff0219169083151502179055506000600460009054906101000a900473ffffffffffffffffffffffffffffffffffffffff1673ffffffffffffffffffffffffffffffffffffffff1663a9059cbb8360000160009054906101000a900473ffffffffffffffffffffffffffffffffffffffff1684600201546040518363ffffffff1660e01b8152600401611b169291906126d5565b602060405180830381600087803b158015611b3057600080fd5b505af1158015611b44573d6000803e3d6000fd5b505050506040513d601f19601f82011682018060405250810190611b6891906120be565b90508015611c6a576000600260008460000160009054906101000a900473ffffffffffffffffffffffffffffffffffffffff1673ffffffffffffffffffffffffffffffffffffffff1673ffffffffffffffffffffffffffffffffffffffff168152602001908152602001600020600087815260200190815260200160002060006101000a81548160ff021916908315150217905550847ffc2e5a4f14afb617147f5e5e83d18cf2c49c2e8d308425798d2c75b429ff555b8360000160009054906101000a900473ffffffffffffffffffffffffffffffffffffffff168460020154604051611c579291906126d5565b60405180910390a2600193505050611c71565b6000935050505b50919050565b6000600160008473ffffffffffffffffffffffffffffffffffffffff1673ffffffffffffffffffffffffffffffffffffffff168152602001908152602001600020905060005b8180549050811015611e145782828281548110611d03577f4e487b7100000000000000000000000000000000000000000000000000000000600052603260045260246000fd5b90600052602060002001541415611e01578160018380549050611d269190612bb4565b81548110611d5d577f4e487b7100000000000000000000000000000000000000000000000000000000600052603260045260246000fd5b9060005260206000200154828281548110611da1577f4e487b7100000000000000000000000000000000000000000000000000000000600052603260045260246000fd5b906000526020600020018190555081805480611de6577f4e487b7100000000000000000000000000000000000000000000000000000000600052603160045260246000fd5b60019003818190600052602060002001600090559055611e14565b8080611e0c90612cdf565b915050611cbd565b50505050565b508054611e2690612c7c565b6000825580601f10611e385750611e57565b601f016020900490600052602060002090810190611e569190611ee0565b5b50565b828054611e6690612c7c565b90600052602060002090601f016020900481019282611e885760008555611ecf565b82601f10611ea157805160ff1916838001178555611ecf565b82800160010185558215611ecf579182015b82811115611ece578251825591602001919060010190611eb3565b5b509050611edc9190611ee0565b5090565b5b80821115611ef9576000816000905550600101611ee1565b5090565b6000611f10611f0b84612b23565b612afe565b905082815260208101848484011115611f2857600080fd5b611f33848285612c3a565b509392505050565b600081359050611f4a81613100565b92915050565b600081519050611f5f81613117565b92915050565b600081359050611f748161312e565b92915050565b600082601f830112611f8b57600080fd5b8135611f9b848260208601611efd565b91505092915050565b600081359050611fb381613145565b92915050565b600081519050611fc881613145565b92915050565b600060208284031215611fe057600080fd5b6000611fee84828501611f3b565b91505092915050565b60008060006060848603121561200c57600080fd5b600061201a86828701611f3b565b935050602061202b86828701611f3b565b925050604061203c86828701611f3b565b9150509250925092565b6000806040838503121561205957600080fd5b600061206785828601611f3b565b925050602061207885828601611f65565b9150509250929050565b6000806040838503121561209557600080fd5b60006120a385828601611f3b565b92505060206120b485828601611fa4565b9150509250929050565b6000602082840312156120d057600080fd5b60006120de84828501611f50565b91505092915050565b6000602082840312156120f957600080fd5b600061210784828501611f65565b91505092915050565b6000806040838503121561212357600080fd5b600061213185828601611f65565b925050602061214285828601611fa4565b9150509250929050565b600080600080600080600080610100898b03121561216957600080fd5b600089013567ffffffffffffffff81111561218357600080fd5b61218f8b828c01611f7a565b98505060206121a08b828c01611fa4565b975050604089013567ffffffffffffffff8111156121bd57600080fd5b6121c98b828c01611f7a565b965050606089013567ffffffffffffffff8111156121e657600080fd5b6121f28b828c01611f7a565b955050608089013567ffffffffffffffff81111561220f57600080fd5b61221b8b828c01611f7a565b94505060a089013567ffffffffffffffff81111561223857600080fd5b6122448b828c01611f7a565b93505060c06122558b828c01611fa4565b92505060e06122668b828c01611fa4565b9150509295985092959890939650565b60006020828403121561228857600080fd5b600061229684828501611fb9565b91505092915050565b60006122ab838361234a565b60208301905092915050565b6122c081612be8565b82525050565b6122d76122d282612be8565b612d28565b82525050565b60006122e882612b64565b6122f28185612b87565b93506122fd83612b54565b8060005b8381101561232e578151612315888261229f565b975061232083612b7a565b925050600181019050612301565b5085935050505092915050565b61234481612bfa565b82525050565b61235381612c06565b82525050565b61236281612c06565b82525050565b600061237382612b6f565b61237d8185612b98565b935061238d818560208601612c49565b61239681612de3565b840191505092915050565b60006123ac82612b6f565b6123b68185612ba9565b93506123c6818560208601612c49565b80840191505092915050565b60006123df601483612b98565b91506123ea82612e01565b602082019050919050565b6000612402601483612b98565b915061240d82612e2a565b602082019050919050565b6000612425601a83612b98565b915061243082612e53565b602082019050919050565b6000612448602b83612b98565b915061245382612e7c565b604082019050919050565b600061246b601283612b98565b915061247682612ecb565b602082019050919050565b600061248e601283612b98565b915061249982612ef4565b602082019050919050565b60006124b1601c83612b98565b91506124bc82612f1d565b602082019050919050565b60006124d4601d83612b98565b91506124df82612f46565b602082019050919050565b60006124f7601583612b98565b915061250282612f6f565b602082019050919050565b600061251a602283612b98565b915061252582612f98565b604082019050919050565b600061253d601f83612b98565b915061254882612fe7565b602082019050919050565b6000612560601083612b98565b915061256b82613010565b602082019050919050565b6000612583601583612b98565b915061258e82613039565b602082019050919050565b60006125a6602a83612b98565b91506125b182613062565b604082019050919050565b60006125c9602e83612b98565b91506125d4826130b1565b604082019050919050565b6125e881612c30565b82525050565b6125ff6125fa82612c30565b612d4c565b82525050565b6000612611828b6122c6565b601482019150612621828a6125ee565b60208201915061263182896123a1565b915061263d82886125ee565b60208201915061264d82876123a1565b915061265982866123a1565b915061266582856123a1565b915061267182846123a1565b91508190509998505050505050505050565b600060208201905061269860008301846122b7565b92915050565b60006060820190506126b360008301866122b7565b6126c060208301856122b7565b6126cd60408301846125df565b949350505050565b60006040820190506126ea60008301856122b7565b6126f760208301846125df565b9392505050565b600061018082019050612714600083018f6122b7565b612721602083018e6125df565b61272e604083018d6125df565b61273b606083018c6125df565b612748608083018b6125df565b61275560a083018a61233b565b81810360c08301526127678189612368565b905061277660e08301886125df565b8181036101008301526127898187612368565b905081810361012083015261279e8186612368565b90508181036101408301526127b38185612368565b90508181036101608301526127c88184612368565b90509d9c50505050505050505050505050565b600060208201905081810360008301526127f581846122dd565b905092915050565b6000602082019050612812600083018461233b565b92915050565b600060208201905061282d6000830184612359565b92915050565b600060c0820190506128486000830189612359565b61285560208301886122b7565b61286260408301876125df565b61286f60608301866125df565b61287c60808301856125df565b61288960a08301846125df565b979650505050505050565b600060a08201905081810360008301526128ae8188612368565b90506128bd60208301876125df565b81810360408301526128cf8186612368565b905081810360608301526128e38185612368565b905081810360808301526128f78184612368565b90509695505050505050565b6000602082019050818103600083015261291c816123d2565b9050919050565b6000602082019050818103600083015261293c816123f5565b9050919050565b6000602082019050818103600083015261295c81612418565b9050919050565b6000602082019050818103600083015261297c8161243b565b9050919050565b6000602082019050818103600083015261299c8161245e565b9050919050565b600060208201905081810360008301526129bc81612481565b9050919050565b600060208201905081810360008301526129dc816124a4565b9050919050565b600060208201905081810360008301526129fc816124c7565b9050919050565b60006020820190508181036000830152612a1c816124ea565b9050919050565b60006020820190508181036000830152612a3c8161250d565b9050919050565b60006020820190508181036000830152612a5c81612530565b9050919050565b60006020820190508181036000830152612a7c81612553565b9050919050565b60006020820190508181036000830152612a9c81612576565b9050919050565b60006020820190508181036000830152612abc81612599565b9050919050565b60006020820190508181036000830152612adc816125bc565b9050919050565b6000602082019050612af860008301846125df565b92915050565b6000612b08612b19565b9050612b148282612cae565b919050565b6000604051905090565b600067ffffffffffffffff821115612b3e57612b3d612db4565b5b612b4782612de3565b9050602081019050919050565b6000819050602082019050919050565b600081519050919050565b600081519050919050565b6000602082019050919050565b600082825260208201905092915050565b600082825260208201905092915050565b600081905092915050565b6000612bbf82612c30565b9150612bca83612c30565b925082821015612bdd57612bdc612d56565b5b828203905092915050565b6000612bf382612c10565b9050919050565b60008115159050919050565b6000819050919050565b600073ffffffffffffffffffffffffffffffffffffffff82169050919050565b6000819050919050565b82818337600083830152505050565b60005b83811015612c67578082015181840152602081019050612c4c565b83811115612c76576000848401525b50505050565b60006002820490506001821680612c9457607f821691505b60208210811415612ca857612ca7612d85565b5b50919050565b612cb782612de3565b810181811067ffffffffffffffff82111715612cd657612cd5612db4565b5b80604052505050565b6000612cea82612c30565b91507fffffffffffffffffffffffffffffffffffffffffffffffffffffffffffffffff821415612d1d57612d1c612d56565b5b600182019050919050565b6000612d3382612d3a565b9050919050565b6000612d4582612df4565b9050919050565b6000819050919050565b7f4e487b7100000000000000000000000000000000000000000000000000000000600052601160045260246000fd5b7f4e487b7100000000000000000000000000000000000000000000000000000000600052602260045260246000fd5b7f4e487b7100000000000000000000000000000000000000000000000000000000600052604160045260246000fd5b6000601f19601f8301169050919050565b60008160601b9050919050565b7f55534443207472616e73666572206661696c6564000000000000000000000000600082015250565b7f5553444320617070726f76616c206661696c6564000000000000000000000000600082015250565b7f506f6c69637920686173206e6f74206578706972656420796574000000000000600082015250565b7f4e657720656e642064617465206d75737420626520616674657220637572726560008201527f6e7420656e642064617465000000000000000000000000000000000000000000602082015250565b7f496e76616c696420737461727420646174650000000000000000000000000000600082015250565b7f56657269667920636c61696d2066697273740000000000000000000000000000600082015250565b7f496e76616c696420706f6c696379486f6c646572206164647265737300000000600082015250565b7f596f752063616e206f6e6c7920636c61696d2074686520706f6c696379000000600082015250565b7f506f6c69637920646f6573206e6f742065786973740000000000000000000000600082015250565b7f4f6e6c792061646d696e2063616e20706572666f726d2074686973206163746960008201527f6f6e000000000000000000000000000000000000000000000000000000000000602082015250565b7f506f6c6963792068617320616c7265616479206265656e20636c61696d656400600082015250565b7f496e76616c696420656e64206461746500000000000000000000000000000000600082015250565b7f506f6c69637920616c7265616479206578697374730000000000000000000000600082015250565b7f43616c6c6572206d75737420626520706f6c79676f6e4964207665726966696560008201527f7220636f6e747261637400000000000000000000000000000000000000000000602082015250565b7f506f6c69637920646f6573206e6f74206578697374206f7220796f752061726560008201527f206e6f7420746865206f776e6572000000000000000000000000000000000000602082015250565b61310981612be8565b811461311457600080fd5b50565b61312081612bfa565b811461312b57600080fd5b50565b61313781612c06565b811461314257600080fd5b50565b61314e81612c30565b811461315957600080fd5b5056fea2646970667358221220bd69f877ad1c3ca4e226fbd739c93ccbe044ba6ec2c66ff16862f5244a2ae59664736f6c63430008040033",
  "linkReferences": {},
  "deployedLinkReferences": {}
}