{
  "_format": "hh-sol-artifact-1",
  "contractName": "SwhanSurkshaClaimVerifier",
  "sourceName": "contracts/SwhanSurkshaClaimVerifier.sol",
  "abi": [
    {
      "inputs": [
        {
          "internalType": "address",
          "name": "_shwanSurkshaAddr",
          "type": "address"
        }
      ],
      "stateMutability": "nonpayable",
      "type": "constructor"
    },
    {
      "anonymous": false,
      "inputs": [
        {
          "indexed": false,
          "internalType": "address",
          "name": "policyHolder",
          "type": "address"
        },
        {
          "indexed": false,
          "internalType": "bytes32",
          "name": "policyId",
          "type": "bytes32"
        }
      ],
      "name": "ClaimFailed",
      "type": "event"
    },
    {
      "anonymous": false,
      "inputs": [
        {
          "indexed": true,
          "internalType": "address",
          "name": "previousOwner",
          "type": "address"
        },
        {
          "indexed": true,
          "internalType": "address",
          "name": "newOwner",
          "type": "address"
        }
      ],
      "name": "OwnershipTransferred",
      "type": "event"
    },
    {
      "inputs": [],
      "name": "TRANSFER_REQUEST_ID",
      "outputs": [
        {
          "internalType": "uint64",
          "name": "",
          "type": "uint64"
        }
      ],
      "stateMutability": "view",
      "type": "function"
    },
    {
      "inputs": [
        {
          "internalType": "address",
          "name": "",
          "type": "address"
        }
      ],
      "name": "addressToId",
      "outputs": [
        {
          "internalType": "uint256",
          "name": "",
          "type": "uint256"
        }
      ],
      "stateMutability": "view",
      "type": "function"
    },
    {
      "inputs": [],
      "name": "getSupportedRequests",
      "outputs": [
        {
          "internalType": "uint64[]",
          "name": "arr",
          "type": "uint64[]"
        }
      ],
      "stateMutability": "view",
      "type": "function"
    },
    {
      "inputs": [
        {
          "internalType": "uint64",
          "name": "requestId",
          "type": "uint64"
        }
      ],
      "name": "getZKPRequest",
      "outputs": [
        {
          "components": [
            {
              "internalType": "uint256",
              "name": "schema",
              "type": "uint256"
            },
            {
              "internalType": "uint256",
              "name": "slotIndex",
              "type": "uint256"
            },
            {
              "internalType": "uint256",
              "name": "operator",
              "type": "uint256"
            },
            {
              "internalType": "uint256[]",
              "name": "value",
              "type": "uint256[]"
            },
            {
              "internalType": "string",
              "name": "circuitId",
              "type": "string"
            }
          ],
          "internalType": "struct ICircuitValidator.CircuitQuery",
          "name": "",
          "type": "tuple"
        }
      ],
      "stateMutability": "view",
      "type": "function"
    },
    {
      "inputs": [
        {
          "internalType": "uint256",
          "name": "",
          "type": "uint256"
        }
      ],
      "name": "idToAddress",
      "outputs": [
        {
          "internalType": "address",
          "name": "",
          "type": "address"
        }
      ],
      "stateMutability": "view",
      "type": "function"
    },
    {
      "inputs": [],
      "name": "owner",
      "outputs": [
        {
          "internalType": "address",
          "name": "",
          "type": "address"
        }
      ],
      "stateMutability": "view",
      "type": "function"
    },
    {
      "inputs": [
        {
          "internalType": "address",
          "name": "",
          "type": "address"
        },
        {
          "internalType": "uint64",
          "name": "",
          "type": "uint64"
        }
      ],
      "name": "proofs",
      "outputs": [
        {
          "internalType": "bool",
          "name": "",
          "type": "bool"
        }
      ],
      "stateMutability": "view",
      "type": "function"
    },
    {
      "inputs": [],
      "name": "renounceOwnership",
      "outputs": [],
      "stateMutability": "nonpayable",
      "type": "function"
    },
    {
      "inputs": [
        {
          "internalType": "uint64",
          "name": "",
          "type": "uint64"
        }
      ],
      "name": "requestQueries",
      "outputs": [
        {
          "internalType": "uint256",
          "name": "schema",
          "type": "uint256"
        },
        {
          "internalType": "uint256",
          "name": "slotIndex",
          "type": "uint256"
        },
        {
          "internalType": "uint256",
          "name": "operator",
          "type": "uint256"
        },
        {
          "internalType": "string",
          "name": "circuitId",
          "type": "string"
        }
      ],
      "stateMutability": "view",
      "type": "function"
    },
    {
      "inputs": [
        {
          "internalType": "uint64",
          "name": "",
          "type": "uint64"
        }
      ],
      "name": "requestValidators",
      "outputs": [
        {
          "internalType": "contract ICircuitValidator",
          "name": "",
          "type": "address"
        }
      ],
      "stateMutability": "view",
      "type": "function"
    },
    {
      "inputs": [
        {
          "internalType": "uint64",
          "name": "requestId",
          "type": "uint64"
        },
        {
          "internalType": "contract ICircuitValidator",
          "name": "validator",
          "type": "address"
        },
        {
          "components": [
            {
              "internalType": "uint256",
              "name": "schema",
              "type": "uint256"
            },
            {
              "internalType": "uint256",
              "name": "slotIndex",
              "type": "uint256"
            },
            {
              "internalType": "uint256",
              "name": "operator",
              "type": "uint256"
            },
            {
              "internalType": "uint256[]",
              "name": "value",
              "type": "uint256[]"
            },
            {
              "internalType": "string",
              "name": "circuitId",
              "type": "string"
            }
          ],
          "internalType": "struct ICircuitValidator.CircuitQuery",
          "name": "query",
          "type": "tuple"
        }
      ],
      "name": "setZKPRequest",
      "outputs": [
        {
          "internalType": "bool",
          "name": "",
          "type": "bool"
        }
      ],
      "stateMutability": "nonpayable",
      "type": "function"
    },
    {
      "inputs": [],
      "name": "shwanSurksha",
      "outputs": [
        {
          "internalType": "contract IShwanSurksha",
          "name": "",
          "type": "address"
        }
      ],
      "stateMutability": "view",
      "type": "function"
    },
    {
      "inputs": [
        {
          "internalType": "uint64",
          "name": "requestId",
          "type": "uint64"
        },
        {
          "internalType": "uint256[]",
          "name": "inputs",
          "type": "uint256[]"
        },
        {
          "internalType": "uint256[2]",
          "name": "a",
          "type": "uint256[2]"
        },
        {
          "internalType": "uint256[2][2]",
          "name": "b",
          "type": "uint256[2][2]"
        },
        {
          "internalType": "uint256[2]",
          "name": "c",
          "type": "uint256[2]"
        }
      ],
      "name": "submitZKPResponse",
      "outputs": [
        {
          "internalType": "bool",
          "name": "",
          "type": "bool"
        }
      ],
      "stateMutability": "nonpayable",
      "type": "function"
    },
    {
      "inputs": [
        {
          "internalType": "uint256",
          "name": "",
          "type": "uint256"
        }
      ],
      "name": "supportedRequests",
      "outputs": [
        {
          "internalType": "uint64",
          "name": "",
          "type": "uint64"
        }
      ],
      "stateMutability": "view",
      "type": "function"
    },
    {
      "inputs": [
        {
          "internalType": "address",
          "name": "newOwner",
          "type": "address"
        }
      ],
      "name": "transferOwnership",
      "outputs": [],
      "stateMutability": "nonpayable",
      "type": "function"
    }
  ],
  "bytecode": "0x60806040523480156200001157600080fd5b506040516200316738038062003167833981810160405281019062000037919062000182565b620000576200004b6200009f60201b60201c565b620000a760201b60201c565b80600560006101000a81548173ffffffffffffffffffffffffffffffffffffffff021916908373ffffffffffffffffffffffffffffffffffffffff16021790555050620001fc565b600033905090565b60008060009054906101000a900473ffffffffffffffffffffffffffffffffffffffff169050816000806101000a81548173ffffffffffffffffffffffffffffffffffffffff021916908373ffffffffffffffffffffffffffffffffffffffff1602179055508173ffffffffffffffffffffffffffffffffffffffff168173ffffffffffffffffffffffffffffffffffffffff167f8be0079c531659141344cd1fd0a4f28419497f9722a3daafe3b4186f6b6457e060405160405180910390a35050565b6000815190506200017c81620001e2565b92915050565b6000602082840312156200019557600080fd5b6000620001a5848285016200016b565b91505092915050565b6000620001bb82620001c2565b9050919050565b600073ffffffffffffffffffffffffffffffffffffffff82169050919050565b620001ed81620001ae565b8114620001f957600080fd5b50565b612f5b806200020c6000396000f3fe608060405234801561001057600080fd5b50600436106100f55760003560e01c8063a872311411610097578063cb0e0d7d11610066578063cb0e0d7d1461029f578063f1435326146102cf578063f2fde38b146102ff578063fee207e61461031b576100f5565b8063a8723114146101df578063b45c0fdf1461020f578063b68967e21461023f578063c76d08451461026f576100f5565b806363ec508f116100d357806363ec508f14610166578063715018a6146101845780638da5cb5b1461018e57806396bf4741146101ac576100f5565b80632a2d0c47146100fa57806337ba95231461012a5780633e305d0714610148575b600080fd5b610114600480360381019061010f9190611d48565b61034b565b6040516101219190612533565b60405180910390f35b61013261037e565b60405161013f91906125da565b60405180910390f35b61015061040a565b60405161015d919061264d565b60405180910390f35b61016e610430565b60405161017b91906127f1565b60405180910390f35b61018c610435565b005b610196610449565b6040516101a39190612533565b60405180910390f35b6101c660048036038101906101c19190611d9a565b610472565b6040516101d694939291906127a5565b60405180910390f35b6101f960048036038101906101f49190611d9a565b61052a565b6040516102069190612632565b60405180910390f35b61022960048036038101906102249190611cba565b61055d565b60405161023691906125fc565b60405180910390f35b61025960048036038101906102549190611dc3565b61058c565b60405161026691906125fc565b60405180910390f35b61028960048036038101906102849190611d9a565b61091c565b6040516102969190612768565b60405180910390f35b6102b960048036038101906102b49190611c91565b610a65565b6040516102c6919061278a565b60405180910390f35b6102e960048036038101906102e49190611d48565b610a7d565b6040516102f691906127f1565b60405180910390f35b61031960048036038101906103149190611c91565b610abb565b005b61033560048036038101906103309190611e54565b610b3f565b60405161034291906125fc565b60405180910390f35b60066020528060005260406000206000915054906101000a900473ffffffffffffffffffffffffffffffffffffffff1681565b6060600480548060200260200160405190810160405280929190818152602001828054801561040057602002820191906000526020600020906000905b82829054906101000a900467ffffffffffffffff1667ffffffffffffffff16815260200190600801906020826007010492830192600103820291508084116103bb5790505b5050505050905090565b600560009054906101000a900473ffffffffffffffffffffffffffffffffffffffff1681565b600181565b61043d610def565b6104476000610e6d565b565b60008060009054906101000a900473ffffffffffffffffffffffffffffffffffffffff16905090565b60026020528060005260406000206000915090508060000154908060010154908060020154908060040180546104a790612b3d565b80601f01602080910402602001604051908101604052809291908181526020018280546104d390612b3d565b80156105205780601f106104f557610100808354040283529160200191610520565b820191906000526020600020905b81548152906001019060200180831161050357829003601f168201915b5050505050905084565b60036020528060005260406000206000915054906101000a900473ffffffffffffffffffffffffffffffffffffffff1681565b60016020528160005260406000206020528060005260406000206000915091509054906101000a900460ff1681565b60008073ffffffffffffffffffffffffffffffffffffffff16600360008867ffffffffffffffff1667ffffffffffffffff16815260200190815260200160002060009054906101000a900473ffffffffffffffffffffffffffffffffffffffff1673ffffffffffffffffffffffffffffffffffffffff161415610644576040517f08c379a000000000000000000000000000000000000000000000000000000000815260040161063b90612708565b60405180910390fd5b6000600260008867ffffffffffffffff1667ffffffffffffffff1681526020019081526020016000206000015414156106b2576040517f08c379a00000000000000000000000000000000000000000000000000000000081526004016106a990612748565b60405180910390fd5b6107048686600360008a67ffffffffffffffff1667ffffffffffffffff16815260200190815260200160002060009054906101000a900473ffffffffffffffffffffffffffffffffffffffff16610f31565b600360008767ffffffffffffffff1667ffffffffffffffff16815260200190815260200160002060009054906101000a900473ffffffffffffffffffffffffffffffffffffffff1673ffffffffffffffffffffffffffffffffffffffff166367e1d50486868686600260008d67ffffffffffffffff1667ffffffffffffffff1681526020019081526020016000206040518663ffffffff1660e01b81526004016107b2959493929190612577565b60206040518083038186803b1580156107ca57600080fd5b505afa1580156107de573d6000803e3d6000fd5b505050506040513d601f19601f820116820180604052508101906108029190611cf6565b610841576040517f08c379a0000000000000000000000000000000000000000000000000000000008152600401610838906126a8565b60405180910390fd5b60018060003373ffffffffffffffffffffffffffffffffffffffff1673ffffffffffffffffffffffffffffffffffffffff16815260200190815260200160002060008867ffffffffffffffff1667ffffffffffffffff16815260200190815260200160002060006101000a81548160ff02191690831515021790555061090f8686600360008a67ffffffffffffffff1667ffffffffffffffff16815260200190815260200160002060009054906101000a900473ffffffffffffffffffffffffffffffffffffffff166110e1565b6001905095945050505050565b610924611815565b600260008367ffffffffffffffff1667ffffffffffffffff1681526020019081526020016000206040518060a0016040529081600082015481526020016001820154815260200160028201548152602001600382018054806020026020016040519081016040528092919081815260200182805480156109c357602002820191906000526020600020905b8154815260200190600101908083116109af575b505050505081526020016004820180546109dc90612b3d565b80601f0160208091040260200160405190810160405280929190818152602001828054610a0890612b3d565b8015610a555780601f10610a2a57610100808354040283529160200191610a55565b820191906000526020600020905b815481529060010190602001808311610a3857829003601f168201915b5050505050815250509050919050565b60076020528060005260406000206000915090505481565b60048181548110610a8d57600080fd5b9060005260206000209060049182820401919006600802915054906101000a900467ffffffffffffffff1681565b610ac3610def565b600073ffffffffffffffffffffffffffffffffffffffff168173ffffffffffffffffffffffffffffffffffffffff161415610b33576040517f08c379a0000000000000000000000000000000000000000000000000000000008152600401610b2a90612668565b60405180910390fd5b610b3c81610e6d565b50565b6000610b49610def565b600073ffffffffffffffffffffffffffffffffffffffff16600360008667ffffffffffffffff1667ffffffffffffffff16815260200190815260200160002060009054906101000a900473ffffffffffffffffffffffffffffffffffffffff1673ffffffffffffffffffffffffffffffffffffffff161415610c1c5760048490806001815401808255809150506001900390600052602060002090600491828204019190066008029091909190916101000a81548167ffffffffffffffff021916908367ffffffffffffffff1602179055505b8160600151600260008667ffffffffffffffff1667ffffffffffffffff1681526020019081526020016000206003019080519060200190610c5e929190611844565b508160400151600260008667ffffffffffffffff1667ffffffffffffffff168152602001908152602001600020600201819055508160800151600260008667ffffffffffffffff1667ffffffffffffffff1681526020019081526020016000206004019080519060200190610cd4929190611891565b508160200151600260008667ffffffffffffffff1667ffffffffffffffff168152602001908152602001600020600101819055508160000151600260008667ffffffffffffffff1667ffffffffffffffff168152602001908152602001600020600001819055508160800151600260008667ffffffffffffffff1667ffffffffffffffff1681526020019081526020016000206004019080519060200190610d7d929190611891565b5082600360008667ffffffffffffffff1667ffffffffffffffff16815260200190815260200160002060006101000a81548173ffffffffffffffffffffffffffffffffffffffff021916908373ffffffffffffffffffffffffffffffffffffffff160217905550600190509392505050565b610df761160e565b73ffffffffffffffffffffffffffffffffffffffff16610e15610449565b73ffffffffffffffffffffffffffffffffffffffff1614610e6b576040517f08c379a0000000000000000000000000000000000000000000000000000000008152600401610e62906126c8565b60405180910390fd5b565b60008060009054906101000a900473ffffffffffffffffffffffffffffffffffffffff169050816000806101000a81548173ffffffffffffffffffffffffffffffffffffffff021916908373ffffffffffffffffffffffffffffffffffffffff1602179055508173ffffffffffffffffffffffffffffffffffffffff168173ffffffffffffffffffffffffffffffffffffffff167f8be0079c531659141344cd1fd0a4f28419497f9722a3daafe3b4186f6b6457e060405160405180910390a35050565b600860009054906101000a900460ff1615610f81576040517f08c379a0000000000000000000000000000000000000000000000000000000008152600401610f7890612728565b60405180910390fd5b6000611049838373ffffffffffffffffffffffffffffffffffffffff16639f442afa6040518163ffffffff1660e01b815260040160206040518083038186803b158015610fcd57600080fd5b505afa158015610fe1573d6000803e3d6000fd5b505050506040513d601f19601f820116820180604052508101906110059190611d71565b8151811061103c577f4e487b7100000000000000000000000000000000000000000000000000000000600052603260045260246000fd5b6020026020010151611616565b90508073ffffffffffffffffffffffffffffffffffffffff1661106a61160e565b73ffffffffffffffffffffffffffffffffffffffff16146110c0576040517f08c379a00000000000000000000000000000000000000000000000000000000081526004016110b790612688565b60405180910390fd5b6001600860006101000a81548160ff02191690831515021790555050505050565b600860009054906101000a900460ff16611130576040517f08c379a000000000000000000000000000000000000000000000000000000000815260040161112790612728565b60405180910390fd5b600167ffffffffffffffff168367ffffffffffffffff1614801561119a575060006007600061115d61160e565b73ffffffffffffffffffffffffffffffffffffffff1673ffffffffffffffffffffffffffffffffffffffff16815260200190815260200160002054145b6111d9576040517f08c379a00000000000000000000000000000000000000000000000000000000081526004016111d0906126e8565b60405180910390fd5b6000828273ffffffffffffffffffffffffffffffffffffffff16639f442afa6040518163ffffffff1660e01b815260040160206040518083038186803b15801561122257600080fd5b505afa158015611236573d6000803e3d6000fd5b505050506040513d601f19601f8201168201806040525081019061125a9190611d71565b81518110611291577f4e487b7100000000000000000000000000000000000000000000000000000000600052603260045260246000fd5b60200260200101519050600073ffffffffffffffffffffffffffffffffffffffff166006600083815260200190815260200160002060009054906101000a900473ffffffffffffffffffffffffffffffffffffffff1673ffffffffffffffffffffffffffffffffffffffff1614156115ed57806007600061131061160e565b73ffffffffffffffffffffffffffffffffffffffff1673ffffffffffffffffffffffffffffffffffffffff1681526020019081526020016000208190555061135661160e565b6006600083815260200190815260200160002060006101000a81548173ffffffffffffffffffffffffffffffffffffffff021916908373ffffffffffffffffffffffffffffffffffffffff1602179055506000600560009054906101000a900473ffffffffffffffffffffffffffffffffffffffff1673ffffffffffffffffffffffffffffffffffffffff1663cbfcf4886113ef61160e565b6040518263ffffffff1660e01b815260040161140b9190612533565b60206040518083038186803b15801561142357600080fd5b505afa158015611437573d6000803e3d6000fd5b505050506040513d601f19601f8201168201806040525081019061145b9190611d1f565b9050600560009054906101000a900473ffffffffffffffffffffffffffffffffffffffff1673ffffffffffffffffffffffffffffffffffffffff1663dac2cb386114a361160e565b836040518363ffffffff1660e01b81526004016114c192919061254e565b600060405180830381600087803b1580156114db57600080fd5b505af11580156114ef573d6000803e3d6000fd5b505050506000600560009054906101000a900473ffffffffffffffffffffffffffffffffffffffff1673ffffffffffffffffffffffffffffffffffffffff1663f62ec4d5836040518263ffffffff1660e01b81526004016115509190612617565b602060405180830381600087803b15801561156a57600080fd5b505af115801561157e573d6000803e3d6000fd5b505050506040513d601f19601f820116820180604052508101906115a29190611cf6565b9050806115ea577f899ba2fcfeaf826d15c1f8dfe15ddb48d64c9b16e5c54ddcd10c5451143acf496115d261160e565b836040516115e192919061254e565b60405180910390a15b50505b6000600860006101000a81548160ff02191690831515021790555050505050565b600033905090565b600061163161162c61162784611638565b611784565b611807565b9050919050565b600081905060087eff00ff00ff00ff00ff00ff00ff00ff00ff00ff00ff00ff00ff00ff00ff00ff8216901b60087fff00ff00ff00ff00ff00ff00ff00ff00ff00ff00ff00ff00ff00ff00ff00ff008316901c17905060107dffff0000ffff0000ffff0000ffff0000ffff0000ffff0000ffff0000ffff8216901b60107fffff0000ffff0000ffff0000ffff0000ffff0000ffff0000ffff0000ffff00008316901c17905060207bffffffff00000000ffffffff00000000ffffffff00000000ffffffff8216901b60207fffffffff00000000ffffffff00000000ffffffff00000000ffffffff000000008316901c179050604077ffffffffffffffff0000000000000000ffffffffffffffff8216901b60407fffffffffffffffff0000000000000000ffffffffffffffff00000000000000008316901c179050608081901b608082901c179050919050565b6060602067ffffffffffffffff8111156117c7577f4e487b7100000000000000000000000000000000000000000000000000000000600052604160045260246000fd5b6040519080825280601f01601f1916602001820160405280156117f95781602001600182028036833780820191505090505b509050816020820152919050565b600060148201519050919050565b6040518060a0016040528060008152602001600081526020016000815260200160608152602001606081525090565b828054828255906000526020600020908101928215611880579160200282015b8281111561187f578251825591602001919060010190611864565b5b50905061188d9190611917565b5090565b82805461189d90612b3d565b90600052602060002090601f0160209004810192826118bf5760008555611906565b82601f106118d857805160ff1916838001178555611906565b82800160010185558215611906579182015b828111156119055782518255916020019190600101906118ea565b5b5090506119139190611917565b5090565b5b80821115611930576000816000905550600101611918565b5090565b600061194761194284612831565b61280c565b9050808285604086028201111561195d57600080fd5b60005b8581101561198d57816119738882611ae0565b845260208401935060408301925050600181019050611960565b5050509392505050565b60006119aa6119a584612857565b61280c565b905080828560208602820111156119c057600080fd5b60005b858110156119f057816119d68882611c52565b8452602084019350602083019250506001810190506119c3565b5050509392505050565b6000611a0d611a088461287d565b61280c565b90508083825260208201905082856020860282011115611a2c57600080fd5b60005b85811015611a5c5781611a428882611c52565b845260208401935060208301925050600181019050611a2f565b5050509392505050565b6000611a79611a74846128a9565b61280c565b905082815260208101848484011115611a9157600080fd5b611a9c848285612afb565b509392505050565b600081359050611ab381612e9b565b92915050565b600082601f830112611aca57600080fd5b6002611ad7848285611934565b91505092915050565b600082601f830112611af157600080fd5b6002611afe848285611997565b91505092915050565b600082601f830112611b1857600080fd5b8135611b288482602086016119fa565b91505092915050565b600081519050611b4081612eb2565b92915050565b600081519050611b5581612ec9565b92915050565b600081359050611b6a81612ee0565b92915050565b600082601f830112611b8157600080fd5b8135611b91848260208601611a66565b91505092915050565b600060a08284031215611bac57600080fd5b611bb660a061280c565b90506000611bc684828501611c52565b6000830152506020611bda84828501611c52565b6020830152506040611bee84828501611c52565b604083015250606082013567ffffffffffffffff811115611c0e57600080fd5b611c1a84828501611b07565b606083015250608082013567ffffffffffffffff811115611c3a57600080fd5b611c4684828501611b70565b60808301525092915050565b600081359050611c6181612ef7565b92915050565b600081519050611c7681612ef7565b92915050565b600081359050611c8b81612f0e565b92915050565b600060208284031215611ca357600080fd5b6000611cb184828501611aa4565b91505092915050565b60008060408385031215611ccd57600080fd5b6000611cdb85828601611aa4565b9250506020611cec85828601611c7c565b9150509250929050565b600060208284031215611d0857600080fd5b6000611d1684828501611b31565b91505092915050565b600060208284031215611d3157600080fd5b6000611d3f84828501611b46565b91505092915050565b600060208284031215611d5a57600080fd5b6000611d6884828501611c52565b91505092915050565b600060208284031215611d8357600080fd5b6000611d9184828501611c67565b91505092915050565b600060208284031215611dac57600080fd5b6000611dba84828501611c7c565b91505092915050565b60008060008060006101408688031215611ddc57600080fd5b6000611dea88828901611c7c565b955050602086013567ffffffffffffffff811115611e0757600080fd5b611e1388828901611b07565b9450506040611e2488828901611ae0565b9350506080611e3588828901611ab9565b925050610100611e4788828901611ae0565b9150509295509295909350565b600080600060608486031215611e6957600080fd5b6000611e7786828701611c7c565b9350506020611e8886828701611b5b565b925050604084013567ffffffffffffffff811115611ea557600080fd5b611eb186828701611b9a565b9150509250925092565b6000611ec78383611f69565b60408301905092915050565b6000611edf83836124f7565b60208301905092915050565b6000611ef78383612515565b60208301905092915050565b611f0c81612a3b565b82525050565b611f1b81612938565b611f2581846129bb565b9250611f30826128da565b8060005b83811015611f61578151611f488782611ebb565b9650611f538361297a565b925050600181019050611f34565b505050505050565b611f7281612943565b611f7c81846129c6565b9250611f87826128e4565b8060005b83811015611fb8578151611f9f8782611ed3565b9650611faa83612987565b925050600181019050611f8b565b505050505050565b611fc981612943565b611fd381846129d1565b9250611fde826128e4565b8060005b8381101561200f578151611ff68782611ed3565b965061200183612987565b925050600181019050611fe2565b505050505050565b60006120228261294e565b61202c81856129dc565b9350612037836128ee565b8060005b8381101561206857815161204f8882611ed3565b975061205a83612994565b92505060018101905061203b565b5085935050505092915050565b60006120808261294e565b61208a81856129ed565b9350612095836128ee565b8060005b838110156120c65781516120ad8882611ed3565b97506120b883612994565b925050600181019050612099565b5085935050505092915050565b60006120de82612959565b6120e881856129dc565b93506120f3836128fe565b8060005b8381101561212b5761210882612c18565b6121128882611ed3565b975061211d836129a1565b9250506001810190506120f7565b5085935050505092915050565b600061214382612964565b61214d81856129fe565b935061215883612913565b8060005b838110156121895781516121708882611eeb565b975061217b836129ae565b92505060018101905061215c565b5085935050505092915050565b61219f81612a4d565b82525050565b6121ae81612a59565b82525050565b6121bd81612ab3565b82525050565b6121cc81612ad7565b82525050565b60006121dd8261296f565b6121e78185612a0f565b93506121f7818560208601612b0a565b61220081612c2b565b840191505092915050565b60006122168261296f565b6122208185612a20565b9350612230818560208601612b0a565b61223981612c2b565b840191505092915050565b6000815461225181612b3d565b61225b8186612a0f565b945060018216600081146122765760018114612288576122bb565b60ff19831686526020860193506122bb565b61229185612923565b60005b838110156122b357815481890152600182019150602081019050612294565b808801955050505b50505092915050565b60006122d1602683612a20565b91506122dc82612c49565b604082019050919050565b60006122f4602883612a20565b91506122ff82612c98565b604082019050919050565b6000612317601b83612a20565b915061232282612ce7565b602082019050919050565b600061233a602083612a20565b915061234582612d10565b602082019050919050565b600061235d602983612a20565b915061236882612d39565b604082019050919050565b6000612380602883612a20565b915061238b82612d88565b604082019050919050565b60006123a3605283612a20565b91506123ae82612dd7565b606082019050919050565b60006123c6602483612a20565b91506123d182612e4c565b604082019050919050565b600060a0830160008301516123f460008601826124f7565b50602083015161240760208601826124f7565b50604083015161241a60408601826124f7565b50606083015184820360608601526124328282612017565b9150506080830151848203608086015261244c82826121d2565b9150508091505092915050565b600060a08301600080840154905061247081612b6f565b61247d60008701826124f7565b506001840154905061248e81612b6f565b61249b60208701826124f7565b50600284015490506124ac81612b6f565b6124b960408701826124f7565b506003840185830360608701526124d083826120d3565b9250506004840185830360808701526124e98382612244565b925050819250505092915050565b61250081612a95565b82525050565b61250f81612a95565b82525050565b61251e81612a9f565b82525050565b61252d81612a9f565b82525050565b60006020820190506125486000830184611f03565b92915050565b60006040820190506125636000830185611f03565b61257060208301846121a5565b9392505050565b60006101408201905081810360008301526125928188612075565b90506125a16020830187611fc0565b6125ae6060830186611f12565b6125bb60e0830185611fc0565b8181036101208301526125ce8184612459565b90509695505050505050565b600060208201905081810360008301526125f48184612138565b905092915050565b60006020820190506126116000830184612196565b92915050565b600060208201905061262c60008301846121a5565b92915050565b600060208201905061264760008301846121b4565b92915050565b600060208201905061266260008301846121c3565b92915050565b60006020820190508181036000830152612681816122c4565b9050919050565b600060208201905081810360008301526126a1816122e7565b9050919050565b600060208201905081810360008301526126c18161230a565b9050919050565b600060208201905081810360008301526126e18161232d565b9050919050565b6000602082019050818103600083015261270181612350565b9050919050565b6000602082019050818103600083015261272181612373565b9050919050565b6000602082019050818103600083015261274181612396565b9050919050565b60006020820190508181036000830152612761816123b9565b9050919050565b6000602082019050818103600083015261278281846123dc565b905092915050565b600060208201905061279f6000830184612506565b92915050565b60006080820190506127ba6000830187612506565b6127c76020830186612506565b6127d46040830185612506565b81810360608301526127e6818461220b565b905095945050505050565b60006020820190506128066000830184612524565b92915050565b6000612816612827565b90506128228282612b89565b919050565b6000604051905090565b600067ffffffffffffffff82111561284c5761284b612be9565b5b602082029050919050565b600067ffffffffffffffff82111561287257612871612be9565b5b602082029050919050565b600067ffffffffffffffff82111561289857612897612be9565b5b602082029050602081019050919050565b600067ffffffffffffffff8211156128c4576128c3612be9565b5b6128cd82612c2b565b9050602081019050919050565b6000819050919050565b6000819050919050565b6000819050602082019050919050565b60008190508160005260206000209050919050565b6000819050602082019050919050565b60008190508160005260206000209050919050565b600060029050919050565b600060029050919050565b600081519050919050565b600081549050919050565b600081519050919050565b600081519050919050565b6000602082019050919050565b6000602082019050919050565b6000602082019050919050565b6000600182019050919050565b6000602082019050919050565b600081905092915050565b600081905092915050565b600081905092915050565b600082825260208201905092915050565b600082825260208201905092915050565b600082825260208201905092915050565b600082825260208201905092915050565b600082825260208201905092915050565b6000819050919050565b6000612a4682612a75565b9050919050565b60008115159050919050565b6000819050919050565b6000612a6e82612a3b565b9050919050565b600073ffffffffffffffffffffffffffffffffffffffff82169050919050565b6000819050919050565b600067ffffffffffffffff82169050919050565b6000612abe82612ac5565b9050919050565b6000612ad082612a75565b9050919050565b6000612ae282612ae9565b9050919050565b6000612af482612a75565b9050919050565b82818337600083830152505050565b60005b83811015612b28578082015181840152602081019050612b0d565b83811115612b37576000848401525b50505050565b60006002820490506001821680612b5557607f821691505b60208210811415612b6957612b68612bba565b5b50919050565b6000612b82612b7d83612c3c565b612a31565b9050919050565b612b9282612c2b565b810181811067ffffffffffffffff82111715612bb157612bb0612be9565b5b80604052505050565b7f4e487b7100000000000000000000000000000000000000000000000000000000600052602260045260246000fd5b7f4e487b7100000000000000000000000000000000000000000000000000000000600052604160045260246000fd5b6000612c248254612b6f565b9050919050565b6000601f19601f8301169050919050565b60008160001c9050919050565b7f4f776e61626c653a206e6577206f776e657220697320746865207a65726f206160008201527f6464726573730000000000000000000000000000000000000000000000000000602082015250565b7f6164647265737320696e2070726f6f66206973206e6f7420612073656e64657260008201527f2061646472657373000000000000000000000000000000000000000000000000602082015250565b7f70726f6f6620726573706f6e7365206973206e6f742076616c69640000000000600082015250565b7f4f776e61626c653a2063616c6c6572206973206e6f7420746865206f776e6572600082015250565b7f70726f6f662063616e206e6f74206265207375626d6974746564206d6f72652060008201527f7468616e206f6e63650000000000000000000000000000000000000000000000602082015250565b7f76616c696461746f72206973206e6f742073657420666f72207468697320726560008201527f7175657374206964000000000000000000000000000000000000000000000000602082015250565b7f566572696669657220636f6e74726163742069732070617573656420616e642060008201527f70726f63657373696e6720616e6f7468657220636c61696d2c20506c6561736560208201527f207761697420666f7220736f6d6574696d650000000000000000000000000000604082015250565b7f7175657279206973206e6f742073657420666f7220746869732072657175657360008201527f7420696400000000000000000000000000000000000000000000000000000000602082015250565b612ea481612a3b565b8114612eaf57600080fd5b50565b612ebb81612a4d565b8114612ec657600080fd5b50565b612ed281612a59565b8114612edd57600080fd5b50565b612ee981612a63565b8114612ef457600080fd5b50565b612f0081612a95565b8114612f0b57600080fd5b50565b612f1781612a9f565b8114612f2257600080fd5b5056fea264697066735822122063ddeff9c8dfd06ce3d699c06071b9893906f759dd421c38a2bfc814d1d5d60664736f6c63430008040033",
  "linkReferences": {},
  "deployedLinkReferences": {}
}