{
  "_format": "hh-sol-artifact-1",
  "contractName": "SwhanSurkshaClaimVerifier",
  "sourceName": "contracts/SwhanSurkshaClaimVerifier.sol",
  "abi": [
    {
      "inputs": [
        {
          "internalType": "address",
          "name": "_shwanSurkshaAddr",
          "type": "address"
        }
      ],
      "stateMutability": "nonpayable",
      "type": "constructor"
    },
    {
      "anonymous": false,
      "inputs": [
        {
          "indexed": false,
          "internalType": "address",
          "name": "policyHolder",
          "type": "address"
        },
        {
          "indexed": false,
          "internalType": "bytes32",
          "name": "policyId",
          "type": "bytes32"
        }
      ],
      "name": "ClaimFailed",
      "type": "event"
    },
    {
      "anonymous": false,
      "inputs": [
        {
          "indexed": true,
          "internalType": "address",
          "name": "previousOwner",
          "type": "address"
        },
        {
          "indexed": true,
          "internalType": "address",
          "name": "newOwner",
          "type": "address"
        }
      ],
      "name": "OwnershipTransferred",
      "type": "event"
    },
    {
      "inputs": [],
      "name": "TRANSFER_REQUEST_ID",
      "outputs": [
        {
          "internalType": "uint64",
          "name": "",
          "type": "uint64"
        }
      ],
      "stateMutability": "view",
      "type": "function"
    },
    {
      "inputs": [],
      "name": "getSupportedRequests",
      "outputs": [
        {
          "internalType": "uint64[]",
          "name": "arr",
          "type": "uint64[]"
        }
      ],
      "stateMutability": "view",
      "type": "function"
    },
    {
      "inputs": [
        {
          "internalType": "uint64",
          "name": "requestId",
          "type": "uint64"
        }
      ],
      "name": "getZKPRequest",
      "outputs": [
        {
          "components": [
            {
              "internalType": "uint256",
              "name": "schema",
              "type": "uint256"
            },
            {
              "internalType": "uint256",
              "name": "slotIndex",
              "type": "uint256"
            },
            {
              "internalType": "uint256",
              "name": "operator",
              "type": "uint256"
            },
            {
              "internalType": "uint256[]",
              "name": "value",
              "type": "uint256[]"
            },
            {
              "internalType": "string",
              "name": "circuitId",
              "type": "string"
            }
          ],
          "internalType": "struct ICircuitValidator.CircuitQuery",
          "name": "",
          "type": "tuple"
        }
      ],
      "stateMutability": "view",
      "type": "function"
    },
    {
      "inputs": [],
      "name": "owner",
      "outputs": [
        {
          "internalType": "address",
          "name": "",
          "type": "address"
        }
      ],
      "stateMutability": "view",
      "type": "function"
    },
    {
      "inputs": [
        {
          "internalType": "address",
          "name": "",
          "type": "address"
        },
        {
          "internalType": "uint64",
          "name": "",
          "type": "uint64"
        }
      ],
      "name": "proofs",
      "outputs": [
        {
          "internalType": "bool",
          "name": "",
          "type": "bool"
        }
      ],
      "stateMutability": "view",
      "type": "function"
    },
    {
      "inputs": [],
      "name": "renounceOwnership",
      "outputs": [],
      "stateMutability": "nonpayable",
      "type": "function"
    },
    {
      "inputs": [
        {
          "internalType": "uint64",
          "name": "",
          "type": "uint64"
        }
      ],
      "name": "requestQueries",
      "outputs": [
        {
          "internalType": "uint256",
          "name": "schema",
          "type": "uint256"
        },
        {
          "internalType": "uint256",
          "name": "slotIndex",
          "type": "uint256"
        },
        {
          "internalType": "uint256",
          "name": "operator",
          "type": "uint256"
        },
        {
          "internalType": "string",
          "name": "circuitId",
          "type": "string"
        }
      ],
      "stateMutability": "view",
      "type": "function"
    },
    {
      "inputs": [
        {
          "internalType": "uint64",
          "name": "",
          "type": "uint64"
        }
      ],
      "name": "requestValidators",
      "outputs": [
        {
          "internalType": "contract ICircuitValidator",
          "name": "",
          "type": "address"
        }
      ],
      "stateMutability": "view",
      "type": "function"
    },
    {
      "inputs": [
        {
          "internalType": "uint64",
          "name": "requestId",
          "type": "uint64"
        },
        {
          "internalType": "contract ICircuitValidator",
          "name": "validator",
          "type": "address"
        },
        {
          "components": [
            {
              "internalType": "uint256",
              "name": "schema",
              "type": "uint256"
            },
            {
              "internalType": "uint256",
              "name": "slotIndex",
              "type": "uint256"
            },
            {
              "internalType": "uint256",
              "name": "operator",
              "type": "uint256"
            },
            {
              "internalType": "uint256[]",
              "name": "value",
              "type": "uint256[]"
            },
            {
              "internalType": "string",
              "name": "circuitId",
              "type": "string"
            }
          ],
          "internalType": "struct ICircuitValidator.CircuitQuery",
          "name": "query",
          "type": "tuple"
        }
      ],
      "name": "setZKPRequest",
      "outputs": [
        {
          "internalType": "bool",
          "name": "",
          "type": "bool"
        }
      ],
      "stateMutability": "nonpayable",
      "type": "function"
    },
    {
      "inputs": [],
      "name": "shwanSurksha",
      "outputs": [
        {
          "internalType": "contract IShwanSurksha",
          "name": "",
          "type": "address"
        }
      ],
      "stateMutability": "view",
      "type": "function"
    },
    {
      "inputs": [
        {
          "internalType": "uint64",
          "name": "requestId",
          "type": "uint64"
        },
        {
          "internalType": "uint256[]",
          "name": "inputs",
          "type": "uint256[]"
        },
        {
          "internalType": "uint256[2]",
          "name": "a",
          "type": "uint256[2]"
        },
        {
          "internalType": "uint256[2][2]",
          "name": "b",
          "type": "uint256[2][2]"
        },
        {
          "internalType": "uint256[2]",
          "name": "c",
          "type": "uint256[2]"
        }
      ],
      "name": "submitZKPResponse",
      "outputs": [
        {
          "internalType": "bool",
          "name": "",
          "type": "bool"
        }
      ],
      "stateMutability": "nonpayable",
      "type": "function"
    },
    {
      "inputs": [
        {
          "internalType": "uint256",
          "name": "",
          "type": "uint256"
        }
      ],
      "name": "supportedRequests",
      "outputs": [
        {
          "internalType": "uint64",
          "name": "",
          "type": "uint64"
        }
      ],
      "stateMutability": "view",
      "type": "function"
    },
    {
      "inputs": [
        {
          "internalType": "address",
          "name": "newOwner",
          "type": "address"
        }
      ],
      "name": "transferOwnership",
      "outputs": [],
      "stateMutability": "nonpayable",
      "type": "function"
    }
  ],
  "bytecode": "0x60806040523480156200001157600080fd5b5060405162002dc738038062002dc7833981810160405281019062000037919062000182565b620000576200004b6200009f60201b60201c565b620000a760201b60201c565b80600560006101000a81548173ffffffffffffffffffffffffffffffffffffffff021916908373ffffffffffffffffffffffffffffffffffffffff16021790555050620001fc565b600033905090565b60008060009054906101000a900473ffffffffffffffffffffffffffffffffffffffff169050816000806101000a81548173ffffffffffffffffffffffffffffffffffffffff021916908373ffffffffffffffffffffffffffffffffffffffff1602179055508173ffffffffffffffffffffffffffffffffffffffff168173ffffffffffffffffffffffffffffffffffffffff167f8be0079c531659141344cd1fd0a4f28419497f9722a3daafe3b4186f6b6457e060405160405180910390a35050565b6000815190506200017c81620001e2565b92915050565b6000602082840312156200019557600080fd5b6000620001a5848285016200016b565b91505092915050565b6000620001bb82620001c2565b9050919050565b600073ffffffffffffffffffffffffffffffffffffffff82169050919050565b620001ed81620001ae565b8114620001f957600080fd5b50565b612bbb806200020c6000396000f3fe608060405234801561001057600080fd5b50600436106100cf5760003560e01c8063a87231141161008c578063c76d084511610066578063c76d084514610219578063f143532614610249578063f2fde38b14610279578063fee207e614610295576100cf565b8063a872311414610189578063b45c0fdf146101b9578063b68967e2146101e9576100cf565b806337ba9523146100d45780633e305d07146100f257806363ec508f14610110578063715018a61461012e5780638da5cb5b1461013857806396bf474114610156575b600080fd5b6100dc6102c5565b6040516100e991906122c4565b60405180910390f35b6100fa610351565b6040516101079190612337565b60405180910390f35b610118610377565b60405161012591906124a0565b60405180910390f35b61013661037c565b005b610140610390565b60405161014d919061221d565b60405180910390f35b610170600480360381019061016b9190611aa7565b6103b9565b6040516101809493929190612454565b60405180910390f35b6101a3600480360381019061019e9190611aa7565b610471565b6040516101b0919061231c565b60405180910390f35b6101d360048036038101906101ce91906119c7565b6104a4565b6040516101e091906122e6565b60405180910390f35b61020360048036038101906101fe9190611ad0565b6104d3565b60405161021091906122e6565b60405180910390f35b610233600480360381019061022e9190611aa7565b610863565b6040516102409190612432565b60405180910390f35b610263600480360381019061025e9190611a55565b6109ac565b60405161027091906124a0565b60405180910390f35b610293600480360381019061028e919061199e565b6109ea565b005b6102af60048036038101906102aa9190611b61565b610a6e565b6040516102bc91906122e6565b60405180910390f35b6060600480548060200260200160405190810160405280929190818152602001828054801561034757602002820191906000526020600020906000905b82829054906101000a900467ffffffffffffffff1667ffffffffffffffff16815260200190600801906020826007010492830192600103820291508084116103025790505b5050505050905090565b600560009054906101000a900473ffffffffffffffffffffffffffffffffffffffff1681565b600181565b610384610d1e565b61038e6000610d9c565b565b60008060009054906101000a900473ffffffffffffffffffffffffffffffffffffffff16905090565b60026020528060005260406000206000915090508060000154908060010154908060020154908060040180546103ee906127ec565b80601f016020809104026020016040519081016040528092919081815260200182805461041a906127ec565b80156104675780601f1061043c57610100808354040283529160200191610467565b820191906000526020600020905b81548152906001019060200180831161044a57829003601f168201915b5050505050905084565b60036020528060005260406000206000915054906101000a900473ffffffffffffffffffffffffffffffffffffffff1681565b60016020528160005260406000206020528060005260406000206000915091509054906101000a900460ff1681565b60008073ffffffffffffffffffffffffffffffffffffffff16600360008867ffffffffffffffff1667ffffffffffffffff16815260200190815260200160002060009054906101000a900473ffffffffffffffffffffffffffffffffffffffff1673ffffffffffffffffffffffffffffffffffffffff16141561058b576040517f08c379a0000000000000000000000000000000000000000000000000000000008152600401610582906123d2565b60405180910390fd5b6000600260008867ffffffffffffffff1667ffffffffffffffff1681526020019081526020016000206000015414156105f9576040517f08c379a00000000000000000000000000000000000000000000000000000000081526004016105f090612412565b60405180910390fd5b61064b8686600360008a67ffffffffffffffff1667ffffffffffffffff16815260200190815260200160002060009054906101000a900473ffffffffffffffffffffffffffffffffffffffff16610e60565b600360008767ffffffffffffffff1667ffffffffffffffff16815260200190815260200160002060009054906101000a900473ffffffffffffffffffffffffffffffffffffffff1673ffffffffffffffffffffffffffffffffffffffff166367e1d50486868686600260008d67ffffffffffffffff1667ffffffffffffffff1681526020019081526020016000206040518663ffffffff1660e01b81526004016106f9959493929190612261565b60206040518083038186803b15801561071157600080fd5b505afa158015610725573d6000803e3d6000fd5b505050506040513d601f19601f820116820180604052508101906107499190611a03565b610788576040517f08c379a000000000000000000000000000000000000000000000000000000000815260040161077f90612392565b60405180910390fd5b60018060003373ffffffffffffffffffffffffffffffffffffffff1673ffffffffffffffffffffffffffffffffffffffff16815260200190815260200160002060008867ffffffffffffffff1667ffffffffffffffff16815260200190815260200160002060006101000a81548160ff0219169083151502179055506108568686600360008a67ffffffffffffffff1667ffffffffffffffff16815260200190815260200160002060009054906101000a900473ffffffffffffffffffffffffffffffffffffffff16611010565b6001905095945050505050565b61086b611522565b600260008367ffffffffffffffff1667ffffffffffffffff1681526020019081526020016000206040518060a00160405290816000820154815260200160018201548152602001600282015481526020016003820180548060200260200160405190810160405280929190818152602001828054801561090a57602002820191906000526020600020905b8154815260200190600101908083116108f6575b50505050508152602001600482018054610923906127ec565b80601f016020809104026020016040519081016040528092919081815260200182805461094f906127ec565b801561099c5780601f106109715761010080835404028352916020019161099c565b820191906000526020600020905b81548152906001019060200180831161097f57829003601f168201915b5050505050815250509050919050565b600481815481106109bc57600080fd5b9060005260206000209060049182820401919006600802915054906101000a900467ffffffffffffffff1681565b6109f2610d1e565b600073ffffffffffffffffffffffffffffffffffffffff168173ffffffffffffffffffffffffffffffffffffffff161415610a62576040517f08c379a0000000000000000000000000000000000000000000000000000000008152600401610a5990612352565b60405180910390fd5b610a6b81610d9c565b50565b6000610a78610d1e565b600073ffffffffffffffffffffffffffffffffffffffff16600360008667ffffffffffffffff1667ffffffffffffffff16815260200190815260200160002060009054906101000a900473ffffffffffffffffffffffffffffffffffffffff1673ffffffffffffffffffffffffffffffffffffffff161415610b4b5760048490806001815401808255809150506001900390600052602060002090600491828204019190066008029091909190916101000a81548167ffffffffffffffff021916908367ffffffffffffffff1602179055505b8160600151600260008667ffffffffffffffff1667ffffffffffffffff1681526020019081526020016000206003019080519060200190610b8d929190611551565b508160400151600260008667ffffffffffffffff1667ffffffffffffffff168152602001908152602001600020600201819055508160800151600260008667ffffffffffffffff1667ffffffffffffffff1681526020019081526020016000206004019080519060200190610c0392919061159e565b508160200151600260008667ffffffffffffffff1667ffffffffffffffff168152602001908152602001600020600101819055508160000151600260008667ffffffffffffffff1667ffffffffffffffff168152602001908152602001600020600001819055508160800151600260008667ffffffffffffffff1667ffffffffffffffff1681526020019081526020016000206004019080519060200190610cac92919061159e565b5082600360008667ffffffffffffffff1667ffffffffffffffff16815260200190815260200160002060006101000a81548173ffffffffffffffffffffffffffffffffffffffff021916908373ffffffffffffffffffffffffffffffffffffffff160217905550600190509392505050565b610d2661131b565b73ffffffffffffffffffffffffffffffffffffffff16610d44610390565b73ffffffffffffffffffffffffffffffffffffffff1614610d9a576040517f08c379a0000000000000000000000000000000000000000000000000000000008152600401610d91906123b2565b60405180910390fd5b565b60008060009054906101000a900473ffffffffffffffffffffffffffffffffffffffff169050816000806101000a81548173ffffffffffffffffffffffffffffffffffffffff021916908373ffffffffffffffffffffffffffffffffffffffff1602179055508173ffffffffffffffffffffffffffffffffffffffff168173ffffffffffffffffffffffffffffffffffffffff167f8be0079c531659141344cd1fd0a4f28419497f9722a3daafe3b4186f6b6457e060405160405180910390a35050565b600760009054906101000a900460ff1615610eb0576040517f08c379a0000000000000000000000000000000000000000000000000000000008152600401610ea7906123f2565b60405180910390fd5b6000610f78838373ffffffffffffffffffffffffffffffffffffffff16639f442afa6040518163ffffffff1660e01b815260040160206040518083038186803b158015610efc57600080fd5b505afa158015610f10573d6000803e3d6000fd5b505050506040513d601f19601f82011682018060405250810190610f349190611a7e565b81518110610f6b577f4e487b7100000000000000000000000000000000000000000000000000000000600052603260045260246000fd5b6020026020010151611323565b90508073ffffffffffffffffffffffffffffffffffffffff16610f9961131b565b73ffffffffffffffffffffffffffffffffffffffff1614610fef576040517f08c379a0000000000000000000000000000000000000000000000000000000008152600401610fe690612372565b60405180910390fd5b6001600760006101000a81548160ff02191690831515021790555050505050565b600760009054906101000a900460ff1661105f576040517f08c379a0000000000000000000000000000000000000000000000000000000008152600401611056906123f2565b60405180910390fd5b6000600560009054906101000a900473ffffffffffffffffffffffffffffffffffffffff1673ffffffffffffffffffffffffffffffffffffffff1663cbfcf4886110a761131b565b6040518263ffffffff1660e01b81526004016110c3919061221d565b60206040518083038186803b1580156110db57600080fd5b505afa1580156110ef573d6000803e3d6000fd5b505050506040513d601f19601f820116820180604052508101906111139190611a2c565b90506006600082815260200190815260200160002060009054906101000a900460ff166112fa57600560009054906101000a900473ffffffffffffffffffffffffffffffffffffffff1673ffffffffffffffffffffffffffffffffffffffff1663dac2cb3861118061131b565b836040518363ffffffff1660e01b815260040161119e929190612238565b600060405180830381600087803b1580156111b857600080fd5b505af11580156111cc573d6000803e3d6000fd5b505050506000600560009054906101000a900473ffffffffffffffffffffffffffffffffffffffff1673ffffffffffffffffffffffffffffffffffffffff1663f62ec4d5836040518263ffffffff1660e01b815260040161122d9190612301565b602060405180830381600087803b15801561124757600080fd5b505af115801561125b573d6000803e3d6000fd5b505050506040513d601f19601f8201168201806040525081019061127f9190611a03565b9050806112cb577f899ba2fcfeaf826d15c1f8dfe15ddb48d64c9b16e5c54ddcd10c5451143acf496112af61131b565b836040516112be929190612238565b60405180910390a16112f8565b60016006600084815260200190815260200160002060006101000a81548160ff0219169083151502179055505b505b6000600760006101000a81548160ff02191690831515021790555050505050565b600033905090565b600061133e61133961133484611345565b611491565b611514565b9050919050565b600081905060087eff00ff00ff00ff00ff00ff00ff00ff00ff00ff00ff00ff00ff00ff00ff00ff8216901b60087fff00ff00ff00ff00ff00ff00ff00ff00ff00ff00ff00ff00ff00ff00ff00ff008316901c17905060107dffff0000ffff0000ffff0000ffff0000ffff0000ffff0000ffff0000ffff8216901b60107fffff0000ffff0000ffff0000ffff0000ffff0000ffff0000ffff0000ffff00008316901c17905060207bffffffff00000000ffffffff00000000ffffffff00000000ffffffff8216901b60207fffffffff00000000ffffffff00000000ffffffff00000000ffffffff000000008316901c179050604077ffffffffffffffff0000000000000000ffffffffffffffff8216901b60407fffffffffffffffff0000000000000000ffffffffffffffff00000000000000008316901c179050608081901b608082901c179050919050565b6060602067ffffffffffffffff8111156114d4577f4e487b7100000000000000000000000000000000000000000000000000000000600052604160045260246000fd5b6040519080825280601f01601f1916602001820160405280156115065781602001600182028036833780820191505090505b509050816020820152919050565b600060148201519050919050565b6040518060a0016040528060008152602001600081526020016000815260200160608152602001606081525090565b82805482825590600052602060002090810192821561158d579160200282015b8281111561158c578251825591602001919060010190611571565b5b50905061159a9190611624565b5090565b8280546115aa906127ec565b90600052602060002090601f0160209004810192826115cc5760008555611613565b82601f106115e557805160ff1916838001178555611613565b82800160010185558215611613579182015b828111156116125782518255916020019190600101906115f7565b5b5090506116209190611624565b5090565b5b8082111561163d576000816000905550600101611625565b5090565b600061165461164f846124e0565b6124bb565b9050808285604086028201111561166a57600080fd5b60005b8581101561169a578161168088826117ed565b84526020840193506040830192505060018101905061166d565b5050509392505050565b60006116b76116b284612506565b6124bb565b905080828560208602820111156116cd57600080fd5b60005b858110156116fd57816116e3888261195f565b8452602084019350602083019250506001810190506116d0565b5050509392505050565b600061171a6117158461252c565b6124bb565b9050808382526020820190508285602086028201111561173957600080fd5b60005b85811015611769578161174f888261195f565b84526020840193506020830192505060018101905061173c565b5050509392505050565b600061178661178184612558565b6124bb565b90508281526020810184848401111561179e57600080fd5b6117a98482856127aa565b509392505050565b6000813590506117c081612afb565b92915050565b600082601f8301126117d757600080fd5b60026117e4848285611641565b91505092915050565b600082601f8301126117fe57600080fd5b600261180b8482856116a4565b91505092915050565b600082601f83011261182557600080fd5b8135611835848260208601611707565b91505092915050565b60008151905061184d81612b12565b92915050565b60008151905061186281612b29565b92915050565b60008135905061187781612b40565b92915050565b600082601f83011261188e57600080fd5b813561189e848260208601611773565b91505092915050565b600060a082840312156118b957600080fd5b6118c360a06124bb565b905060006118d38482850161195f565b60008301525060206118e78482850161195f565b60208301525060406118fb8482850161195f565b604083015250606082013567ffffffffffffffff81111561191b57600080fd5b61192784828501611814565b606083015250608082013567ffffffffffffffff81111561194757600080fd5b6119538482850161187d565b60808301525092915050565b60008135905061196e81612b57565b92915050565b60008151905061198381612b57565b92915050565b60008135905061199881612b6e565b92915050565b6000602082840312156119b057600080fd5b60006119be848285016117b1565b91505092915050565b600080604083850312156119da57600080fd5b60006119e8858286016117b1565b92505060206119f985828601611989565b9150509250929050565b600060208284031215611a1557600080fd5b6000611a238482850161183e565b91505092915050565b600060208284031215611a3e57600080fd5b6000611a4c84828501611853565b91505092915050565b600060208284031215611a6757600080fd5b6000611a758482850161195f565b91505092915050565b600060208284031215611a9057600080fd5b6000611a9e84828501611974565b91505092915050565b600060208284031215611ab957600080fd5b6000611ac784828501611989565b91505092915050565b60008060008060006101408688031215611ae957600080fd5b6000611af788828901611989565b955050602086013567ffffffffffffffff811115611b1457600080fd5b611b2088828901611814565b9450506040611b31888289016117ed565b9350506080611b42888289016117c6565b925050610100611b54888289016117ed565b9150509295509295909350565b600080600060608486031215611b7657600080fd5b6000611b8486828701611989565b9350506020611b9586828701611868565b925050604084013567ffffffffffffffff811115611bb257600080fd5b611bbe868287016118a7565b9150509250925092565b6000611bd48383611c76565b60408301905092915050565b6000611bec83836121e1565b60208301905092915050565b6000611c0483836121ff565b60208301905092915050565b611c19816126ea565b82525050565b611c28816125e7565b611c32818461266a565b9250611c3d82612589565b8060005b83811015611c6e578151611c558782611bc8565b9650611c6083612629565b925050600181019050611c41565b505050505050565b611c7f816125f2565b611c898184612675565b9250611c9482612593565b8060005b83811015611cc5578151611cac8782611be0565b9650611cb783612636565b925050600181019050611c98565b505050505050565b611cd6816125f2565b611ce08184612680565b9250611ceb82612593565b8060005b83811015611d1c578151611d038782611be0565b9650611d0e83612636565b925050600181019050611cef565b505050505050565b6000611d2f826125fd565b611d39818561268b565b9350611d448361259d565b8060005b83811015611d75578151611d5c8882611be0565b9750611d6783612643565b925050600181019050611d48565b5085935050505092915050565b6000611d8d826125fd565b611d97818561269c565b9350611da28361259d565b8060005b83811015611dd3578151611dba8882611be0565b9750611dc583612643565b925050600181019050611da6565b5085935050505092915050565b6000611deb82612608565b611df5818561268b565b9350611e00836125ad565b8060005b83811015611e3857611e15826128c7565b611e1f8882611be0565b9750611e2a83612650565b925050600181019050611e04565b5085935050505092915050565b6000611e5082612613565b611e5a81856126ad565b9350611e65836125c2565b8060005b83811015611e96578151611e7d8882611bf8565b9750611e888361265d565b925050600181019050611e69565b5085935050505092915050565b611eac816126fc565b82525050565b611ebb81612708565b82525050565b611eca81612762565b82525050565b611ed981612786565b82525050565b6000611eea8261261e565b611ef481856126be565b9350611f048185602086016127b9565b611f0d816128da565b840191505092915050565b6000611f238261261e565b611f2d81856126cf565b9350611f3d8185602086016127b9565b611f46816128da565b840191505092915050565b60008154611f5e816127ec565b611f6881866126be565b94506001821660008114611f835760018114611f9557611fc8565b60ff1983168652602086019350611fc8565b611f9e856125d2565b60005b83811015611fc057815481890152600182019150602081019050611fa1565b808801955050505b50505092915050565b6000611fde6026836126cf565b9150611fe9826128f8565b604082019050919050565b60006120016028836126cf565b915061200c82612947565b604082019050919050565b6000612024601b836126cf565b915061202f82612996565b602082019050919050565b60006120476020836126cf565b9150612052826129bf565b602082019050919050565b600061206a6028836126cf565b9150612075826129e8565b604082019050919050565b600061208d6052836126cf565b915061209882612a37565b606082019050919050565b60006120b06024836126cf565b91506120bb82612aac565b604082019050919050565b600060a0830160008301516120de60008601826121e1565b5060208301516120f160208601826121e1565b50604083015161210460408601826121e1565b506060830151848203606086015261211c8282611d24565b915050608083015184820360808601526121368282611edf565b9150508091505092915050565b600060a08301600080840154905061215a8161281e565b61216760008701826121e1565b50600184015490506121788161281e565b61218560208701826121e1565b50600284015490506121968161281e565b6121a360408701826121e1565b506003840185830360608701526121ba8382611de0565b9250506004840185830360808701526121d38382611f51565b925050819250505092915050565b6121ea81612744565b82525050565b6121f981612744565b82525050565b6122088161274e565b82525050565b6122178161274e565b82525050565b60006020820190506122326000830184611c10565b92915050565b600060408201905061224d6000830185611c10565b61225a6020830184611eb2565b9392505050565b600061014082019050818103600083015261227c8188611d82565b905061228b6020830187611ccd565b6122986060830186611c1f565b6122a560e0830185611ccd565b8181036101208301526122b88184612143565b90509695505050505050565b600060208201905081810360008301526122de8184611e45565b905092915050565b60006020820190506122fb6000830184611ea3565b92915050565b60006020820190506123166000830184611eb2565b92915050565b60006020820190506123316000830184611ec1565b92915050565b600060208201905061234c6000830184611ed0565b92915050565b6000602082019050818103600083015261236b81611fd1565b9050919050565b6000602082019050818103600083015261238b81611ff4565b9050919050565b600060208201905081810360008301526123ab81612017565b9050919050565b600060208201905081810360008301526123cb8161203a565b9050919050565b600060208201905081810360008301526123eb8161205d565b9050919050565b6000602082019050818103600083015261240b81612080565b9050919050565b6000602082019050818103600083015261242b816120a3565b9050919050565b6000602082019050818103600083015261244c81846120c6565b905092915050565b600060808201905061246960008301876121f0565b61247660208301866121f0565b61248360408301856121f0565b81810360608301526124958184611f18565b905095945050505050565b60006020820190506124b5600083018461220e565b92915050565b60006124c56124d6565b90506124d18282612838565b919050565b6000604051905090565b600067ffffffffffffffff8211156124fb576124fa612898565b5b602082029050919050565b600067ffffffffffffffff82111561252157612520612898565b5b602082029050919050565b600067ffffffffffffffff82111561254757612546612898565b5b602082029050602081019050919050565b600067ffffffffffffffff82111561257357612572612898565b5b61257c826128da565b9050602081019050919050565b6000819050919050565b6000819050919050565b6000819050602082019050919050565b60008190508160005260206000209050919050565b6000819050602082019050919050565b60008190508160005260206000209050919050565b600060029050919050565b600060029050919050565b600081519050919050565b600081549050919050565b600081519050919050565b600081519050919050565b6000602082019050919050565b6000602082019050919050565b6000602082019050919050565b6000600182019050919050565b6000602082019050919050565b600081905092915050565b600081905092915050565b600081905092915050565b600082825260208201905092915050565b600082825260208201905092915050565b600082825260208201905092915050565b600082825260208201905092915050565b600082825260208201905092915050565b6000819050919050565b60006126f582612724565b9050919050565b60008115159050919050565b6000819050919050565b600061271d826126ea565b9050919050565b600073ffffffffffffffffffffffffffffffffffffffff82169050919050565b6000819050919050565b600067ffffffffffffffff82169050919050565b600061276d82612774565b9050919050565b600061277f82612724565b9050919050565b600061279182612798565b9050919050565b60006127a382612724565b9050919050565b82818337600083830152505050565b60005b838110156127d75780820151818401526020810190506127bc565b838111156127e6576000848401525b50505050565b6000600282049050600182168061280457607f821691505b6020821081141561281857612817612869565b5b50919050565b600061283161282c836128eb565b6126e0565b9050919050565b612841826128da565b810181811067ffffffffffffffff821117156128605761285f612898565b5b80604052505050565b7f4e487b7100000000000000000000000000000000000000000000000000000000600052602260045260246000fd5b7f4e487b7100000000000000000000000000000000000000000000000000000000600052604160045260246000fd5b60006128d3825461281e565b9050919050565b6000601f19601f8301169050919050565b60008160001c9050919050565b7f4f776e61626c653a206e6577206f776e657220697320746865207a65726f206160008201527f6464726573730000000000000000000000000000000000000000000000000000602082015250565b7f6164647265737320696e2070726f6f66206973206e6f7420612073656e64657260008201527f2061646472657373000000000000000000000000000000000000000000000000602082015250565b7f70726f6f6620726573706f6e7365206973206e6f742076616c69640000000000600082015250565b7f4f776e61626c653a2063616c6c6572206973206e6f7420746865206f776e6572600082015250565b7f76616c696461746f72206973206e6f742073657420666f72207468697320726560008201527f7175657374206964000000000000000000000000000000000000000000000000602082015250565b7f566572696669657220636f6e74726163742069732070617573656420616e642060008201527f70726f63657373696e6720616e6f7468657220636c61696d2c20506c6561736560208201527f207761697420666f7220736f6d6574696d650000000000000000000000000000604082015250565b7f7175657279206973206e6f742073657420666f7220746869732072657175657360008201527f7420696400000000000000000000000000000000000000000000000000000000602082015250565b612b04816126ea565b8114612b0f57600080fd5b50565b612b1b816126fc565b8114612b2657600080fd5b50565b612b3281612708565b8114612b3d57600080fd5b50565b612b4981612712565b8114612b5457600080fd5b50565b612b6081612744565b8114612b6b57600080fd5b50565b612b778161274e565b8114612b8257600080fd5b5056fea2646970667358221220c489fe958f84c0173ee47b0ac63ad8dbc54f33975088731a9c33d20e5d77951864736f6c63430008040033",
  "linkReferences": {},
  "deployedLinkReferences": {}
}