{
  "_format": "hh-sol-artifact-1",
  "contractName": "SwhanSurkshaClaimVerifier",
  "sourceName": "contracts/SwhanSurkshaClaimVerifier.sol",
  "abi": [
    {
      "inputs": [
        {
          "internalType": "address",
          "name": "_shwanSurkshaAddr",
          "type": "address"
        }
      ],
      "stateMutability": "nonpayable",
      "type": "constructor"
    },
    {
      "anonymous": false,
      "inputs": [
        {
          "indexed": true,
          "internalType": "address",
          "name": "previousOwner",
          "type": "address"
        },
        {
          "indexed": true,
          "internalType": "address",
          "name": "newOwner",
          "type": "address"
        }
      ],
      "name": "OwnershipTransferred",
      "type": "event"
    },
    {
      "anonymous": false,
      "inputs": [
        {
          "indexed": false,
          "internalType": "address",
          "name": "policyHolder",
          "type": "address"
        },
        {
          "indexed": false,
          "internalType": "bytes32",
          "name": "policyId",
          "type": "bytes32"
        }
      ],
      "name": "proofSubmitedSuccesfully",
      "type": "event"
    },
    {
      "inputs": [],
      "name": "TRANSFER_REQUEST_ID",
      "outputs": [
        {
          "internalType": "uint64",
          "name": "",
          "type": "uint64"
        }
      ],
      "stateMutability": "view",
      "type": "function"
    },
    {
      "inputs": [
        {
          "internalType": "address",
          "name": "",
          "type": "address"
        }
      ],
      "name": "addressToId",
      "outputs": [
        {
          "internalType": "uint256",
          "name": "",
          "type": "uint256"
        }
      ],
      "stateMutability": "view",
      "type": "function"
    },
    {
      "inputs": [],
      "name": "getSupportedRequests",
      "outputs": [
        {
          "internalType": "uint64[]",
          "name": "arr",
          "type": "uint64[]"
        }
      ],
      "stateMutability": "view",
      "type": "function"
    },
    {
      "inputs": [
        {
          "internalType": "uint64",
          "name": "requestId",
          "type": "uint64"
        }
      ],
      "name": "getZKPRequest",
      "outputs": [
        {
          "components": [
            {
              "internalType": "uint256",
              "name": "schema",
              "type": "uint256"
            },
            {
              "internalType": "uint256",
              "name": "slotIndex",
              "type": "uint256"
            },
            {
              "internalType": "uint256",
              "name": "operator",
              "type": "uint256"
            },
            {
              "internalType": "uint256[]",
              "name": "value",
              "type": "uint256[]"
            },
            {
              "internalType": "string",
              "name": "circuitId",
              "type": "string"
            }
          ],
          "internalType": "struct ICircuitValidator.CircuitQuery",
          "name": "",
          "type": "tuple"
        }
      ],
      "stateMutability": "view",
      "type": "function"
    },
    {
      "inputs": [
        {
          "internalType": "uint256",
          "name": "",
          "type": "uint256"
        }
      ],
      "name": "idToAddress",
      "outputs": [
        {
          "internalType": "address",
          "name": "",
          "type": "address"
        }
      ],
      "stateMutability": "view",
      "type": "function"
    },
    {
      "inputs": [],
      "name": "owner",
      "outputs": [
        {
          "internalType": "address",
          "name": "",
          "type": "address"
        }
      ],
      "stateMutability": "view",
      "type": "function"
    },
    {
      "inputs": [
        {
          "internalType": "address",
          "name": "",
          "type": "address"
        },
        {
          "internalType": "uint64",
          "name": "",
          "type": "uint64"
        }
      ],
      "name": "proofs",
      "outputs": [
        {
          "internalType": "bool",
          "name": "",
          "type": "bool"
        }
      ],
      "stateMutability": "view",
      "type": "function"
    },
    {
      "inputs": [],
      "name": "renounceOwnership",
      "outputs": [],
      "stateMutability": "nonpayable",
      "type": "function"
    },
    {
      "inputs": [
        {
          "internalType": "uint64",
          "name": "",
          "type": "uint64"
        }
      ],
      "name": "requestQueries",
      "outputs": [
        {
          "internalType": "uint256",
          "name": "schema",
          "type": "uint256"
        },
        {
          "internalType": "uint256",
          "name": "slotIndex",
          "type": "uint256"
        },
        {
          "internalType": "uint256",
          "name": "operator",
          "type": "uint256"
        },
        {
          "internalType": "string",
          "name": "circuitId",
          "type": "string"
        }
      ],
      "stateMutability": "view",
      "type": "function"
    },
    {
      "inputs": [
        {
          "internalType": "uint64",
          "name": "",
          "type": "uint64"
        }
      ],
      "name": "requestValidators",
      "outputs": [
        {
          "internalType": "contract ICircuitValidator",
          "name": "",
          "type": "address"
        }
      ],
      "stateMutability": "view",
      "type": "function"
    },
    {
      "inputs": [
        {
          "internalType": "uint64",
          "name": "requestId",
          "type": "uint64"
        },
        {
          "internalType": "contract ICircuitValidator",
          "name": "validator",
          "type": "address"
        },
        {
          "components": [
            {
              "internalType": "uint256",
              "name": "schema",
              "type": "uint256"
            },
            {
              "internalType": "uint256",
              "name": "slotIndex",
              "type": "uint256"
            },
            {
              "internalType": "uint256",
              "name": "operator",
              "type": "uint256"
            },
            {
              "internalType": "uint256[]",
              "name": "value",
              "type": "uint256[]"
            },
            {
              "internalType": "string",
              "name": "circuitId",
              "type": "string"
            }
          ],
          "internalType": "struct ICircuitValidator.CircuitQuery",
          "name": "query",
          "type": "tuple"
        }
      ],
      "name": "setZKPRequest",
      "outputs": [
        {
          "internalType": "bool",
          "name": "",
          "type": "bool"
        }
      ],
      "stateMutability": "nonpayable",
      "type": "function"
    },
    {
      "inputs": [],
      "name": "shwanSurksha",
      "outputs": [
        {
          "internalType": "contract IShwanSurksha",
          "name": "",
          "type": "address"
        }
      ],
      "stateMutability": "view",
      "type": "function"
    },
    {
      "inputs": [
        {
          "internalType": "uint64",
          "name": "requestId",
          "type": "uint64"
        },
        {
          "internalType": "uint256[]",
          "name": "inputs",
          "type": "uint256[]"
        },
        {
          "internalType": "uint256[2]",
          "name": "a",
          "type": "uint256[2]"
        },
        {
          "internalType": "uint256[2][2]",
          "name": "b",
          "type": "uint256[2][2]"
        },
        {
          "internalType": "uint256[2]",
          "name": "c",
          "type": "uint256[2]"
        }
      ],
      "name": "submitZKPResponse",
      "outputs": [
        {
          "internalType": "bool",
          "name": "",
          "type": "bool"
        }
      ],
      "stateMutability": "nonpayable",
      "type": "function"
    },
    {
      "inputs": [
        {
          "internalType": "uint256",
          "name": "",
          "type": "uint256"
        }
      ],
      "name": "supportedRequests",
      "outputs": [
        {
          "internalType": "uint64",
          "name": "",
          "type": "uint64"
        }
      ],
      "stateMutability": "view",
      "type": "function"
    },
    {
      "inputs": [
        {
          "internalType": "address",
          "name": "newOwner",
          "type": "address"
        }
      ],
      "name": "transferOwnership",
      "outputs": [],
      "stateMutability": "nonpayable",
      "type": "function"
    }
  ],
  "bytecode": "0x60806040523480156200001157600080fd5b5060405162002f0738038062002f07833981810160405281019062000037919062000182565b620000576200004b6200009f60201b60201c565b620000a760201b60201c565b80600560006101000a81548173ffffffffffffffffffffffffffffffffffffffff021916908373ffffffffffffffffffffffffffffffffffffffff16021790555050620001fc565b600033905090565b60008060009054906101000a900473ffffffffffffffffffffffffffffffffffffffff169050816000806101000a81548173ffffffffffffffffffffffffffffffffffffffff021916908373ffffffffffffffffffffffffffffffffffffffff1602179055508173ffffffffffffffffffffffffffffffffffffffff168173ffffffffffffffffffffffffffffffffffffffff167f8be0079c531659141344cd1fd0a4f28419497f9722a3daafe3b4186f6b6457e060405160405180910390a35050565b6000815190506200017c81620001e2565b92915050565b6000602082840312156200019557600080fd5b6000620001a5848285016200016b565b91505092915050565b6000620001bb82620001c2565b9050919050565b600073ffffffffffffffffffffffffffffffffffffffff82169050919050565b620001ed81620001ae565b8114620001f957600080fd5b50565b612cfb806200020c6000396000f3fe608060405234801561001057600080fd5b50600436106100f55760003560e01c8063a872311411610097578063cb0e0d7d11610066578063cb0e0d7d1461029f578063f1435326146102cf578063f2fde38b146102ff578063fee207e61461031b576100f5565b8063a8723114146101df578063b45c0fdf1461020f578063b68967e21461023f578063c76d08451461026f576100f5565b806363ec508f116100d357806363ec508f14610166578063715018a6146101845780638da5cb5b1461018e57806396bf4741146101ac576100f5565b80632a2d0c47146100fa57806337ba95231461012a5780633e305d0714610148575b600080fd5b610114600480360381019061010f9190611bbb565b61034b565b6040516101219190612383565b60405180910390f35b61013261037e565b60405161013f919061242a565b60405180910390f35b61015061040a565b60405161015d9190612482565b60405180910390f35b61016e610430565b60405161017b9190612606565b60405180910390f35b61018c610435565b005b610196610449565b6040516101a39190612383565b60405180910390f35b6101c660048036038101906101c19190611c0d565b610472565b6040516101d694939291906125ba565b60405180910390f35b6101f960048036038101906101f49190611c0d565b61052a565b6040516102069190612467565b60405180910390f35b61022960048036038101906102249190611b2d565b61055d565b604051610236919061244c565b60405180910390f35b61025960048036038101906102549190611c36565b61058c565b604051610266919061244c565b60405180910390f35b61028960048036038101906102849190611c0d565b61091c565b604051610296919061257d565b60405180910390f35b6102b960048036038101906102b49190611b04565b610a65565b6040516102c6919061259f565b60405180910390f35b6102e960048036038101906102e49190611bbb565b610a7d565b6040516102f69190612606565b60405180910390f35b61031960048036038101906103149190611b04565b610abb565b005b61033560048036038101906103309190611cc7565b610b3f565b604051610342919061244c565b60405180910390f35b60066020528060005260406000206000915054906101000a900473ffffffffffffffffffffffffffffffffffffffff1681565b6060600480548060200260200160405190810160405280929190818152602001828054801561040057602002820191906000526020600020906000905b82829054906101000a900467ffffffffffffffff1667ffffffffffffffff16815260200190600801906020826007010492830192600103820291508084116103bb5790505b5050505050905090565b600560009054906101000a900473ffffffffffffffffffffffffffffffffffffffff1681565b600181565b61043d610def565b6104476000610e6d565b565b60008060009054906101000a900473ffffffffffffffffffffffffffffffffffffffff16905090565b60026020528060005260406000206000915090508060000154908060010154908060020154908060040180546104a790612952565b80601f01602080910402602001604051908101604052809291908181526020018280546104d390612952565b80156105205780601f106104f557610100808354040283529160200191610520565b820191906000526020600020905b81548152906001019060200180831161050357829003601f168201915b5050505050905084565b60036020528060005260406000206000915054906101000a900473ffffffffffffffffffffffffffffffffffffffff1681565b60016020528160005260406000206020528060005260406000206000915091509054906101000a900460ff1681565b60008073ffffffffffffffffffffffffffffffffffffffff16600360008867ffffffffffffffff1667ffffffffffffffff16815260200190815260200160002060009054906101000a900473ffffffffffffffffffffffffffffffffffffffff1673ffffffffffffffffffffffffffffffffffffffff161415610644576040517f08c379a000000000000000000000000000000000000000000000000000000000815260040161063b9061253d565b60405180910390fd5b6000600260008867ffffffffffffffff1667ffffffffffffffff1681526020019081526020016000206000015414156106b2576040517f08c379a00000000000000000000000000000000000000000000000000000000081526004016106a99061255d565b60405180910390fd5b6107048686600360008a67ffffffffffffffff1667ffffffffffffffff16815260200190815260200160002060009054906101000a900473ffffffffffffffffffffffffffffffffffffffff16610f31565b600360008767ffffffffffffffff1667ffffffffffffffff16815260200190815260200160002060009054906101000a900473ffffffffffffffffffffffffffffffffffffffff1673ffffffffffffffffffffffffffffffffffffffff166367e1d50486868686600260008d67ffffffffffffffff1667ffffffffffffffff1681526020019081526020016000206040518663ffffffff1660e01b81526004016107b29594939291906123c7565b60206040518083038186803b1580156107ca57600080fd5b505afa1580156107de573d6000803e3d6000fd5b505050506040513d601f19601f820116820180604052508101906108029190611b69565b610841576040517f08c379a0000000000000000000000000000000000000000000000000000000008152600401610838906124dd565b60405180910390fd5b60018060003373ffffffffffffffffffffffffffffffffffffffff1673ffffffffffffffffffffffffffffffffffffffff16815260200190815260200160002060008867ffffffffffffffff1667ffffffffffffffff16815260200190815260200160002060006101000a81548160ff02191690831515021790555061090f8686600360008a67ffffffffffffffff1667ffffffffffffffff16815260200190815260200160002060009054906101000a900473ffffffffffffffffffffffffffffffffffffffff16611076565b6001905095945050505050565b610924611688565b600260008367ffffffffffffffff1667ffffffffffffffff1681526020019081526020016000206040518060a0016040529081600082015481526020016001820154815260200160028201548152602001600382018054806020026020016040519081016040528092919081815260200182805480156109c357602002820191906000526020600020905b8154815260200190600101908083116109af575b505050505081526020016004820180546109dc90612952565b80601f0160208091040260200160405190810160405280929190818152602001828054610a0890612952565b8015610a555780601f10610a2a57610100808354040283529160200191610a55565b820191906000526020600020905b815481529060010190602001808311610a3857829003601f168201915b5050505050815250509050919050565b60076020528060005260406000206000915090505481565b60048181548110610a8d57600080fd5b9060005260206000209060049182820401919006600802915054906101000a900467ffffffffffffffff1681565b610ac3610def565b600073ffffffffffffffffffffffffffffffffffffffff168173ffffffffffffffffffffffffffffffffffffffff161415610b33576040517f08c379a0000000000000000000000000000000000000000000000000000000008152600401610b2a9061249d565b60405180910390fd5b610b3c81610e6d565b50565b6000610b49610def565b600073ffffffffffffffffffffffffffffffffffffffff16600360008667ffffffffffffffff1667ffffffffffffffff16815260200190815260200160002060009054906101000a900473ffffffffffffffffffffffffffffffffffffffff1673ffffffffffffffffffffffffffffffffffffffff161415610c1c5760048490806001815401808255809150506001900390600052602060002090600491828204019190066008029091909190916101000a81548167ffffffffffffffff021916908367ffffffffffffffff1602179055505b8160600151600260008667ffffffffffffffff1667ffffffffffffffff1681526020019081526020016000206003019080519060200190610c5e9291906116b7565b508160400151600260008667ffffffffffffffff1667ffffffffffffffff168152602001908152602001600020600201819055508160800151600260008667ffffffffffffffff1667ffffffffffffffff1681526020019081526020016000206004019080519060200190610cd4929190611704565b508160200151600260008667ffffffffffffffff1667ffffffffffffffff168152602001908152602001600020600101819055508160000151600260008667ffffffffffffffff1667ffffffffffffffff168152602001908152602001600020600001819055508160800151600260008667ffffffffffffffff1667ffffffffffffffff1681526020019081526020016000206004019080519060200190610d7d929190611704565b5082600360008667ffffffffffffffff1667ffffffffffffffff16815260200190815260200160002060006101000a81548173ffffffffffffffffffffffffffffffffffffffff021916908373ffffffffffffffffffffffffffffffffffffffff160217905550600190509392505050565b610df7611481565b73ffffffffffffffffffffffffffffffffffffffff16610e15610449565b73ffffffffffffffffffffffffffffffffffffffff1614610e6b576040517f08c379a0000000000000000000000000000000000000000000000000000000008152600401610e62906124fd565b60405180910390fd5b565b60008060009054906101000a900473ffffffffffffffffffffffffffffffffffffffff169050816000806101000a81548173ffffffffffffffffffffffffffffffffffffffff021916908373ffffffffffffffffffffffffffffffffffffffff1602179055508173ffffffffffffffffffffffffffffffffffffffff168173ffffffffffffffffffffffffffffffffffffffff167f8be0079c531659141344cd1fd0a4f28419497f9722a3daafe3b4186f6b6457e060405160405180910390a35050565b6000610ff9838373ffffffffffffffffffffffffffffffffffffffff16639f442afa6040518163ffffffff1660e01b815260040160206040518083038186803b158015610f7d57600080fd5b505afa158015610f91573d6000803e3d6000fd5b505050506040513d601f19601f82011682018060405250810190610fb59190611be4565b81518110610fec577f4e487b7100000000000000000000000000000000000000000000000000000000600052603260045260246000fd5b6020026020010151611489565b90508073ffffffffffffffffffffffffffffffffffffffff1661101a611481565b73ffffffffffffffffffffffffffffffffffffffff1614611070576040517f08c379a0000000000000000000000000000000000000000000000000000000008152600401611067906124bd565b60405180910390fd5b50505050565b600167ffffffffffffffff168367ffffffffffffffff161480156110e057506000600760006110a3611481565b73ffffffffffffffffffffffffffffffffffffffff1673ffffffffffffffffffffffffffffffffffffffff16815260200190815260200160002054145b61111f576040517f08c379a00000000000000000000000000000000000000000000000000000000081526004016111169061251d565b60405180910390fd5b6000828273ffffffffffffffffffffffffffffffffffffffff16639f442afa6040518163ffffffff1660e01b815260040160206040518083038186803b15801561116857600080fd5b505afa15801561117c573d6000803e3d6000fd5b505050506040513d601f19601f820116820180604052508101906111a09190611be4565b815181106111d7577f4e487b7100000000000000000000000000000000000000000000000000000000600052603260045260246000fd5b60200260200101519050600073ffffffffffffffffffffffffffffffffffffffff166006600083815260200190815260200160002060009054906101000a900473ffffffffffffffffffffffffffffffffffffffff1673ffffffffffffffffffffffffffffffffffffffff16141561147b578060076000611256611481565b73ffffffffffffffffffffffffffffffffffffffff1673ffffffffffffffffffffffffffffffffffffffff1681526020019081526020016000208190555061129c611481565b6006600083815260200190815260200160002060006101000a81548173ffffffffffffffffffffffffffffffffffffffff021916908373ffffffffffffffffffffffffffffffffffffffff1602179055506000600560009054906101000a900473ffffffffffffffffffffffffffffffffffffffff1673ffffffffffffffffffffffffffffffffffffffff166389a99dc9611335611481565b6040518263ffffffff1660e01b81526004016113519190612383565b60206040518083038186803b15801561136957600080fd5b505afa15801561137d573d6000803e3d6000fd5b505050506040513d601f19601f820116820180604052508101906113a19190611b92565b9050600560009054906101000a900473ffffffffffffffffffffffffffffffffffffffff1673ffffffffffffffffffffffffffffffffffffffff1663dac2cb386113e9611481565b836040518363ffffffff1660e01b815260040161140792919061239e565b600060405180830381600087803b15801561142157600080fd5b505af1158015611435573d6000803e3d6000fd5b505050507f7122f6148f8dba8cf0839ce4c74923574452ede674d2daab716f0132a9a23b0f611462611481565b8260405161147192919061239e565b60405180910390a1505b50505050565b600033905090565b60006114a461149f61149a846114ab565b6115f7565b61167a565b9050919050565b600081905060087eff00ff00ff00ff00ff00ff00ff00ff00ff00ff00ff00ff00ff00ff00ff00ff8216901b60087fff00ff00ff00ff00ff00ff00ff00ff00ff00ff00ff00ff00ff00ff00ff00ff008316901c17905060107dffff0000ffff0000ffff0000ffff0000ffff0000ffff0000ffff0000ffff8216901b60107fffff0000ffff0000ffff0000ffff0000ffff0000ffff0000ffff0000ffff00008316901c17905060207bffffffff00000000ffffffff00000000ffffffff00000000ffffffff8216901b60207fffffffff00000000ffffffff00000000ffffffff00000000ffffffff000000008316901c179050604077ffffffffffffffff0000000000000000ffffffffffffffff8216901b60407fffffffffffffffff0000000000000000ffffffffffffffff00000000000000008316901c179050608081901b608082901c179050919050565b6060602067ffffffffffffffff81111561163a577f4e487b7100000000000000000000000000000000000000000000000000000000600052604160045260246000fd5b6040519080825280601f01601f19166020018201604052801561166c5781602001600182028036833780820191505090505b509050816020820152919050565b600060148201519050919050565b6040518060a0016040528060008152602001600081526020016000815260200160608152602001606081525090565b8280548282559060005260206000209081019282156116f3579160200282015b828111156116f25782518255916020019190600101906116d7565b5b509050611700919061178a565b5090565b82805461171090612952565b90600052602060002090601f0160209004810192826117325760008555611779565b82601f1061174b57805160ff1916838001178555611779565b82800160010185558215611779579182015b8281111561177857825182559160200191906001019061175d565b5b509050611786919061178a565b5090565b5b808211156117a357600081600090555060010161178b565b5090565b60006117ba6117b584612646565b612621565b905080828560408602820111156117d057600080fd5b60005b8581101561180057816117e68882611953565b8452602084019350604083019250506001810190506117d3565b5050509392505050565b600061181d6118188461266c565b612621565b9050808285602086028201111561183357600080fd5b60005b8581101561186357816118498882611ac5565b845260208401935060208301925050600181019050611836565b5050509392505050565b600061188061187b84612692565b612621565b9050808382526020820190508285602086028201111561189f57600080fd5b60005b858110156118cf57816118b58882611ac5565b8452602084019350602083019250506001810190506118a2565b5050509392505050565b60006118ec6118e7846126be565b612621565b90508281526020810184848401111561190457600080fd5b61190f848285612910565b509392505050565b60008135905061192681612c3b565b92915050565b600082601f83011261193d57600080fd5b600261194a8482856117a7565b91505092915050565b600082601f83011261196457600080fd5b600261197184828561180a565b91505092915050565b600082601f83011261198b57600080fd5b813561199b84826020860161186d565b91505092915050565b6000815190506119b381612c52565b92915050565b6000815190506119c881612c69565b92915050565b6000813590506119dd81612c80565b92915050565b600082601f8301126119f457600080fd5b8135611a048482602086016118d9565b91505092915050565b600060a08284031215611a1f57600080fd5b611a2960a0612621565b90506000611a3984828501611ac5565b6000830152506020611a4d84828501611ac5565b6020830152506040611a6184828501611ac5565b604083015250606082013567ffffffffffffffff811115611a8157600080fd5b611a8d8482850161197a565b606083015250608082013567ffffffffffffffff811115611aad57600080fd5b611ab9848285016119e3565b60808301525092915050565b600081359050611ad481612c97565b92915050565b600081519050611ae981612c97565b92915050565b600081359050611afe81612cae565b92915050565b600060208284031215611b1657600080fd5b6000611b2484828501611917565b91505092915050565b60008060408385031215611b4057600080fd5b6000611b4e85828601611917565b9250506020611b5f85828601611aef565b9150509250929050565b600060208284031215611b7b57600080fd5b6000611b89848285016119a4565b91505092915050565b600060208284031215611ba457600080fd5b6000611bb2848285016119b9565b91505092915050565b600060208284031215611bcd57600080fd5b6000611bdb84828501611ac5565b91505092915050565b600060208284031215611bf657600080fd5b6000611c0484828501611ada565b91505092915050565b600060208284031215611c1f57600080fd5b6000611c2d84828501611aef565b91505092915050565b60008060008060006101408688031215611c4f57600080fd5b6000611c5d88828901611aef565b955050602086013567ffffffffffffffff811115611c7a57600080fd5b611c868882890161197a565b9450506040611c9788828901611953565b9350506080611ca88882890161192c565b925050610100611cba88828901611953565b9150509295509295909350565b600080600060608486031215611cdc57600080fd5b6000611cea86828701611aef565b9350506020611cfb868287016119ce565b925050604084013567ffffffffffffffff811115611d1857600080fd5b611d2486828701611a0d565b9150509250925092565b6000611d3a8383611ddc565b60408301905092915050565b6000611d528383612347565b60208301905092915050565b6000611d6a8383612365565b60208301905092915050565b611d7f81612850565b82525050565b611d8e8161274d565b611d9881846127d0565b9250611da3826126ef565b8060005b83811015611dd4578151611dbb8782611d2e565b9650611dc68361278f565b925050600181019050611da7565b505050505050565b611de581612758565b611def81846127db565b9250611dfa826126f9565b8060005b83811015611e2b578151611e128782611d46565b9650611e1d8361279c565b925050600181019050611dfe565b505050505050565b611e3c81612758565b611e4681846127e6565b9250611e51826126f9565b8060005b83811015611e82578151611e698782611d46565b9650611e748361279c565b925050600181019050611e55565b505050505050565b6000611e9582612763565b611e9f81856127f1565b9350611eaa83612703565b8060005b83811015611edb578151611ec28882611d46565b9750611ecd836127a9565b925050600181019050611eae565b5085935050505092915050565b6000611ef382612763565b611efd8185612802565b9350611f0883612703565b8060005b83811015611f39578151611f208882611d46565b9750611f2b836127a9565b925050600181019050611f0c565b5085935050505092915050565b6000611f518261276e565b611f5b81856127f1565b9350611f6683612713565b8060005b83811015611f9e57611f7b82612a2d565b611f858882611d46565b9750611f90836127b6565b925050600181019050611f6a565b5085935050505092915050565b6000611fb682612779565b611fc08185612813565b9350611fcb83612728565b8060005b83811015611ffc578151611fe38882611d5e565b9750611fee836127c3565b925050600181019050611fcf565b5085935050505092915050565b61201281612862565b82525050565b6120218161286e565b82525050565b612030816128c8565b82525050565b61203f816128ec565b82525050565b600061205082612784565b61205a8185612824565b935061206a81856020860161291f565b61207381612a40565b840191505092915050565b600061208982612784565b6120938185612835565b93506120a381856020860161291f565b6120ac81612a40565b840191505092915050565b600081546120c481612952565b6120ce8186612824565b945060018216600081146120e957600181146120fb5761212e565b60ff198316865260208601935061212e565b61210485612738565b60005b8381101561212657815481890152600182019150602081019050612107565b808801955050505b50505092915050565b6000612144602683612835565b915061214f82612a5e565b604082019050919050565b6000612167602883612835565b915061217282612aad565b604082019050919050565b600061218a601b83612835565b915061219582612afc565b602082019050919050565b60006121ad602083612835565b91506121b882612b25565b602082019050919050565b60006121d0602983612835565b91506121db82612b4e565b604082019050919050565b60006121f3602883612835565b91506121fe82612b9d565b604082019050919050565b6000612216602483612835565b915061222182612bec565b604082019050919050565b600060a0830160008301516122446000860182612347565b5060208301516122576020860182612347565b50604083015161226a6040860182612347565b50606083015184820360608601526122828282611e8a565b9150506080830151848203608086015261229c8282612045565b9150508091505092915050565b600060a0830160008084015490506122c081612984565b6122cd6000870182612347565b50600184015490506122de81612984565b6122eb6020870182612347565b50600284015490506122fc81612984565b6123096040870182612347565b506003840185830360608701526123208382611f46565b92505060048401858303608087015261233983826120b7565b925050819250505092915050565b612350816128aa565b82525050565b61235f816128aa565b82525050565b61236e816128b4565b82525050565b61237d816128b4565b82525050565b60006020820190506123986000830184611d76565b92915050565b60006040820190506123b36000830185611d76565b6123c06020830184612018565b9392505050565b60006101408201905081810360008301526123e28188611ee8565b90506123f16020830187611e33565b6123fe6060830186611d85565b61240b60e0830185611e33565b81810361012083015261241e81846122a9565b90509695505050505050565b600060208201905081810360008301526124448184611fab565b905092915050565b60006020820190506124616000830184612009565b92915050565b600060208201905061247c6000830184612027565b92915050565b60006020820190506124976000830184612036565b92915050565b600060208201905081810360008301526124b681612137565b9050919050565b600060208201905081810360008301526124d68161215a565b9050919050565b600060208201905081810360008301526124f68161217d565b9050919050565b60006020820190508181036000830152612516816121a0565b9050919050565b60006020820190508181036000830152612536816121c3565b9050919050565b60006020820190508181036000830152612556816121e6565b9050919050565b6000602082019050818103600083015261257681612209565b9050919050565b60006020820190508181036000830152612597818461222c565b905092915050565b60006020820190506125b46000830184612356565b92915050565b60006080820190506125cf6000830187612356565b6125dc6020830186612356565b6125e96040830185612356565b81810360608301526125fb818461207e565b905095945050505050565b600060208201905061261b6000830184612374565b92915050565b600061262b61263c565b9050612637828261299e565b919050565b6000604051905090565b600067ffffffffffffffff821115612661576126606129fe565b5b602082029050919050565b600067ffffffffffffffff821115612687576126866129fe565b5b602082029050919050565b600067ffffffffffffffff8211156126ad576126ac6129fe565b5b602082029050602081019050919050565b600067ffffffffffffffff8211156126d9576126d86129fe565b5b6126e282612a40565b9050602081019050919050565b6000819050919050565b6000819050919050565b6000819050602082019050919050565b60008190508160005260206000209050919050565b6000819050602082019050919050565b60008190508160005260206000209050919050565b600060029050919050565b600060029050919050565b600081519050919050565b600081549050919050565b600081519050919050565b600081519050919050565b6000602082019050919050565b6000602082019050919050565b6000602082019050919050565b6000600182019050919050565b6000602082019050919050565b600081905092915050565b600081905092915050565b600081905092915050565b600082825260208201905092915050565b600082825260208201905092915050565b600082825260208201905092915050565b600082825260208201905092915050565b600082825260208201905092915050565b6000819050919050565b600061285b8261288a565b9050919050565b60008115159050919050565b6000819050919050565b600061288382612850565b9050919050565b600073ffffffffffffffffffffffffffffffffffffffff82169050919050565b6000819050919050565b600067ffffffffffffffff82169050919050565b60006128d3826128da565b9050919050565b60006128e58261288a565b9050919050565b60006128f7826128fe565b9050919050565b60006129098261288a565b9050919050565b82818337600083830152505050565b60005b8381101561293d578082015181840152602081019050612922565b8381111561294c576000848401525b50505050565b6000600282049050600182168061296a57607f821691505b6020821081141561297e5761297d6129cf565b5b50919050565b600061299761299283612a51565b612846565b9050919050565b6129a782612a40565b810181811067ffffffffffffffff821117156129c6576129c56129fe565b5b80604052505050565b7f4e487b7100000000000000000000000000000000000000000000000000000000600052602260045260246000fd5b7f4e487b7100000000000000000000000000000000000000000000000000000000600052604160045260246000fd5b6000612a398254612984565b9050919050565b6000601f19601f8301169050919050565b60008160001c9050919050565b7f4f776e61626c653a206e6577206f776e657220697320746865207a65726f206160008201527f6464726573730000000000000000000000000000000000000000000000000000602082015250565b7f6164647265737320696e2070726f6f66206973206e6f7420612073656e64657260008201527f2061646472657373000000000000000000000000000000000000000000000000602082015250565b7f70726f6f6620726573706f6e7365206973206e6f742076616c69640000000000600082015250565b7f4f776e61626c653a2063616c6c6572206973206e6f7420746865206f776e6572600082015250565b7f70726f6f662063616e206e6f74206265207375626d6974746564206d6f72652060008201527f7468616e206f6e63650000000000000000000000000000000000000000000000602082015250565b7f76616c696461746f72206973206e6f742073657420666f72207468697320726560008201527f7175657374206964000000000000000000000000000000000000000000000000602082015250565b7f7175657279206973206e6f742073657420666f7220746869732072657175657360008201527f7420696400000000000000000000000000000000000000000000000000000000602082015250565b612c4481612850565b8114612c4f57600080fd5b50565b612c5b81612862565b8114612c6657600080fd5b50565b612c728161286e565b8114612c7d57600080fd5b50565b612c8981612878565b8114612c9457600080fd5b50565b612ca0816128aa565b8114612cab57600080fd5b50565b612cb7816128b4565b8114612cc257600080fd5b5056fea26469706673582212203c1824c4dc23e6b0bf948441a4187f60ee936d4f85af3b795d2e8ec61ebb4e9b64736f6c63430008040033",
  "linkReferences": {},
  "deployedLinkReferences": {}
}